:020000040800F2
:10000000D8090020C9000008B30C0008B10C000892
:1000100000000000000000000000000000000000E0
:10002000000000000000000000000000D5120008E1
:100030000000000000000000750F0008FD1200081D
:10004000F900000800000000F9000008F9000008AD
:10005000F9000008AD090008F9000008F9000008DF
:1000600000000000F9000008F9000008F90000088D
:1000700099090008F9000008F900000800000000D4
:10008000F90000080000000000000000FD13000857
:10009000F9000008F9000008F9000008F90000085C
:1000A000F9000008F90000080112000837140008E0
:1000B000F90000080348854600F00EFC00480047A0
:1000C00091160008D80900200C4880F308880C48D5
:1000D0000168090E0B4A914205D10B480B4901609A
:1000E0000B480C4901600C4880470C480047FEE76C
:1000F000FEE7FEE7FEE7FEE7FEE70000D809002086
:10010000040000001F000000181002400100000061
:10011000000001400000000019130008B5000008AD
:1001200003460B439B0703D009E008C9121F08C010
:10013000042AFAD203E00B780370401C491C521EBB
:10014000F9D27047D2B201E00270401C491EFBD2C6
:1001500070470022F6E710B513460A4604461946D2
:10016000FFF7F0FF204610BDF8B502464A40D40F15
:1001700042004B0052085B089A4202D202460846EF
:1001800011464A0023D0C30D4A00DDB2120EAD1A4B
:10019000202D35DA49020126490AF6058A19002C74
:1001A00000D0524220214F1B1146B9402A4110185D
:1001B000C20D9A4221D0002C17D0012D08DCDA059F
:1001C000801AD20F8019D207DBB200F011FAF8BD05
:1001D000DA05801A012340001B06C01880185A4215
:1001E0008018CA0F1043490007E04908C2071143AD
:1001F000DA05801A80194008801800F0F1F9F8BD7E
:1002000061000122511A001BF7E70122D207514079
:10021000AAE70122D2075040A6E7024670B54A403D
:10022000D30FDB0740002DD04A002AD0010E140E58
:10023000000212020919400A520A8418E501044614
:100240005443000A120A2E045043A4194219200CE8
:10025000C543AA18120C0125AD03521C52191204F1
:100260007F39240400D0521C104301D44000491EA1
:10027000C2B20C06C0092018401C4008802A02D0D7
:1002800003E0002070BD40084000002900DA002093
:10029000184370BD70B502464A40D50F40004A0071
:1002A000ED0740085208002814D0002A12D0C40DCF
:1002B000D30D41020120C0055202490A520AE41A34
:1002C000091812187D34914201D3641C00E04900E2
:1002D000002C01DA002070BD0023914201D3891A5D
:1002E0000343400849000028F7D100290AD0914271
:1002F00002D10121C90705E0914201D2012101E0AB
:100300000121C943E005C018401900F069F970BD2A
:10031000F0B51FB488B00B9909980024484009999A
:10032000C00F490049080991C0070B990090490086
:1003300049080B9109990898A64608431CD00B99C7
:100340000A98084318D0099801244000420D48003B
:10035000410D099824050003000B204309900B98D8
:100360000003000B20430B9050181C49401800223A
:1003700001901446104605E0002001460DB0F0BD86
:10038000032801DA034600E003239C46C11A0AAEA3
:100390000AE05F0008ADED5B4F00F75B7D4300278F
:1003A000AA187C41491C5B1E6145F2DD410004AB8B
:1003B0005A522104120C0A43240C401C0828DFDB8B
:1003C000019802900099704601910090059B049A53
:1003D0000799069800F052F9D0E700000DFCFFFFE6
:1003E000F0B50C465C4085B0E40FE40703944C0084
:1003F00000266408590094464908024602962243A2
:1004000021D062460A431ED06200570D4A000E03F7
:100410002303550D012402462C492405781B1B0B90
:10042000360B401823432643614600901C46501A61
:10043000B44103D30098401C009002E09218009849
:100440005B41002803DA0020014605B0F0BD002022
:10045000012109050746864611E064461D46141B26
:10046000B54106D36546521BB341744607430C435E
:10047000A646CD0740084908284392185B41054627
:100480000D43EAD11046184313D060461946504038
:100490007140084306D06046101AB34106D20122CB
:1004A000002306E000220123DB0702E00122D24301
:1004B0005310009874460105381C6141029C039D4D
:1004C0000019694100F0CDF8BFE70000FD0300000E
:1004D000C217C10F504010B54018CA07962300211B
:1004E00000F086F810BD10B500229623114600F0EA
:1004F0007FF810BD0EB505490291002100910A4612
:100500000B46019100F0BAF803B000BD33040000BF
:10051000C20F410040020123400ADB05D207090E49
:10052000C0187F2901DA00207047962903DC962342
:10053000591AC84001E096398840002AF4D0404258
:100540007047410040020122400AD205090E80187E
:100550007F2901DA00207047962903DC9622511A80
:10056000C8407047963988407047CB0FDB07490079
:1005700010B5490802460A4307D00A0D07240903AB
:10058000E401090B121B002A01DC002010BDC90088
:10059000440F0C43C100E018D205801800F020F889
:1005A00010BD70B50446002903D00020202201238D
:1005B00010E0002801D00020C043C046C0460DE036
:1005C0002546D5408D4205D30D469540641B1D46FA
:1005D000954040191546521E002DF1DC214670BD94
:1005E000002904DA401C490001D14008400070474E
:1005F00070B40024050C05D11024000402D1002998
:1006000021D01124050E01D100020834050F01D1BB
:100610000001241D850F01D18000A41C002801DBEE
:100620004000641C002908D020252E1B0D46F540F3
:10063000A14000D001212943084301061B1B000AE9
:10064000DB1D02D5002070BC7047DB051818801830
:100650000029F8DA401C4900F5D170BC4008400080
:10066000704710B5002B08DA0024401C6141921835
:100670005B411A4301D14008400010BDF0B51FB4E2
:1006800082B005460C0003D0084602F07DFB02E074
:1006900002F07AFB2030024600902146284600F006
:1006A00033F9049B059A04460F4618431143084347
:1006B00014D0184610431BD0009840210A1A18463F
:1006C000059900F031F905460E46009A05990498FF
:1006D00000F01AF9084305D0012004E0204639460D
:1006E00007B0F0BD0020C11705430E432C4337432C
:1006F00000990E986305401A7905E40A00220C431C
:10070000FD0A0A3002D500200146E9E7010510196B
:1007100069410C9C0D9D00196941FFF7A2FFDFE7BD
:10072000F0B507460846584087B0C00F049048000F
:100730000E46590040084908BC1A884105D238467F
:1007400031461E4617460B460246580040081043E5
:100750004CD0300D039040055900400D490D0590D7
:10076000401A0290402872DA18030121000B090593
:100770000843019004980092002805D00199524244
:100780000020884100920190029840210A1A0199A4
:10079000009800F0B9F805460C466B4607CB00F010
:1007A000D4F8C0197141039A0E0D0023D717564093
:1007B0001A467A40164344D0049A002A2DD0029A51
:1007C000012A039A15DC1205C01A9141012636054B
:1007D000001C7141D20F059ED20700930192029630
:1007E0002A462346FFF74AFF07B0F0BD3846314698
:1007F000FAE71605224A0F46B218C01AB74101217E
:100800000905001C4F4100187F4111461818794115
:10081000E20F10436D19644113E0E2076D081543C0
:100820006408C2071443039A01261205C01A9141B5
:100830003605001C7141CE07400830434908C018F6
:1008400051412A462346FFF70CFFCDE7FFE7049806
:1008500001224000C117121A00238B41049831462F
:10086000C417381AA141EEE730B40124E40763400D
:1008700030BC55E730B40124E407614030BC4FE799
:100880000000E0FF70B54B005B0803430BD04B004A
:100890005C0D002633466542B341D417AD1AA3411F
:1008A00002DB0020014670BD12053018514170BDB9
:1008B0000EB5C217C10F5040CA0740180021054BA2
:1008C0000293019200910A460B46FFF7D7FE03B050
:1008D00000BD0000330400001CB509480090094821
:1008E000019005460126009C05E0E36807CC3343F0
:1008F0000C3C98471034AC42F7D3FFF7DFFB000005
:10090000B8390008D839000810B5202A04DB0146A0
:10091000203A9140002010BD914020239C1A0346AC
:10092000E3401943904010BD10B5202A04DB08466F
:10093000203AD040002110BD0B46D340D0402024A7
:10094000A21A91400843194610BD10B5202A06DBB3
:10095000CB170846203A1041C1170B4306E00B465F
:100960001341D0402024A21A91400843194610BDDB
:1009700010B5002904DB0124E40740428C412146E4
:10098000002B04DB1C460123DB075242A3418B42B0
:1009900000D1824210BD000070477047002804D08B
:1009A0000021491CCAB29042FBD8704780B5022092
:1009B00000F00CF8002804D0022000F003F801F049
:1009C000B7FA80BD044908607047C046024909680B
:1009D0000840411E884170471404014010B58279D7
:1009E0001549002A1CD002680B6893430B604B68C2
:1009F00093434B6003790B431C6814431C600268EB
:100A00008B6893438B60CB689343CB60407910280D
:100A10000DD1886810438860C8681043C86010BD55
:100A200002790A43006811688143116010BD0843D0
:100A300001681143016010BD00040140F0B581B0B0
:100A40000A68009200231C4614E003229A400668BC
:100A5000964306609D4006682E430660C568954330
:100A6000C560CA799A40C5681543C5609B1C641C63
:100A7000202B1BD00126A640009A3242F6D00D79D9
:100A80006F1E012FE1D803279F408268BA4382601E
:100A90004A799A408768174387608288B243828088
:100AA0008A79A240868816438680CEE701B0F0BDE1
:100AB00010B54B07DB0E0F249C40C9088900401875
:100AC000016AA14301629A40016A1143016210BDAB
:100AD000008A0840411E8841704701857047816146
:100AE0007047002A01D0816170470185704700007E
:100AF000F0B583B031480290012005030746019507
:100B00002F4E01AC30462146FFF798FF304629466C
:100B1000FFF7E5FF2B48029078033D4601903046F1
:100B20002146FFF78BFF0D21002730463A46FFF79D
:100B3000BFFF24480290E803009001903046214610
:100B4000FFF77CFF0F2130463A46FFF7B1FF1D4803
:100B50000290A803019030462146FFF76FFF0E2157
:100B600030463A46FFF7A4FF174802900227019744
:100B70000920C60630462146FFF760FF1348029061
:100B8000019530462146FFF759FF0C480290009D21
:100B9000019530462146FFF751FF30462946FFF7C1
:100BA0009EFFE77103200002A080042001903046E0
:100BB0002146FFF743FF03B0F0BDC046010100012D
:100BC00000040048020100010001000200010001D0
:100BD00003490A680B689B1A8342FBD37047C046DF
:100BE00084050020F0B583B00024204600F0E6FA2A
:100BF0000527F904204600F0EFFA0125284600F009
:100C0000DDFA192000F0C6FA0028FAD00226304694
:100C100000F0EEFA7D20C1001F480068FFF7C1FC1C
:100C2000411E1E48421C914234D21D4A51601D494A
:100C30000B680340032080071818086094600720A1
:100C4000106027204004294600F096F916482946EE
:100C500000F0A0F91548294600F0B8F9FFF748FF61
:100C600000F0D0FA00F0C0FC3046FFF7ABFE68465B
:100C70008571E90281800096FFF7B0FE2046294683
:100C800000F02AFB02A885704470077000F012F88B
:100C900003B0F0BDFEE7C04608000020FFFFFF00E4
:100CA00010E000E020ED00E00040001001400000F6
:100CB000FEE7704770B501788278002A15D0FC22D3
:100CC0000A400D4BD4588D07ED0EFF26AE40B443BD
:100CD00040788001C0B2A8402043D0501F20084077
:100CE000012181400548016070BD1F2001400120A5
:100CF00088400349086070BD00E400E000E100E0C6
:100D000080E100E070B518482021184A01F06CFE1F
:100D10000121CC030921CD06002804D00122284658
:100D20002146FFF7DEFE00F029FF0028FBD0002659
:100D3000304601F045FD284621463246FFF7D1FEF8
:100D400032263046FFF744FF012228462146FFF7AE
:100D5000C8FE3046FFF73CFF05A002F0F1FB7C48DF
:100D600000F0F8FD70BDC04638000020580000209B
:100D70007478206F6B0D0000F0B595B000F0BAFEEE
:100D8000022800D09CE072B60024204601F0C6FC88
:100D900029204001584D295C281842781202511828
:100DA00082781204C078000680184018FFF7B0FB64
:100DB0000390FF2002901C30295C28184078000224
:100DC0004718F8B2402800D94027380604904B480D
:100DD000285C019004D0FAB205A84749FFF7A0F9B2
:100DE00062B647480178FDB201268D421CD1002928
:100DF0001AD00096691E2E468E41002D14D0002177
:100E0000404A0AE00026AB4207D30DE0491CCBB2B2
:100E1000AB42F7D20126AB4206D2CBB2D65C05A8D4
:100E2000C05CB042F2D0009E0298C04301990918FC
:100E300035A001F099FF37A0039901F095FF38A084
:100E4000294601F091FF39A001F08EFF0498002897
:100E50000AD0E0B205A9085C002805D002F068FBC2
:100E6000641CE0B2A842F4D3002E01D134A000E00B
:100E700030A001F079FF35A002F062FB2048077036
:100E80000498002804D01F4805A92A46FFF748F90E
:100E90000920C4060125EE03002220463146FFF753
:100EA00020FE32273846FFF793FE204631462A4679
:100EB000FFF717FE3846FFF78BFE254800F04AFD86
:100EC00000F018FE042808D122A002F039FB00200F
:100ED00001F024FC224800F03DFD00F00BFE032849
:100EE00008D120A002F02CFB002001F017FC1C48C8
:100EF00000F030FD15B0F0BD600000201F050000BF
:100F0000D005002090050020527373693A202564B3
:100F100020200000536E723A20256420202000001B
:100F20004C656E3A20256420200000005374723A0C
:100F30002000000020205B444946465D0000000080
:100F400020205B53414D455D000000000D00000076
:100F5000983A0000637263206572726F720D000030
:100F60008813000072782074696D65206F75740DA8
:100F70000000000070470000054A002903D01168F6
:100F80000143116070471168814311607047C0468A
:100F900014100240054A002903D011680143116072
:100FA00070471168814311607047C0461C100240B1
:100FB000054A002903D01168014311607047116888
:100FC000814311607047C04610100240054A002955
:100FD00003D01168014311607047116881431160AB
:100FE0007047C04618100240054A002903D0116816
:100FF0000143116070471168814311607047C0461A
:101000000C100240F0B583B05B4C27462C3F39688A
:1010100009078D0F594E5A4BA90002A2525831466A
:101020009746C0467B100008351000083B100008AA
:101030006F100008002553491FE039688902090F25
:101040008B1C3968C903890F14D0211F09680F222E
:101050000A40511C4B4A1E4605461046FFF7A1FAAE
:10106000014628463546454E4D43294605E00025B4
:10107000194602E0444959430D460195016039681B
:101080000906090F414D695C03681A46CA4042606F
:1010900039684905490F695CCA4082602168C90501
:1010A00001D43B4905E03968490401D4510800E006
:1010B0009108C160216849060127FD03002901D577
:1010C000294601E029461231029501612168C906CD
:1010D000314600D5194641612168890716460FD06F
:1010E00021680325294001291E4609D0216829408D
:1010F0000229029E04D02168294003291F4E00D1F5
:101100008661032521688903890F114613D02E04B7
:10111000216831403C04A142174C19460BD021688C
:1011200031407C04A142144C029904D02168314022
:10113000B142124900D1C16121680903890F11D060
:10114000AD0421682940BA0491421A460AD02168A8
:101150002940FA049142029A04D021682940A94208
:10116000064A00D1026221680906054900D50199A5
:10117000416203B0F0BDC0463010024000127A0058
:10118000006CDC02001BB70000093D00A035000820
:10119000809FD5000F49202809D34209012A03D096
:1011A000022A03D1243102E0203100E034311F2231
:1011B00010400968C140012008407047411E884125
:1011C000000601210906034A13688B4318181060B2
:1011D0007047C0460010024010B57B22D203834BFB
:1011E0001C6894431C60084319680143196010BDD2
:1011F0007E490A6803239A4302430A607047C04647
:1012000070470000B0B586B001A9002008810880B1
:1012100007220A82C88110238B81C880100288802F
:10122000412080004880FC304881074C204600F077
:101230001BF801252903204600F040F820462946E6
:1012400000F004F806B0B0BD003800404A1E9141DD
:101250008901028840239A43511801807047008910
:101260000840411E88417047C12292010388134003
:101270000A881A43CB891343CA881A430B8913433C
:101280004A891A438B89134303808288084B134091
:101290008A881A4382800A8A0282028804239A4337
:1012A000498811430180818B024A0A40828370473A
:1012B000FFF00000FFF70000007B70478288034BBF
:1012C0001340838082880A4382807047FFEF0000CA
:1012D0000173704770470000B0B5FC220A40064B0E
:1012E000D4588907090F0F258D40AC43D45088404E
:1012F000D1580143D150B0BD0800014004480168F5
:10130000491C016003480168491C01607047C046E0
:1013100084050020D4050020B0B582B03348011FF9
:101320000B68012213430B600368314C1C400460BE
:101330000B68304C1C400C6093040C689C430C60A0
:101340003F231B0404689C430460836A0F24A34367
:101350008362FF235433C46A9C43C462036B934388
:101360000363002343600193009313040C681C4340
:101370000C6053040C681C400094019B5B1C01939F
:10138000009B002B04D105231B03019C9C42F0D140
:101390000B689B03DB0F0093009B012B23D1164BA3
:1013A00011241C6003680360036803607F23DB0370
:1013B00005689D430560230404681C43046012060D
:1013C0000B6813430B600A689201FCD50168032285
:1013D00091430160016802220A43026001680C2205
:1013E0000A40082AFAD102B0B0BDC046041002403B
:1013F0000CB8FF08FFFFF6FE0020024010B5064CB7
:101400000121204600F00DF8002803D001212046DC
:1014100000F004F810BDC04600200040C94301821E
:101420007047028A0A40531E9A4180890840411E33
:1014300088411040704770474A1E9141026801235D
:101440009A4351180160704710B5224988420BDC5D
:101450002549884213DC5F49884222D05C49884292
:1014600037D101218C0423E01B49884210DC1C4940
:10147000884219D01B4988422BD1402421E01B49C6
:10148000884213D01A49884223D101210C050FE06C
:101490001249884214D07D4988421AD101218C0317
:1014A00010E001214C0403E020240AE00121CC04D7
:1014B0002046FFF77DFD00212046FFF779FD10BD96
:1014C000802401212046FFF78FFD00212046FFF7F1
:1014D0008BFD10BDFF130140FF1B0140001C0140AC
:1014E0000014014000180140FF4B0040004C004038
:1014F00000500040C0690840411E8841704710B547
:10150000CCB20123090AC9B2032903D0022902D1AE
:10151000001D00E00830A340002A03D001681943F1
:10152000016010BD01689943016010BD70B58AB0BB
:101530000D46044600680121884320600320010312
:1015400062688A43A9681143616021681F4A0A40A2
:1015500069681143EA680A4329691143216000025E
:10156000A168814368690843A0606E463046FFF772
:1015700049FD464884420BD01548844205D01548A1
:101580006E46844206D11C3605E06E46203602E0E7
:10159000183600E00836366820680004C00F864020
:1015A0002D6830462946FEF7FCFF69084543721B4B
:1015B0008A4200D3401C2168090404D50649014031
:1015C0000007400F4018A0810AB070BDF3E9FFFF8B
:1015D0000048004000440040F0FF0000014A0A407B
:1015E00002857047FF010000F0B589B081204000FE
:1015F00002900124600201900927FD0601AE2846F1
:101600003146FFF71BFA284639462246FFF750FAC3
:1016100014480290A002019028463146FFF70EFAC6
:101620000A2128462246FFF743FA184D2846FFF7BD
:101630000BFF002606960596E120400203900896CF
:101640000C200790049603A92846FFF76FFF064970
:1016500028463246FFF753FF28462146FFF7ECFEA7
:1016600009B0F0BD0201000105010500B0B5044656
:10167000C1B2064D2846FFF7B1FF80212846FFF78B
:1016800039FF0028F9D02046B0BDC04600380140DF
:10169000FFF7A8FA0120FFF780F9224801F064FB68
:1016A000214C204601F04CFF204D2149284601F0F5
:1016B0005BFB2048204901F057FB2049284601F0F8
:1016C00053FB1F4801F03CFF204601F039FF00F0BA
:1016D000F9FA002803D01BA001F032FFFEE71DA09D
:1016E00001F02EFF00F0B6FE0920C40604212046BA
:1016F000FFF7EEF9012803D11FA001F021FF08E058
:1017000017A001F01DFF1B4800F024F901E0FFF7CE
:10171000F9FA04212046FFF7DBF90028F7D1FFF79B
:101720002BFBF6E70A3900080D390008C23800081B
:1017300099390008EB380008943900088939000805
:101740004C390008524620696E6974206661696CE4
:101750000D000000524620696E6974206F6B0D0009
:1017600052462072782074657374207374617274A9
:101770002E0D0000881300005246207478207465F6
:1017800073742073746172742E0D000010B5002400
:101790002046214600F086FF0A20214600F082FF05
:1017A00010BDB0B50A24204600F05CFF0025284695
:1017B00000F058FF2046294600F074FF28462946CD
:1017C00000F070FFB0BD80B50020014600F06AFF58
:1017D0000A20012100F066FF80BD10B50A20002418
:1017E000214600F05FFF0121204600F05BFF10BDA5
:1017F00080B5FFF7D2F880BD80B5FFF7CFF880BD88
:10180000B0B502243E252046294600F0DFFC082220
:1018100002432046294601F095F9B0BDB0B5022437
:101820003E252046294600F0D1FCF7220240204602
:10183000294601F087F9B0BDF0B583B0054602A88E
:10184000417052008270090A01706D4F386A8047FA
:10185000B969002420468847B9692046884706466A
:10186000F8698047386A8047B96901208847FC20B9
:1018700001900640B01CB9698847F8698047386A0A
:101880008047B96920468847B96920468847F86982
:101890008047386A8047B96920468847B969204639
:1018A0008847F8698047386A8047B9696E00701CBC
:1018B000C0B2884702A8005DB9698847641C032C40
:1018C000F8D1F8698047642400206C2100F07EFC88
:1018D00040B2002803D4601E21040446F4D1386AC3
:1018E0008047B969002420468847B969204688475F
:1018F0000546F8698047386A8047B96901208847FA
:1019000001980540A81CB9698847F8698047386A7A
:101910008047B96920468847B96920468847F869F1
:101920008047386A8047B96920468847B9692046A8
:101930008847F8698047386A8047B969F0B28847B4
:10194000B969204688470446F8698047204603B0B5
:10195000F0BDC046F0B583B00746294C206A8047E9
:10196000A16905208847A169042528468847E069C0
:101970008047206A8047A16928468847A1690020DE
:1019800088470646E06980470125042E35D1019736
:10199000E0688047032606273046394600F016FCEB
:1019A000FC2101404A1C3046394601F0CBF80028A2
:1019B00023D102AA01981070000A50700320072159
:1019C000022301F035F9002817D1206A8047A16968
:1019D00005208847A16906208847E0698047206A7A
:1019E0008047A16904208847A169002088470546EF
:1019F000E0698047AD1F681E8541284603B0F0BDF1
:101A00000C00002070B58AB068462621FEF7A1FBC5
:101A100002243E252046294600F0D8FBF72202404A
:101A20002046294601F08EF81E25314CEAB23B20B3
:101A30002146FFF701FF694648556D1C212DF5D160
:101A40003B201C222146FFF7F7FE5A2840D10220F6
:101A50003D21FD2201F076F8202069460A5C002A2B
:101A600003D00020452101F06DF83B200D222146D6
:101A7000FFF7E2FE012815D16846807F1F26064049
:101A800003241C252046294600F0A0FBE02101404C
:101A900072182046294601F055F8002812D001207E
:101AA0000AB070BD3B200D222146FFF7C5FE02287B
:101AB00008D16846807F1F220240C03203201C21CB
:101AC00001F040F86846C27F03201D2101F03AF87A
:101AD00002243E252046294600F078FB08220243D6
:101AE0002046294601F02EF800200AB070BDC046FD
:101AF000A55A0000014800687047C04688050020CC
:101B0000F0B583B00220712102AD03262A46334688
:101B100000F0A4FB2878019068780090AF78012449
:101B2000742120462A46334600F098FBA87800042A
:101B3000697809020818297845187C21204600F0A8
:101B400045FB0009401CC5403804009909020818EB
:101B500001994118012900D821462846FEF721FDA8
:101B6000FEF7C8FC01F06EFC0022034BFEF7D0FB31
:101B7000FEF7FBFC03B0F0BD000024400148006804
:101B80007047C0468C050020F0B587B0059003244F
:101B90000E21204600F01AFB05460D262046314650
:101BA00000F014FB03902046314600F00FFB064680
:101BB0001221204600F00AFB0490132106AF0223F5
:101BC00020463A4600F04AFB360930460A38E143DF
:101BD000884202D2002007B0F0BD0398040778784D
:101BE00001903F7802952D090120A840FEF77BFC6B
:101BF000B1002DA2891818390968FEF74BFB039034
:101C000004980007284600D5A81E610F049184009F
:101C100001980002C019FEF766FC0599CE00AF00DE
:101C200002996F290CD82549FEF79EFA0546F01B4C
:101C30002430FEF758FC06462046FEF749FC0BE030
:101C40001D49FEF791FA0546F01B2C30FEF740FCCB
:101C500006462046FEF747FC01463046FEF71AFBD3
:101C600001F012FA0646039C20462946FEF7D5FAF3
:101C700005460498001DFEF736FC01463046FEF787
:101C8000CCFA41210906FEF76FFA01462046FEF71D
:101C9000C4FA01462846FEF767FA0949FEF7BDFA7D
:101CA000FEF74FFC07B0F0BD00007A420000FA4298
:101CB00000007A430000FA43000088400000C8405A
:101CC00000007A44F0B583B0984E306A8047B1691D
:101CD000082738468847B1690025284688470446C2
:101CE000F0698047306A8047B169092001908847D0
:101CF00010202043B1698847F0698047306A8047E7
:101D0000B16938468847B16928468847F0698047F5
:101D1000B16A0A2002908847306A8047B169019809
:101D20008847EF202040B1698847F0698047306AD2
:101D30008047B16938468847B16928468847F069C5
:101D40008047306A8047B16928468847B16928468C
:101D5000884704460090F0698047306A8047B1693F
:101D60000127384688477F2020400190B169884785
:101D7000F0698047306A8047B16928468847B16971
:101D800028468847F0698047B16A029C2046884708
:101D9000306A8047B16938468847802000990843F7
:101DA000B1698847F0698047306A8047B169284641
:101DB0008847B16928468847F0698047B16A20465C
:101DC0008847306A8047B16938468847B1690198C9
:101DD0008847F0698047306A8047B169284688475C
:101DE000B16928468847F0698047B16A204688472C
:101DF000306A8047B16905208847B169284688471D
:101E0000F0698047306A8047B16904208847B1692A
:101E1000284688470446F0698047002C00D081E0BE
:101E2000B16A0A208847306A8047B169052088472F
:101E3000B169012738468847F0698047306A804792
:101E4000B16904208847B169002088470446F069D9
:101E50008047012C66D1B16A0A20884703240625F1
:101E60002046294600F0B2F92022024320462946A6
:101E700000F068FE002855D1B16A0A208847306A10
:101E80008047B16905208847B16902208847F06919
:101E90008047306A8047B16904208847B1690025CE
:101EA000284688470446F0698047022C3AD1B16A37
:101EB0000A208847032026212F2200F043FE002815
:101EC00030D1B16A0A2088470420362100F01AFE7A
:101ED000002827D1B16A0A2088477068804702200D
:101EE000032100F00FFE00281CD1B16A962088471C
:101EF0000220042100F006FE002813D1B16A0A2056
:101F00008847FFF77FFD00280CD100F0FDF900287D
:101F100008D10127384600F026FA002802D130689F
:101F200080472F46384603B0F0BDC0460C00002065
:101F3000F0B585B00924E0060221FEF7C9FD0028AE
:101F400062D0019400266C21304600F03FF904462F
:101F50007F27C0060297039601D43C4034E00494E6
:101F600001202E2100F032F9C109FF2425461A353F
:101F7000924A515557197E7040B2FF32002806D45C
:101F8000022076210826334600F068F90EE0022090
:101F900076260A23314600F061F90A34874802198F
:101FA00000200623314600F059F910268348465593
:101FB000039878706C21102200F0C4FD8048052140
:101FC00001606F20049C0440402C04941ED2200722
:101FD0003CD4600777D4A00700D594E0E00713D085
:101FE00000244F252046294600F0F0F8F722024051
:101FF0002046294600F0A6FD6C21012520462A46F0
:1020000000F0A0FD7048056005B0F0BD00266E210F
:10201000304600F0DBF8FF210A461E32674B9C5C1D
:102020009D186F783F023C19671C9F541A19049C35
:1020300020315054380A68706C214022304600F03C
:1020400081FD5F48062101602007C2D52920440197
:10205000FFF756FD594D28552919020ECA70020C7A
:102060008A70000A487001267F21304600F0AEF8E1
:10207000544968547D21304600F0A8F80646A14C2A
:10208000206A8047A169022000908847002E07D06F
:102090003746A1690020884728706D1C7F1EF8D143
:1020A000E0698047FF201C3044490E54091803980A
:1020B00048706C21082200F045FD414800990160FC
:1020C000049C600787D58F4C206A8047A169022055
:1020D00088470198C543394EA16900208847711986
:1020E000FF221A3288546D1CF6D3E0698047002025
:1020F0006C2104252A4600F025FD31480560049C2A
:10210000A00700D46AE77F4E306A8047B169002596
:1021100028468847B169284688470746F0698047BE
:10212000306A8047B1690120049088478020384395
:10213000B1698847F0698047306A8047B1692846AD
:102140008847B16928468847F0698047306A8047E8
:10215000B16928468847B169284688470746F0692B
:102160008047306A8047B1690498884702980740E1
:10217000B16938468847F0698047306A8047B1695D
:1021800028468847B16928468847F0698047306A01
:102190008047B16928468847B16928468847F06971
:1021A00080476C210222284600F0CCFC0448032121
:1021B0000160E00700D013E726E7C046600000207A
:1021C000880500201F0500008C050020F0B583B0B5
:1021D000019106464B4D286A8047A9690027384679
:1021E0008847A969384688470446E8698047286ACD
:1021F0008047A969012002908847FC202040304395
:10220000A9698847E8698047286A8047A9693846EC
:102210008847A96938468847E8698047286A80471F
:10222000A96938468847A969384688470446E86955
:10223000804703202040029CB0420CD1286A80478E
:10224000A96901984006000E8847A96900208847BF
:102250000446E8698047204603B0F0BDF0B585B07C
:102260001C46154601910490264E306A8047B1699C
:10227000002738468847B169384688470290F06998
:102280008047306A8047B169012003908847FC206D
:102290000299084004990843B1698847F06980476A
:1022A000306A8047B16938468847B16938468847FF
:1022B000F0698047306A8047B16938468847B1691C
:1022C0000297384688470746F06980470320384020
:1022D00004998842039813D1306A8047B169019804
:1022E0004006000E8847002C07D0B16900208847BF
:1022F0002870641E6D1C002CF7D1F069804702988D
:1023000005B0F0BD0C00002070B5002403211B2295
:10231000204600F017FC002813D10B48451D264627
:102320002E2C0AD02A78A81E0078691E097800F0A1
:1023300009FC741CED1C0028F1D02E2E01D30020C6
:1023400070BD012070BDC0464036000870B514460F
:102350000D460646FFF73AFF0246A243304629469D
:1023600000F0F0FB70BD10B5044602200621FFF717
:102370002DFF0246002C09D0FE200240022006213B
:1023800000F0E0FB00280CD0012010BD0124224306
:102390000220062100F0D6FB01462046002900D08D
:1023A00010BD02203421EF2200F0CCFB10BDF0B5AF
:1023B00081B0054603240D2620463146FFF706FF6F
:1023C0000F21014028014018C2B22046314600F0DA
:1023D000B9FB0121002839D1009103200E21FFF71C
:1023E000F5FE00090C2807D00B2809D1FE20284053
:1023F000062805D1082404E0A81FC0B20328F9D399
:1024000000240326122730463946FFF7DFFEF72265
:10241000024022433046394600F094FB02263F2119
:102420003046FFF7D3FE0246A81FC0B2022803D8E9
:1024300032433F21304603E0FD20024002203F218D
:1024400000F080FB0028009900D10021084601B06F
:10245000F0BD0000F0B581B00325122628463146B4
:10246000FFF7B4FE0746012425214822204600F04C
:1024700069FB08203840821C2846314600F062FB88
:102480000E2628463146FFF7A1FEF72202402846D5
:10249000314600F057FB00282CD1184D284600F09B
:1024A00041F8002826D103260D2730463946FFF78C
:1024B0008DFEF12101408A1C3046394600F042FB76
:1024C000002817D10720FFF772FF002812D109203A
:1024D00000F02AF900280DD1162000F077F9002825
:1024E00008D10120009006A009220723294600F008
:1024F0003BFC0024204601B0F0BDC04600A1BC3327
:10250000465245513D202564202053463D256420F8
:10251000202042573D2564202043523D2564200D54
:102520000A000000F0B583B0044642482018012597
:10253000414988427AD34148844203D802200A2183
:10254000404A02E002200A213D4A282300F070FBA5
:1025500000286BD11A223C48844211D03B48844267
:102560000ED000203A4903E00831401C10280DD05D
:102570000A689442F8D94A689442F5D835490A5C09
:102580000020402100F0DEFA00284FD100263D2532
:1025900030462946FFF71AFE8F2202402E4FBC42DA
:1025A00000D210323046294600F0CCFA0125BC4258
:1025B00001D3294600E0022120468840FDF79AFF1A
:1025C000264B3246FDF70CFFFDF7CFFF0746FDF720
:1025D0009FFF0146143902AE3170FDF779FF0146C5
:1025E0003846FDF712FE1E49FDF717FE3F2109068A
:1025F000FDF713FEFDF78CFF70700005000FB07043
:10260000152103203246034600F012FB00280DD1AD
:1026100001AA1470200ED070200C9070200A507007
:1026200003200921042300F003FB0546284603B0DC
:10263000F0BDC046FF81A0BF3F51C4D7FF07AF2FF9
:102640009A3800087238000840CF2318809E47301F
:10265000C0350008B03500080008AF2F80847E41E7
:102660000000C844F0B581B0072805D801242746EA
:1026700087400025652605E0083801242746874065
:102680000025662628463146FFF7A0FD3843C2B232
:102690002846314600F056FA002800D10024204692
:1026A00001B0F0BDF0B581B00D46072810D8012467
:1026B0000094844000202146C140C90703D1401C3A
:1026C0000828F8D10020854025400026672711E022
:1026D0000838012400948440E1B200200A46C24038
:1026E000D20703D1401C0828F8D10020854025409E
:1026F0000026682730463946FFF768FDA043401999
:10270000C2B23046394600F01DFA0028009801D0C8
:1027100001B0F0BD002001B0F0BD0000014908602B
:102720007047C04688050020F0B581B004460720F8
:10273000C04321460D390125814231D303260E279E
:1027400030463946FFF742FD0F2101402001401875
:10275000C2B23046394600F0F5F9002820D10320F6
:102760000D21FFF733FD0C2C07D00B2C09D1E021F4
:102770000840602805D1082604E00009801F0328CE
:10278000F9D300260324122520462946FFF71EFD13
:10279000F722024032432046294600F0D3F90025B3
:1027A000284601B0F0BD70B514460D460646FFF749
:1027B0000DFD044330462946224600F0C3F970BDA2
:1027C000014908607047C0468C050020F0B583B011
:1027D00005460324092102AE042320463246FFF7B2
:1027E0003DFD012D2F4600D80127F0780006B17875
:1027F00009040818717809024018317840187149A5
:102800004118714A91424AD8172D00D91627032042
:10281000784373494018C71E38783F260640002485
:102820001E2520462946FFF7D1FCC0210140721821
:102830002046294600F086F90121002800D081E0D9
:1028400000254B26284601913146FFF7BFFCF021B9
:10285000009108407C7821090A182846314600F08A
:1028600071F9019900286DD10120019004400325E0
:10287000222628463146FFF7A9FCFE2101400A190D
:102880002846314600F05EF9002858D1BD78002076
:1028900046210422702D65D1FFF758FD64E04B49B5
:1028A00041184B4A914201D2022404E049494018A0
:1028B0004949884245D800251E2628463146FFF75B
:1028C00085FCC0210140162F00D316273801434A4A
:1028D0008018A2008718103F38783F220240521813
:1028E0002846314600F02EF9012100282AD1002582
:1028F0004B2628460C463146FFF768FCF021014084
:1029000078780F22024052182846314600F01AF912
:102910002146002816D10095BC7801200190044082
:102920000326222530462946FFF750FCFE210140B0
:102930000A193046294600F005F9002805D001990A
:1029400000E00121084603B0F0BDFE7800204621DA
:102950000422FF2E25D1FFF7F9FC00280199009CE5
:10296000F0D12CE0FFF71FFF00280199EAD1FEF714
:1029700055FF3B201B492022FEF75EFF002800D1B7
:1029800008200F212940401A009929400143CCB268
:10299000FEF736FF00204521224600F0D3F801461D
:1029A000D0E7FFF700FF0028009CC8D10020452198
:1029B0007023324600F020F900280199C2D1214647
:1029C000C0E7C046C030DCE7006889098061B8CF45
:1029D00001B4C40480ADF3CA802B530BCD3600087C
:1029E0002D380008A55A0000F0B583B002920C46BD
:1029F0000190C64D286A8047A96905208847A969C2
:102A0000042630468847E8698047286A8047A969D4
:102A100030468847A969002088470746E86980470B
:102A20000126042F57D1009400274F243846214611
:102A3000FFF7CCFB082202433846214600F082F81B
:102A4000002848D1A8688047032406272046394635
:102A5000FFF7BCFBFB2202402046394600F072F82B
:102A6000002838D1009C2046FFF78EF802990860B4
:102A700001260C213046224600F064F800282AD1B5
:102A8000286A8047A969052420468847A969204605
:102A90008847E8698047286A8047A96904208847F1
:102AA000A9690027384688470446E8698047052C0D
:102AB00011D1286A8047A96903208847009C002C0F
:102AC000019E05D03078A9698847761C641EF9D12B
:102AD000E86980473E46304603B0F0BD10B5032498
:102AE0002046FFF7BFFD00212046FFF7DBFD10BDAC
:102AF00010B503242046FFF7B5FD01212046FFF75E
:102B0000D1FD10BD70B50C460546804E306A804739
:102B1000B1696D00681CC0B28847B169204688471A
:102B2000F0698047306A8047B169E8B28847B16987
:102B3000002088470546F0698047281B411E8841D0
:102B400070BDC046F0B583B00192009102906F4E07
:102B5000306A8047B169002528468847B169284610
:102B600088470446F0698047306A8047B169012789
:102B700038468847FC20204002990843B1698847BD
:102B8000F0698047306A8047B16928468847B16953
:102B900028468847F0698047306A8047B1692846EF
:102BA0008847B169284688470446F0698047032072
:102BB0002040029988421BD1306A8047B169009851
:102BC0004400601CC0B28847B169019D284688470F
:102BD000F0698047306A8047B169E0B28847B169DF
:102BE000002088470446F0698047671B781E8741AC
:102BF000384603B0F0BDC046F0B581B01C4615465E
:102C00000F4600262246F240D20703D1761C082E3A
:102C1000F8D1002600903946FFF7D8FAA043B54016
:102C200025402A1800983946FFF78CFF01B0F0BD07
:102C3000F0B585B00493039201910746334C206AA6
:102C40008047A169002630468847A16930468847F9
:102C50000546E0698047206A8047A169012002900B
:102C60008847FC2028403843A1698847E0698047AD
:102C7000206A8047A16930468847A1693046884765
:102C8000E0698047206A8047A16930468847A1698A
:102C9000304688470546E069804703202840B8420F
:102CA000029831D1206A8047A169019840000290C2
:102CB000401CC0B288470498002808D0049F039D98
:102CC0002878A16988477F1E6D1C002FF8D1E06924
:102CD0008047206A8047A1690298C0B2884704985B
:102CE00000280ED000250398475DA16900263046D4
:102CF0008847874204D16D1C04988542F3D300E0D5
:102D00000126E0698047304605B0F0BD0C00002088
:102D100080B5012001030648FDF7E1FE80BDC046F5
:102D200080B5012001030248FDF7D7FE80BDC046F3
:102D300000040048B0B505460A4C02212046FEF7C3
:102D40008EFA0028F9D020462946FEF7C1FA012163
:102D50002046FEF784FA0028F9D02046FEF7ACFAA8
:102D6000B0BDC046003800400FB410B503A9044BF5
:102D7000044A029800F0A2F810BC08BC04B018473E
:102D80006D160008000000202021020C01D0102147
:102D90001046020A01D010460839020901D0104637
:102DA000091F820801D01046891E420801D0881EE2
:102DB0007047081A7047F8B504464F1EC800083817
:102DC000211815461E46086849683A4606239A4364
:102DD00010D02A463346FDF79BFA3A46D200083A0D
:102DE000A3181A687F1E5B68FDF79AFC06223B4613
:102DF0009343EED1022F23D0042F11D0062F2FD1D1
:102E00002A463346FDF784FAE36AA26AFDF788FC96
:102E10002A463346FDF77CFA636A226AFDF780FC96
:102E20002A463346FDF774FAE369A269FDF778FC98
:102E30002A463346FDF76CFA63692269FDF770FC98
:102E40002A463346FDF764FAE368A268FDF768FC9A
:102E50002A463346FDF75CFA63682268FDF760FC9A
:102E6000F8BD0000002210B5134610460149FDF7D9
:102E7000B7FA10BD0000F03F10B50122FDF702FDCA
:102E800010BD002210B5134610461146FDF7A8FAF2
:102E900010BD02E008C8121F08C1002AFAD170470D
:102EA0007047002001E001C1121F002AFBD17047CA
:102EB000014908607047000004000020FFB58DB094
:102EC0000F460546002606E025280AD0109A0F99DD
:102ED00090476D1C761C28780028F5D1304611B03B
:102EE000F0BD00240121674A009400E004436D1CFA
:102EF0002B780846203B98401042F7D128782E289E
:102F000015D10420044368786D1C2A280AD101CF0A
:102F10006D1C00900BE000990A2251433039401893
:102F20006D1C00902878014630390929F3D928789A
:102F3000692843D006DC0028D0D063280BD0642851
:102F400004D13BE073280FD075284CD0109A0F990C
:102F50009047761C94E038786946087200204872E1
:102F600002A80190012003E0386801900020C043CE
:102F70003F1D61070CD5002400E0641C00998C42C1
:102F80000FDA8442F9DB0199095D0029F5D108E0E7
:102F9000002400E0641C8442FCDB0199095D0029E7
:102FA000F8D1361907E0019801990078491C019180
:102FB000109A0F999047641EF5D261E00A200190A3
:102FC00001CF002802DA40422D2102E0210504D57C
:102FD0002B216A461172012103E0E10701D0202173
:102FE000F7E70C9104E00A20019001CF00210C9139
:102FF0000BA90B9108E00199FDF7D3FA0A460B994A
:103000003032491E0B910A700028F4D10B9803A9A5
:10301000081A20300190600701D5009801E00120D6
:1030200000900199884203DD01460198081A00E0EA
:1030300000200024009006E002A8109A005D0F997D
:103040009047641C761C0C988442F5DB04E0109ACF
:1030500030200F999047761C0099481E0090002957
:10306000F5DC08E00B980B990078491C0B91109A3D
:103070000F999047761C0199481E01900029F1DCB8
:103080006D1C28E709280100F8B541000D0E7F3DB1
:103090000446172D27DAFF273F061349002D0FDAC4
:1030A000FDF762F84100B9421CD800281ADD002C57
:1030B00001DAFC0116E0002C14D07F24E40511E0B5
:1030C0000A4EEE4030420ED0FDF74EF84100B942B4
:1030D00008D8002806DD002C03DD0120C005E840EB
:1030E0000419B4432046F8BDCAF24971FFFF7F00BE
:1030F000F0B5C54A00248FB091420ADA4B005B0854
:10310000934206D801254A006D05EA4205D1002800
:1031100003D0FFF7B1FE0FB0F0BD01252D05A94288
:1031200019DA034308D0002910DA0120FFF7C0FEA6
:10313000FFF7A7FE0FB0F0BD0220FFF7B9FEFFF7C3
:1031400091FE0122D20751400FB0F0BD3524E44377
:103150003622FDF797FB0A15AC4B1219D4180A0357
:10316000120BAB49AB4B56182E4031465940114318
:103170000192321512190B920022FDF775FB019A8C
:103180000446921C1003A44E000B0D467E440328F7
:1031900060D2204673683268FDF7EAFB1CD10B98B9
:1031A000002815D0FDF784FB04460E469B4A9C4B35
:1031B000FDF7AEF80D4607469A4A9B4B204631462E
:1031C000FDF7A6F83A462B46FDF7AAFA0FB0F0BD78
:1031D000716830680FB0F0BD944A954B204629467F
:1031E000FDF796F80022934BFDF744FB06460F4689
:1031F00022462B4610461946FDF78AF832463B46D2
:10320000FDF786F806460B980F4600281DD0FDF7FF
:103210004FFB824A824B05910490FDF779F83246C4
:103220003B46FDF727FB22462B46FDF71DFB0446D8
:103230000D467C4A7C4B05990498FDF769F82246B7
:103240002B46FDF711FB0FB0F0BD0B463246204672
:103250002946C4E0012300229B072046FDF760FABF
:1032600002460B4620462946FDF7BAF806460F46A9
:103270000B98FDF71DFB32463B4605910490104626
:103280001946FDF745F809910C906B490198099B87
:10329000421800920C9A19461046FDF739F802467A
:1032A00007910A90654901980B1A6548019303211B
:1032B0007844079BFFF77FFD079B0A9AFDF728F8E4
:1032C0000E905F480D9104217844079B0A9AFFF7FE
:1032D00072FD099B0C9AFDF71BF8019B009A1A439B
:1032E00000920D9B0E9AFDF71BFA009A01910C902B
:1032F000002A4DDD0022D24320462946FDF7C2FABE
:1033000022462B46FDF704F800910A900B980028FE
:103310002BD0424A424B05990498FCF7F9FF0791DC
:103320000E90019B0C9A00990A98FDF7F9F9324624
:103330003B46FCF7EDFF079B0E9AFDF7F1F9009B6A
:103340000A9AFDF797FA22462B46FDF78DFA0446B6
:103350000D46344A344B05990498FCF7D9FF2246B0
:103360002B46FDF781FA0FB0F0BD019B0C9A0A982D
:10337000FDF7D6F932463B46FCF7CAFF009B0A9A96
:10338000FDF778FA22462B46FDF774FA0FB0F0BD30
:103390000B98002827D0214A214B05990498FCF767
:1033A000B7FF0791009020462946019B0C9AFDF734
:1033B0005BFA32463B46FCF7ABFF079B009AFDF7F2
:1033C00053FA22462B46FDF74FFA04460D46154A9E
:1033D000154B05990498FCF79BFF22462B46FDF7F9
:1033E00043FA0FB0F0BD0B46204629460C9AFDF774
:1033F0003BFA32463B46FCF78BFF22462B46FDF755
:1034000039FA0FB0F0BD00000000F07F01FCFFFFB3
:10341000645F09000000F03F08040000763C793545
:10342000EF39EA3D0000E0FE422EE63F5555555586
:103430005555D53F0000E03F86EBF9FF51B8060037
:10344000AC020000F8B504463048002581420ADA93
:103450004A005208824206D8012348005B05D84240
:1034600005D1002C03D02046FFF706FDF8BD01234F
:103470001B05994219DA224307D000290EDA0120F0
:10348000FFF716FDFFF7FDFCF8BD0220FFF710FD6A
:10349000FFF7E8FC0122D2075140F8BD3525ED4386
:1034A00036222046FDF7EEF9044608154019184A61
:1034B0000D038018C20F17492D0B891A09050D43FA
:1034C0008018FDF7F5F906460F4620462946FFF716
:1034D0000FFE114A114BFCF71BFF04460D46104A24
:1034E000104B30463946FCF713FF22462B46FDF7BA
:1034F00017F90D4604460C4A0C4B30463946FCF78A
:1035000007FF22462B46FDF70BF9F8BD0000F07FC0
:1035100001FCFFFFFF0300000EE526157BCBDB3F20
:10352000362BF111F3FE593D00609F501344D33FF9
:1035300010B50249FEF79AF810BD00000000002007
:1035400010B5044601E0FEF791F82078641C0349A9
:103550000028F8D10A20FEF789F810BD00000020ED
:1035600004FA97999999D93FAF788E1DC571CC3FD0
:103570009FC678D0099AC33F935555555555E53F99
:10358000599322942449D23FDE03CB966446C73F29
:1035900044523EDF12F1C23F000000000000000074
:1035A00000000000010203040102030406070809E9
:1035B0001A2A3A4A5A6A7A7A1A2A3A4A5A6A7A7A0B
:1035C00040CF2318C065BC18C065BC188047A1193E
:1035D0008047A1194029861A4029861A4056B71BF0
:1035E0004056B71B4083E81C4083E81C40B0191EBE
:1035F00040B0191E8028971F8028971F4037AD21A3
:10360000809E473080CB783180CB7831008F423339
:10361000008F423380520C3580520C3580AC6E37AF
:1036200080AC6E378006D1398006D1398060333C5A
:103630008060333C00512E3F00512E3F007E5F40A2
:1036400000031B0004760006010015210031D000A4
:10365000366600376B0038CC003909003CB4003EB8
:103660004200406A0041060042AA004877004977BC
:10367000004A77004B05004F040050D2005E8001E5
:10368000031B010476010B08010F0A011900012F29
:10369000D00143DA02031B020476022CC0022D275C
:1036A000022E09022F0002301003031B03047603CD
:1036B0000A0E030BCF030C19030D98031216031304
:1036C000140316F4031701031FD9032620010B016D
:1036D000FF010600FF010701FF010601FF010B00CA
:1036E000FF01060000010B00FF010B01FF030201B7
:1036F000FF03040100030001FF010B00FF030801A9
:10370000FF03000101030601FF030101FF030B009A
:10371000FF030001FF030B00FF030701FF0500018A
:10372000FF030B01FF050001FF030B00FF05030171
:10373000FF05010100050301FF050001FF05080168
:10374000FF07000100050B01FF050501FF0509004A
:10375000FF07020100070001FF070001FF07020148
:10376000FF0D010100070201FF070401FF0705012A
:10377000FF0D020100090001FF070B01FF070B010C
:10378000FF0D040100090201FF090301FF070B00FF
:10379000FF0D060100090501FF0B0201FF0B0301EC
:1037A000FF0D0901000B0301FF0B0401FF0B0501D5
:1037B000FF150401010B0601FF0D0401FF150401B3
:1037C000FF150501010B0B01FF0D0701FF15050199
:1037D000FF150701010D0801FF150501FF15070180
:1037E000FF15080101150601FF150701FF1501006E
:1037F000FF15010002150801FF150901FF1503005F
:10380000FF15030002150200FF150300FF15050058
:10381000FF150500FF150500FF150500FF15060043
:10382000FF150600FF150600FF150600FF01010049
:1038300003010103F03005018105A18105F0810735
:1038400001810501800531800701800721800B116E
:10385000800B21800B41800B61800B91800BB1802C
:103860000DB1800FB18011508015302015507015AA
:1038700060700600F8060600F8060600F806060066
:10388000F80614C0F91422D4F92230D8F9303EDEFB
:10389000F93E0EFF804F128038010980F30909803C
:1038A000F3090980F3090980F3091406F01422C60C
:1038B000F1223173F0313FDEF13F0EFFE03229801B
:1038C00038012A20EFBFBDEFBFBDEFBFBDEFBFBDC9
:1038D000EFBFBDEFBFBDEFBFBDEFBFBD20202020BC
:1038E000202020203A2025730D0A002A20EFBFBD9A
:1038F000EFBFBDEFBFBDCCB0E6B1BE202020202081
:103900002020203A2025730D0A000A0D002A2A2AB9
:103910002A2A2A2A2A2A2A2A2A2A2A2A2A2A2A2A07
:103920002A2A2A2A2A2A2A2A2A2A2A2A2A2A2A2AF7
:103930002A2A2A2A2A2A2A2A2A2A2A2A2A2A2A2AE7
:103940002A2A2A2A2A2A2A2A2A2A0D002A2077778E
:10395000772E73696C69636F6E7472612E636F6D1D
:1039600020EFBFBDEFBFBDEFBFBDDAB9E8B4ABEF2D
:10397000BFBDC6BCEFBFBDEFBFBDEFBFBDEFBFBD9D
:10398000DEB9EFBFBDCBBE0D00323032352F30383F
:103990002F33300056322E33002853696D706C651A
:1039A000782950414E333032395F50414E333036F2
:1039B000305F444B00000000D839000800000020B0
:1039C00060000000922E0008383A000860000020D5
:1039D00078090000A22E000800000000000000008E
:1039E000006CDC02A3170008F12A0008DB170008AE
:1039F000C71700088D170008DD2A0008352D0008BC
:103A0000112D0008212D0008F1170008F9170008F2
:103A100069206C6F766520752073746D3332206475
:103A20006F670000000000000000000000000000C0
:083A3000E803000000000000A3
:04000005080000B53A
:00000001FF
