:020000040800F2
:10000000A0090020C9000008BB0D00088D0D0008E4
:1000100000000000000000000000000000000000E0
:100020000000000000000000000000001F15000894
:1000300000000000000000005110000865160008D4
:10004000F900000800000000F9000008F9000008AD
:10005000F9000008710A0008F9000008F90000081A
:1000600000000000F9000008F9000008F90000088D
:10007000310A0008F9000008F9000008000000003B
:10008000F90000080000000000000000011700084F
:10009000F9000008F9000008F9000008F90000085C
:1000A000F9000008F9000008191400089517000865
:1000B000F90000080348854600F060FC004800474E
:1000C000A5250008A00900200C4880F308880C48EA
:1000D0000168090E0B4A914205D10B480B4901609A
:1000E0000B480C4901600C4880470C480047FEE76C
:1000F000FEE7FEE7FEE7FEE7FEE70000A0090020BE
:10010000040000001F000000181002400100000061
:10011000000001400000000085160008B50000083E
:1001200030B50B46014600202022012409E00D468F
:10013000D5409D4205D31D469540491B2546954017
:1001400040191546521E002DF1DC30BDD2B201E03F
:100150000270401C491EFBD270470022F6E710B522
:1001600013460A4604461946FFF7F0FF204610BD25
:100170000321001D401E037812021A43491EF9D5BF
:1001800010467047034603220870000A491C521E9D
:10019000FAD518467047F8B502464A40D40F4200D7
:1001A0004B0052085B089A4202D2024608461146AA
:1001B0004A0023D0C30D4A00DDB2120EAD1A202D25
:1001C00035DA49020126490AF6058A19002C00D0C1
:1001D000524220214F1B1146B9402A411018C20D2E
:1001E0009A4221D0002C17D0012D08DCDA05801AA4
:1001F000D20F8019D207DBB200F037FAF8BDDA056A
:10020000801A012340001B06C01880185A4280182B
:10021000CA0F1043490007E04908C2071143DA0535
:10022000801A80194008801800F017FAF8BD6100A4
:100230000122511A001BF7E70122D2075140AAE719
:100240000122D2075040A6E7024670B54A40D30FBC
:10025000DB0740002DD04A002AD0010E140E000208
:1002600012020919400A520A8418E501044654434F
:10027000000A120A2E045043A4194219200CC54347
:10028000AA18120C0125AD03521C521912047F3911
:10029000240400D0521C104301D44000491EC2B2B5
:1002A0000C06C0092018401C4008802A02D003E038
:1002B000002070BD40084000002900DA00201843EB
:1002C00070BD70B502464A40D50F40004A00ED07A8
:1002D00040085208002814D0002A12D0C40DD30DB3
:1002E00041020120C0055202490A520AE41A0918C3
:1002F00012187D34914201D3641C00E04900002CA7
:1003000001DA002070BD0023914201D3891A034312
:10031000400849000028F7D100290AD0914202D1B3
:100320000121C90705E0914201D2012101E001212B
:10033000C943E005C018401900F08FF970BD0000F6
:10034000F0B51FB488B00B9909980024484009996A
:10035000C00F490049080991C0070B990090490056
:1003600049080B9109990898A64608431CD00B9997
:100370000A98084318D0099801244000420D48000B
:10038000410D099824050003000B204309900B98A8
:100390000003000B20430B9050181C49401800220A
:1003A00001901446104605E0002001460DB0F0BD56
:1003B000032801DA034600E003239C46C11A0AAE73
:1003C0000AE05F0008ADED5B4F00F75B7D4300275F
:1003D000AA187C41491C5B1E6145F2DD410004AB5B
:1003E0005A522104120C0A43240C401C0828DFDB5B
:1003F000019802900099704601910090059B049A23
:100400000799069800F077F9D0E700000DFCFFFF90
:10041000F0B50C465C4085B0E40FE40703944C0053
:100420000026640859009446490802460296224371
:1004300021D062460A431ED06200570D4A000E03C7
:100440002303550D012402462C492405781B1B0B60
:10045000360B401823432643614600901C46501A31
:10046000B44103D30098401C009002E09218009819
:100470005B41002803DA0020014605B0F0BD0020F2
:10048000012109050746864611E064461D46141BF6
:10049000B54106D36546521BB341744607430C432E
:1004A000A646CD0740084908284392185B410546F7
:1004B0000D43EAD11046184313D060461946504008
:1004C0007140084306D06046101AB34106D201229B
:1004D000002306E000220123DB0702E00122D243D1
:1004E0005310009874460105381C6141029C039D1D
:1004F0000019694100F0F2F8BFE70000FD030000B9
:10050000C217C10F504010B54018CA0796230021EA
:1005100000F0ABF810BD10B500229623114600F094
:10052000A4F810BD0EB505490291002100910A46BC
:100530000B46019100F0DFF803B000BD330400006A
:10054000C20F410040020123400ADB05D207090E19
:10055000C0187F2901DA00207047962903DC962312
:10056000591AC84001E096398840002AF4D0404228
:100570007047410040020122400AD205090E80184E
:100580007F2901DA00207047962903DC9622511A50
:10059000C8407047963988407047C20FD207400064
:1005A00040080BD0C10D0723DB01C9184002090523
:1005B000400A1143C208400711437047002001461A
:1005C0007047CB0FDB07490010B5490802460A43C4
:1005D00007D00A0D07240903E401090B121B002AA6
:1005E00001DC002010BDC900440F0C43C100E0181D
:1005F000D205801800F031F810BDF0B51FB40646E2
:10060000002082B005464024019100901BE0019932
:1006100022460F46304600F0D3F9049A059B801A13
:10062000994110D310461946224600F0B9F9361AFE
:100630008F410197224601200021009F00F0B0F970
:1006400038184D4100902046641E0028DFDC019BD5
:1006500000982946324607B0F0BD002904DA401C54
:10066000490001D140084000704770B40024050CD7
:1006700005D11024000402D1002921D01124050E37
:1006800001D100020834050F01D10001241D850F9E
:1006900001D18000A41C002801DB4000641C00295B
:1006A00008D020252E1B0D46F540A14000D0012189
:1006B0002943084301061B1B000ADB1D02D500204D
:1006C00070BC7047DB05181880180029F8DA401C48
:1006D0004900F5D170BC40084000704710B5002BB0
:1006E00008DA0024401C614192185B411A4301D191
:1006F0004008400010BDF0B51FB482B005460C00A4
:1007000003D0084601F0D4F902E001F0D1F920301D
:10071000024600902146284600F042F9049B059AC3
:1007200004460F4618431143084314D0184610439B
:100730001BD0009840210A1A1846059900F040F98C
:1007400005460E46009A0599049800F029F90843D9
:1007500005D0012004E02046394607B0F0BD002056
:10076000C11705430E432C43374300990E98630588
:10077000401A7905E40A00220C43FD0A0A3002D52A
:1007800000200146E9E70105101969410C9C0D9D07
:1007900000196941FFF7A2FFDFE70000F0B5074647
:1007A0000846584087B0C00F049048000E465900D4
:1007B00040084908BC1A884105D2384631461E46D1
:1007C00017460B4602465800400810434CD0300DE7
:1007D000039040055900400D490D0590401A0290C4
:1007E000402872DA18030121000B09050843019023
:1007F00004980092002805D00199524200208841B7
:1008000000920190029840210A1A0199009800F084
:10081000C7F805460C466B4607CB00F0E2F8C01956
:100820007141039A0E0D0023D71756401A467A409D
:10083000164344D0049A002A2DD0029A012A039A22
:1008400015DC1205C01A914101263605001C7141C4
:10085000D20F059ED2070093019202962A462346A4
:10086000FFF749FF07B0F0BD38463146FAE71605F5
:10087000224A0F46B218C01AB74101210905001CCF
:100880004F4100187F41114618187941E20F10437B
:100890006D19644113E0E2076D0815436408C2074F
:1008A0001443039A01261205C01A91413605001C13
:1008B0007141CE07400830434908C01851412A46CB
:1008C0002346FFF70BFFCDE7FFE704980122400026
:1008D000C117121A00238B4104983146C417381AE5
:1008E000A141EEE730B40124E407634030BC55E792
:1008F00030B40124E407614030BC4FE70000E0FF62
:1009000070B54B005B0803430BD04B005C0D002619
:1009100033466542B341D417AD1AA34102DB002030
:10092000014670BD12053018514170BD0EB5C21799
:10093000C10F5040CA0740180021054B0293019295
:1009400000910A460B46FFF7D6FE03B000BD00003B
:100950003304000010B5002904DB0124E407404201
:100960008C412146002B04DB1C460123DB0752424D
:10097000A341994200D1904210BD0000064C0125D0
:10098000064E05E0E36807CC2B430C3C9847103437
:10099000B442F7D3FFF792FB104000083040000844
:1009A00010B5202A04DB0146203A9140002010BDFA
:1009B000914020239C1A0346E3401943904010BD08
:1009C00010B5202A04DB0846203AD040002110BD93
:1009D0000B46D340D0402024A21A91400843194628
:1009E00010BD10B5202A06DBCB170846203A10416F
:1009F000C1170B4306E00B461341D0402024A21A36
:100A000091400843194610BD10B5002904DB0124AC
:100A1000E40740428C412146002B04DB1C460123A5
:100A2000DB075242A3418B4200D1824210BD00003D
:100A3000704700000021002200BF06E0002200E015
:100A4000521C034B9A42FBD3491C8142F6D3704798
:100A5000BC1100000021002200BF06E0002200E0DF
:100A6000521C102AFCD34B1CD9B28142F6D37047DA
:100A700010B5022000F00EF8002804D0022000F08B
:100A800003F802F0E5F910BD014948617047000024
:100A90000004014001460020044A52690A40002A2D
:100AA00001D0012000E00020704700000004014058
:100AB000002120498279002A35D00A46126803684D
:100AC0009A430B461A600A46526803689A430B46DB
:100AD0005A60027951180A6803681A430A60154A75
:100AE000926803689A43134B9A601A46D268036867
:100AF0009A43104BDA604279102A0CD11A46926858
:100B000003681A430B4B9A601A46D26803681A436B
:100B1000084BDA600DE00749427951180A6803680A
:100B20001A430A6005E0027951180A6803689A437B
:100B30000A60704700040140F0B50A460021002316
:100B4000002400BF3DE001258D402B4615681D4067
:100B50002C469C4234D11579012D02D01579022DF5
:100B600016D185684F000326BE40B5438560557990
:100B70004E00B540866835438560858801268E40E5
:100B8000B5438580858896798E40B6B23543858099
:100B900005684F000326BE40B543056015794E0039
:100BA000B540066835430560C5684F000326BE4062
:100BB000B543C560D5794E00B540C6683543C560BC
:100BC000491C1029BFD3F0BDF0B5002300244D0708
:100BD000EE0E1546B5402B46CD10AE00054620352D
:100BE000AD594E07F70E0F26BE40B543CE10B600E6
:100BF00007462037BD51CD10AE003D46AD591D43CF
:100C00002C46CD10AD003E467451F0BD024600208A
:100C1000138A0B40002B01D0012000E00020704718
:100C20000185704781617047002A01D0816100E031
:100C3000018570471CB50021684681710121C17191
:100C4000417101710803009069464148FFF774FF44
:100C5000012109033E48FFF7E5FF00216846817145
:100C60000121C1714171022101710803009069469F
:100C70003748FFF761FF00220D213548FFF7A4FF39
:100C80000021684681710121C17141710221017108
:100C90008803009069462E48FFF74EFF00220F217F
:100CA0002B48FFF791FF0021684681710121C17136
:100CB0004171022101714803009069462448FFF701
:100CC0003BFF00220E212248FFF77EFF00216846ED
:100CD00081710221C1710121417100210171022044
:100CE000009069460920C006FFF726FF00216846EC
:100CF00081710121C17141710021017101200090B8
:100D000069460920C006FFF717FF00216846817178
:100D10000121C17141710171C80300906946092028
:100D2000C006FFF709FF0121C9030920C006FFF72C
:100D300079FF042000900021684601710321417170
:100D40000221C17169460920C006FFF7F5FE1CBDEE
:100D5000000400480021044A116800BF024A1268DA
:100D6000521A8242FAD370471400002010B500F0E6
:100D700063FC00F0E9FC00F0BDF9FFF75BFF00F059
:100D80004DFB00F039FE00F019F810BD00BFFEE782
:100D900010B500220121C9030920C006FFF744FF56
:100DA0003220FFF7D7FF0122D1030920C006FFF749
:100DB0003BFF3220FFF7CEFF10BD70470EB502207B
:100DC000FFF762FE022000900021684601710821B1
:100DD000417101218171FFF76BFE0121002000F0BC
:100DE0009FFB052168460172002141720121817239
:100DF00002A800F001F80EBD00218278002A27D059
:100E0000184A03231B02D21803789B109B00D15869
:100E100002789207D30EFF229A400B46934319465D
:100E200042789207120E03789B07DB0E9A4011431B
:100E30000C4A03231B02D21803789B109B00D1504D
:100E40000278D306DB0E01229A40064B1A6007E0B7
:100E50000278D306DB0E01229A40024B80331A60DF
:100E60007047000000E100E010B5002819DA1A4AC6
:100E700003071B0F083B9B089B00D2588307DC0E1F
:100E8000FF23A3409A438B071B0E8407E40EA34065
:100E90001A43114B0407240F083CA408A4001A515C
:100EA00018E00E4A03231B02D21883089B00D25875
:100EB0008307DC0EFF23A3409A438B071B0E840796
:100EC000E40EA3401A43054B032424021B19840893
:100ED000A4001A5110BD00001CED00E000E100E08C
:100EE00010B511480078401C0F4908700F4A0A21BC
:100EF0000D4802F07FFD002805D00122D103092012
:100F0000C006FFF791FE00BF01F020FE0028FBD0D5
:100F1000002002F01FFCFFF73BFF05A000F0B8FD2A
:100F2000054801F0DDFC10BD6000002070000020CD
:100F30007478206F6B0D0A00983A000010B501F02C
:100F40009FFD022836D1002002F0A4FB2748C07F75
:100F50002749087025482030FFF70AF90446FFF7B3
:100F600008FB2449087022480078C11FF93922A0E3
:100F700000F08EFD1F48017822A000F089FD24A01A
:100F800000F086FD002406E02348015D23A000F068
:100F90007FFD601CC4B22348417E027E08021043DC
:100FA000A042F1DC20A000F073FDFFF7F1FE1F4826
:100FB00001F096FC01F064FD042808D11CA000F0AB
:100FC00067FD002002F066FB1C4801F089FC01F07F
:100FD00057FD032808D11AA000F05AFD002002F0A6
:100FE00059FB164801F07CFC10BD00007C05002078
:100FF0006C0000206D000020527373693A20256454
:1010000020200000536E723A20256420202000002A
:10101000446174613A2000007C0000202530327861
:10102000200000007F0100200D0A0000983A000017
:10103000637263206572726F720D0A00881300007C
:1010400072782074696D65206F75740D0A00000058
:1010500070470000002905D0054A52690243044B3D
:101060005A6104E0024A52698243014B5A61704757
:1010700000100240002905D0054AD2690243044B02
:10108000DA6104E0024AD2698243014BDA617047B7
:1010900000100240002905D0054A12690243044BA2
:1010A0001A6104E0024A12698243014B1A617047D7
:1010B00000100240002905D0054A92690243044B02
:1010C0009A6104E0024A92698243014B9A61704737
:1010D00000100240002905D0054AD2680243044BA3
:1010E000DA6004E0024AD2688243014BDA6070475A
:1010F0000010024010B5012127204004FFF7AAFF8D
:1011000001210448FFF7B6FF01210348FFF7D2FF92
:1011100010BD00000040001001400000FEB5044674
:1011200000250026002002900190009000278648AC
:1011300040680C2108400546002D06D0042D07D03C
:10114000082D08D00C2D2CD128E0804820602BE001
:101150007F48206028E07C4840680F2189040840CF
:101160000646794840680321C90308400290B00C44
:10117000861C0298002803D17648374647430BE087
:101180007148C06A0007000F401C01907048019927
:10119000FEF7C6FF70430746276005E06E482060F3
:1011A00002E06A48206000BF00BF67484068F02145
:1011B000084005462D096948405D00902068009967
:1011C000C840606060484068072109020840054641
:1011D0002D0A6248405D009061680098C140A1609E
:1011E0005948006BFF2101310840884202D05C4819
:1011F000E0600DE0544840680121890308408842BE
:1012000003D0A0684008E06002E0A0688008E060C9
:101210004D48006B40210840402802D051482061D1
:1012200002E00120C00320614748006B1021084004
:10123000102802D04548606101E0206860614248A2
:10124000006B8007800F002802D1A068A06119E020
:101250003D48006B8007800F012802D12068A06103
:1012600010E03948006B8007800F022802D180030C
:10127000A06107E03448006B8007800F032801D18C
:101280003248A0613048006B03210904084000285F
:1012900002D1A068E06120E02B48006B0321090423
:1012A000084001210904884202D12068E06114E06D
:1012B0002548006B032109040840012149048842A4
:1012C00002D18010E06108E01F48006B032109048F
:1012D0000840884201D11D48E0611B48006B032192
:1012E00089040840002802D1A068206220E0164846
:1012F000006B03218904084001218904884202D13E
:101300002068206214E01048006B03218904084023
:101310000121C904884202D10011206208E00A4874
:10132000006B032189040840884201D107482062EC
:101330000548006B80210840802802D00648606282
:1013400000E06762FEBD00000010024000127A005B
:10135000001BB70000093D00006CDC0250000020BB
:10136000809FD5001280000010B5024600210023A6
:1013700000205111002902D10C4C23680BE00129F7
:1013800002D10A4C236A06E0022902D1074C636AA3
:1013900001E0064C636BD106C90E01248C401C4051
:1013A000002C01D0012000E0002010BD0010024000
:1013B000002807D007490968012212061143054A8F
:1013C000116006E003490968012212069143014AAF
:1013D0001160704700100240074A52687B23DB030C
:1013E0009A43054B5A601A46526803460B431A4308
:1013F000014B5A6070470000001002400146002077
:10140000044A50688008800002460A431046014A98
:1014100050607047001002407047000000B585B072
:10142000002168460180FF21053141800721090222
:10143000818000210181C180012149024181102167
:1014400081810021C181072101826946064800F09F
:1014500025F801210903044800F052F8012102484F
:1014600000F004F805B000BD00380040002904D0A9
:10147000028840231A43028003E00288014B1A408D
:1014800002807047BFFF00000246002013890B4016
:10149000002B01D0012000E00020704710B5002291
:1014A0000288C1239B011A400B88CC892343CC8836
:1014B00023430C8923434C8923438C8923431A43B8
:1014C00002808288084B1A408B881A4382800B8ADC
:1014D00003820288054B1A404B881A430280838B93
:1014E000034C2340838310BDFFF00000FBFF00008E
:1014F000FFF70000014600220A460C3210787047C0
:101500008288034B1A40828082880A438280704717
:10151000FFEF0000002202460C3211707047704746
:1015200030B500228B071C0F0F23A3401A460B4B2C
:101530008C10A4001B599343084C8D10AD006351CF
:1015400023468C10A4001B598C07250F0446AC4081
:101550002343024C8D10AD00635130BD08000140A3
:101560000CB5002001900090314800680121090469
:1015700008432F49086000BF2D4800680121490435
:10158000084000900198401C01900098002804D168
:101590000521090301988842EED125480068012100
:1015A00049040840002802D00120009001E00020FA
:1015B00000900098012839D111201E4908601C486C
:1015C00040681B49486008464068486008464068D3
:1015D0007F21C903884316494860084640681121A5
:1015E00009040843124948600846006801210906B9
:1015F00008430F49086000BF0D48006801214906F3
:1016000008400028F8D00A4840688008800008494F
:10161000486008464068022108430549486000BF09
:10162000034840680C2108400828F9D10CBD00008F
:10163000001002400020024010B50020FFF7B8FE65
:101640000521C9040020FFF7C7FE0120FFF7B0FE07
:1016500000BF1920FFF788FE0028FAD00220FFF70C
:10166000CDFE10BD05480068401C044908600448D0
:101670000068401C02490860704700001400002008
:101680001800002010B51B480068012108431949C3
:1016900008600846406818490840164948600846EE
:1016A000006816490840134908600846006801218F
:1016B000890488430F490860084640683F210904AF
:1016C00088430C4948600846C06A00090001C862A6
:1016D0000846006BFF2154318843064908630846D9
:1016E000406B40084000486300208860FFF738FFE7
:1016F00010BD0000001002400CB8FF08FFFFF6FE0E
:1017000010B50121044800F00CF8002803D0012195
:10171000014800F003F810BD00200040CA430282D7
:10172000704730B50246002000230024158A0D4082
:101730002B4695890D402C46002B03D0002C01D060
:10174000012000E0002030BD10B57D21C9000E4809
:101750000068FEF7E5FC0446601E0C49884201D98A
:1017600001200CE0601E0A4948610321081FFFF7B1
:101770007BFB0020064988610720086100200028C3
:1017800001D000BFFEE710BD00000020FFFFFF00FA
:1017900000E000E07047002904D0026801231A43EA
:1017A000026003E0026852085200026070470000C5
:1017B00010B504463248844209D101218803FFF75D
:1017C00089FC002101208003FFF784FC56E02D48AE
:1017D000844209D101214804FFF75CFC002101206B
:1017E0004004FFF757FC49E02748844209D1012112
:1017F0008804FFF74FFC002101208004FFF74AFC1A
:101800003CE02248844209D10121C804FFF742FC90
:1018100000210120C004FFF73DFC2FE01C4884425A
:1018200009D101210805FFF735FC00210120000541
:10183000FFF730FC22E01748844208D10121202024
:10184000FFF748FC00212020FFF744FC16E0124877
:10185000844208D101214020FFF73CFC00214020B8
:10186000FFF738FC0AE00D48844207D101218020AF
:10187000FFF730FC00218020FFF72CFC10BD00009A
:10188000003801400044004000480040004C004047
:10189000005000400014014000180140001C0140AD
:1018A00002460020D3690B40002B01D0012000E04C
:1018B00000207047F8B50346002400260096002556
:1018C000002018460E04340ECEB200960127009E6A
:1018D000B7403D46022C01D1001D02E0032C00D18F
:1018E0000830002A03D006682E43066002E006682E
:1018F000AE430660F8BD0000F0B58BB004460D465F
:10190000002700200A900026206840084000206040
:10191000666803210903304688430646A8680643E3
:10192000666026682D480640E968686808432969AA
:10193000084306432660A66803210902304688430F
:10194000064668690643A6606846FFF7E7FB244839
:10195000844202D106980A900DE02248844202D1C6
:1019600007980A9007E02048844202D108980A901C
:1019700001E002980A9020680121C903084000286C
:101980000CD029680A9A5000FEF7CAFB074629685E
:101990000A9A5000FEF7C4FB0E4609E029680A982F
:1019A000FEF7BEFB074629680A98FEF7B9FB0E460C
:1019B00028684008B04200D87F1C20680121C90374
:1019C0000840002806D03807460F38460749084027
:1019D00030430746A7810BB0F0BD0000F3E9FFFFDD
:1019E000003801400044004000480040F0FF000083
:1019F000CA05D20D0285704700B589B0002168463E
:101A00008172C172012141720221017208020190AA
:101A100001A90920C006FFF78FF801220921C80695
:101A2000FFF7D2F80021684681720121C17241722C
:101A3000022101724802019001A90920C006FFF7A6
:101A40007BF801220A210920C006FFF7BDF80E48E5
:101A5000FFF7AEFEE12040020390002005900690C3
:101A600004900C2007900020089003A90648FFF777
:101A700043FF002205490448FFF71CFF01210248EB
:101A8000FFF789FE09B000BD0038014005010500DF
:101A90000FB410B503A9044B044A029800F0B2F841
:101AA00010BC08BC04B01847412100087400002095
:101AB0002021020C01D010211046020A01D010464C
:101AC0000839020901D01046091F820801D01046CA
:101AD000891E420801D0881E7047081A70470246C6
:101AE000002108E010460841C007C00F002801D0BF
:101AF000C8B27047491C0829F4DB0020F9E7F8B5A3
:101B000004464F1EC8000838211815461E460868AE
:101B100049683A4606239A4310D02A463346FEF7D0
:101B20000FFC3A46D200083AA3181A687F1E5B6879
:101B3000FEF734FE06223B469343EED1022F23D01C
:101B4000042F11D0062F2FD12A463346FEF7F8FB7B
:101B5000E36AA26AFEF722FE2A463346FEF7F0FB4E
:101B6000636A226AFEF71AFE2A463346FEF7E8FB4E
:101B7000E369A269FEF712FE2A463346FEF7E0FB50
:101B800063692269FEF70AFE2A463346FEF7D8FB50
:101B9000E368A268FEF702FE2A463346FEF7D0FB52
:101BA00063682268FEF7FAFDF8BD0000002210B558
:101BB000134610460149FEF72BFC10BD0000F03F14
:101BC00010B50122FEF79CFE10BD002210B5134691
:101BD00010461146FEF71CFC10BD02E008C8121F9B
:101BE00008C1002AFAD170477047002001E001C106
:101BF000121F002AFBD1704701490860704700009E
:101C000078000020FFB591B00F460546002606E09B
:101C100025280AD0149A139990476D1C761C2878B1
:101C20000028F5D1304615B0F0BD00240094012104
:101C3000F34A029400E004436D1C2B780846203BD5
:101C400098401042F7D128782A280ED0022128780F
:101C50000246303A092A15D8009A0A235A43303AE4
:101C600080180C436D1C0090F1E701CF0090002814
:101C700005DA01204003044300984042009002200E
:101C800004436D1C28782E2815D10420044368785D
:101C90006D1C2A280AD101CF6D1C02900BE002991D
:101CA0000A225143303940186D1C029028780146B1
:101CB00030390929F3D928786C2810D006DC4C2853
:101CC0001AD068280ED06A2817D104E0742813D0DF
:101CD0007A2812D110E00120400504430CE00121D4
:101CE000090501E0032109050C436978814203D10C
:101CF0000120000524186D1C6D1C287803906E28A7
:101D00001ED00CDC632831D004DC00288AD058288F
:101D100011D1B2E064287BD069280CD178E0732817
:101D20002DD004DC6F2870D0702804D1A7E075286E
:101D30006CD078286BD0149A13999047761C62E087
:101D40006002400F022807D003280AD00428386810
:101D50000AD006603F1D56E03868F1170660416002
:101D6000F8E738680680F5E70670F3E738786946E3
:101D700008740020487404A80390012003E0386828
:101D800003900020C0433F1D61070FD5002101E0F3
:101D90000199491C029A0191914213DA8142F7DBC1
:101DA000019A0399895C0029F2D10BE0002101E03E
:101DB0000199491C01918142FADB019A0399895CDE
:101DC0000029F5D101990098139A401A00902146F4
:101DD000149B00F03BF901998019461807E003981D
:101DE00003990078491C0391149A1399904701981C
:101DF000401E0190401CF2D12146149B139A00987A
:101E000000F014F986196D1C09E741E033E034E075
:101E10000A200021049005916002410F022905D09B
:101E200001CFC2179446032905D007E0FF1DFF0824
:101E3000FF0003CF06E000B2C2179446042902D186
:101E400040B2C1178C4600226146944506DA0A4624
:101E50000021404291418C462D2102E0210504D50C
:101E60002B216A461176012103E0E10701D02021F0
:101E7000F7E7019154E00A200BE0102009E0102060
:101E8000049000210420044308200591029003E0FF
:101E900008200021059104906002410F022905D01D
:101EA00001CF00229446032906D006E0FF1DFF085B
:101EB000FF0003CF8C4603E080B2042900D1C0B2FA
:101EC0000021019121072BD50399702906D0049A8E
:101ED0001021059B4A401A4305D00EE040216A4676
:101EE0001176012108E06146014306D030216A469F
:101EF00011760399517602210191049A0821059BDC
:101F00004A401A430CD16146014301D1610707D50C
:101F100030216A461176012101910299491E0291F0
:101F20000399582904D037A103910FA90F910DE00F
:101F300039A1F9E76146059B049AFEF75EFB039B16
:101F40008C469B5C0F9A521E0F92137061460143A0
:101F5000F0D10F9807A9081A20300390600704D524
:101F6000012000048443029801E0012002900399BB
:101F7000884201DD401A00E00020411802900198DB
:101F800009180098401A0090E00306D42146149BDB
:101F9000139A009800F05AF886190020049008E07F
:101FA00006A9085C149A139990470498401C761C63
:101FB000049001998842F3DBE0030CD52146149B81
:101FC000139A009800F042F8861904E0149A302021
:101FD00013999047761C0299481E02900029F5DC5F
:101FE00008E00F980F990078491C0F91149A1399E3
:101FF0009047761C0399481E03900029F1DCFBE60C
:1020000009280100303132333435363738396162CE
:102010006364656600000000303132333435363792
:10202000383941424344454600000000F8B50446B3
:1020300000251E461746880404D405E039462020B2
:10204000B0476D1C641EF9D52846F8BDFFB504469F
:10205000002581B01E46C80301D5302700E02027A7
:10206000880404D505E038460399B0476D1C641E0A
:10207000F9D5284605B0F0BDF8B54A002B4B520DF6
:10208000D6182B4A0C460546142E2BDA002E12DAEF
:10209000284BFEF783FB00221346FEF75BFC40D281
:1020A000002C03DA0124E40700253AE02046284307
:1020B00037D0214C14E0214F0B46F7403B402B43D7
:1020C00031D01C4BFEF76AFB00221346FEF742FCA0
:1020D00027D2002C03DD01200005F0400419BC4389
:1020E00000251EE0332E1EDC33460027143BFF4341
:1020F000DF40384217D00F4BFEF7FAFB00221346A1
:10210000FEF728FC0DD2002C0ADD142E0CD0342052
:10211000811B012088404019A84200D2641C05465A
:10212000BD4321462846F8BD641CF9E701FCFFFFCA
:102130009C7500883CE4377E0000F03FFFFF0F00F5
:1021400070B504460D46E1B20548FFF751FC00BFEB
:1021500080210348FFF7A4FB0028F9D0204670BD7A
:1021600000380140F0B5C54A00248FB091420ADA28
:102170004B005B08934206D801254A006D05EA42F0
:1021800005D1002803D0FFF71BFD0FB0F0BD0125DE
:102190002D05A94219DA034308D0002910DA0120DD
:1021A000FFF72AFDFFF711FD0FB0F0BD0220FFF78A
:1021B00023FDFFF7FBFC0122D20751400FB0F0BD19
:1021C0003524E4433622FEF79BFB0A15AC4B12196B
:1021D000D4180A03120BAB49AB4B56182E403146AC
:1021E000594011430192321512190B920022FEF749
:1021F00079FB019A0446921C1003A44E000B0D4675
:102200007E44032860D2204673683268FEF7FCFBE8
:102210001CD10B98002815D0FEF788FB04460E460B
:102220009B4A9C4BFEF78CF80D4607469A4A9B4BFF
:1022300020463146FEF784F83A462B46FEF7AEFAC2
:102240000FB0F0BD716830680FB0F0BD944A954B87
:1022500020462946FEF774F80022934BFEF748FB10
:1022600006460F4622462B4610461946FEF768F8EA
:1022700032463B46FEF764F806460B980F460028A8
:102280001DD0FEF753FB824A824B05910490FEF766
:1022900057F832463B46FEF72BFB22462B46FEF70D
:1022A00021FB04460D467C4A7C4B05990498FEF7B9
:1022B00047F822462B46FEF715FB0FB0F0BD0B4644
:1022C000324620462946C4E0012300229B072046CF
:1022D000FEF764FA02460B4620462946FEF798F8B8
:1022E00006460F460B98FEF721FB32463B4605910A
:1022F000049010461946FEF723F809910C906B499B
:102300000198099B421800920C9A19461046FEF754
:1023100017F8024607910A90654901980B1A65481B
:10232000019303217844079BFFF7E9FB079B0A9A77
:10233000FEF706F80E905F480D9104217844079B44
:102340000A9AFFF7DCFB099B0C9AFDF7F9FF019B4A
:10235000009A1A4300920D9B0E9AFEF71FFA009AFC
:1023600001910C90002A4DDD0022D24320462946DF
:10237000FEF7C6FA22462B46FDF7E2FF00910A90CF
:102380000B9800282BD0424A424B05990498FDF740
:10239000D7FF07910E90019B0C9A00990A98FEF7BF
:1023A000FDF932463B46FDF7CBFF079B0E9AFEF741
:1023B000F5F9009B0A9AFEF79BFA22462B46FEF798
:1023C00091FA04460D46344A344B05990498FDF7BA
:1023D000B7FF22462B46FEF785FA0FB0F0BD019BF2
:1023E0000C9A0A98FEF7DAF932463B46FDF7A8FF49
:1023F000009B0A9AFEF77CFA22462B46FEF778FAF3
:102400000FB0F0BD0B98002827D0214A214B059929
:102410000498FDF795FF0791009020462946019BFF
:102420000C9AFEF75FFA32463B46FDF789FF079BA1
:10243000009AFEF757FA22462B46FEF753FA044657
:102440000D46154A154B05990498FDF779FF22466C
:102450002B46FEF747FA0FB0F0BD0B462046294643
:102460000C9AFEF73FFA32463B46FDF769FF2246DB
:102470002B46FEF73DFA0FB0F0BD00000000F07FE4
:1024800001FCFFFF645F09000000F03F041E000034
:10249000763C7935EF39EA3D0000E0FE422EE63F1A
:1024A000555555555555D53F0000E03F86EBF9FF92
:1024B00051B80600A81C0000F8B5044630480025B5
:1024C00081420ADA4A005208824206D801234800B3
:1024D0005B05D84205D1002C03D02046FFF770FBE6
:1024E000F8BD01231B05994219DA224307D00029C0
:1024F0000EDA0120FFF780FBFFF767FBF8BD022033
:10250000FFF77AFBFFF752FB0122D2075140F8BDDB
:102510003525ED4336222046FEF7F2F9044608152C
:102520004019184A0D038018C20F17492D0B891A3C
:1025300009050D438018FEF7F9F906460F462046B7
:102540002946FFF70FFE114A114BFDF7F9FE04462D
:102550000D46104A104B30463946FDF7F1FE224633
:102560002B46FEF71BF90D4604460C4A0C4B304631
:102570003946FDF7E5FE22462B46FEF70FF9F8BD7A
:102580000000F07F01FCFFFFFF0300000EE52615B1
:102590007BCBDB3F362BF111F3FE593D00609F50A2
:1025A0001344D33F0024FEF7E1FB0120FEF742FA7B
:1025B00000F054F800F080FB0446002C04D014A076
:1025C000FFF766FA00BFFEE715A0FFF761FA00F01B
:1025D0007DFE04210920C006FEF718FB012803D167
:1025E00013A0FFF755FA05E016A0FFF751FA1A48B5
:1025F00000F076F90BE004210920C006FEF706FB87
:10260000002802D0FEF76CFC01E0FEF797FCF2E731
:10261000524620696E6974206661696C0D0A00007B
:10262000524620696E6974206F6B0D0A000000002D
:1026300052462074782074657374207374617274C8
:102640002E0D0A0052462072782074657374207330
:10265000746172742E0D0A008813000010B50CA06E
:10266000FFF716FA0BA0FFF713FA1AA120A0FFF745
:102670000FFA26A127A0FFF70BFA2DA12FA0FFF735
:1026800007FA35A0FFF704FA02A0FFF701FA10BD20
:102690000A0D00002A2A2A2A2A2A2A2A2A2A2A2A2B
:1026A0002A2A2A2A2A2A2A2A2A2A2A2A2A2A2A2A8A
:1026B0002A2A2A2A2A2A2A2A2A2A2A2A2A2A2A2A7A
:1026C0002A2A2A2A2A2A2A2A2A2A2A2A2A2A2A2A6A
:1026D0002A0D0A002853696D706C65782950414EA7
:1026E000333032395F50414E333036305F444B0027
:1026F0002A20C0FDB3CCC3FBB3C62020202020205D
:1027000020203A2025730D0A0000000056322E3397
:10271000000000002A20C0FDB3CCB0E6B1BE2020EE
:102720002020202020203A2025730D0A00000000E0
:10273000323032352F30382F333000002A20B7A204
:10274000B2BCC8D5C6DA20202020202020203A2084
:1027500025730D0A000000002A207777772E736911
:102760006C69636F6E7472612E636F6D20C9EEDBEE
:10277000DAB9E8B4ABBFC6BCBCD3D0CFDEB9ABCB03
:10278000BE0D0A0010B50446002C0AD100BF01227C
:102790000621022000F0CBFF002801D0012010BD4F
:1027A0000AE000BF01220621022000F0EDFC002813
:1027B00001D00120F3E700BF0020F0E710B50021B1
:1027C000084600F0EBFE00210A2000F0E7FE10BDF5
:1027D00010B50A2000F0C0FE002000F0BDFE002170
:1027E0000A2000F0DBFE0021084600F0D7FE10BDF5
:1027F00010B50021084600F0D1FE01210A2000F0AA
:10280000CDFE10BD10B500210A2000F0C7FE012149
:10281000002000F0C3FE10BD10B5044622466C2116
:10282000002001F087F9002010BD10B504462046B5
:10283000FEF700F910BD10B504462046FEF70AF970
:1028400010BD10B500BF08223E21022000F06FFF2E
:10285000002801D0012010BD00BF0020FBE710B50B
:1028600000BF08223E21022000F08EFC002801D08B
:10287000012010BD00BF0020FBE7FEB506460C4658
:1028800015460021009164272112684601714471A8
:102890006806010E68468171022001F0DFF803220C
:1028A00001A9304601F006F900BF6C21002000F0BC
:1028B000EBFB80210840002800D004E03846791E58
:1028C0008FB20028F1D100BF022001F0C7F8012229
:1028D0006946304600F08CFB68460078FEBD00007B
:1028E00010B5044600BF042000F0C6FE002801D049
:1028F000012010BD00BF1049C868804700BF0120FB
:1029000000F0CEFE002801D00120F2E700BF00BF9A
:10291000A0B200F0D5FE002801D00120E9E700BFF9
:1029200000BF062000F0A8FE002801D00120E0E74B
:1029300000BF0020DDE700001C00002030B58BB098
:10294000282101A8FDF709FCFFF789FF11240CE0FD
:1029500020460D30C2B22A493B20FFF78EFF2146A8
:102960000D3101AA5054601CC4B2142CF0DB1C229F
:1029700023493B20FFF781FF5A283DD1FD223D210D
:10298000022001F0D7F808A80079002805D008A88F
:1029900002794521002001F0CDF80D2218493B2095
:1029A000FFF76BFF01280FD100BF08A88078C2068F
:1029B000D20E1F231C21032001F0D5F8002802D0DD
:1029C00001200BB030BD11E00D220D493B20FFF777
:1029D00054FF02280AD108A88078C506ED0EC02150
:1029E0000D432A461C21032001F0A4F808A8C27850
:1029F0001D21032001F09EF8FFF723FF0020E0E7F0
:102A0000A55A000010B50D21032000F03DFB04463F
:102A1000201110BD70B50D21032000F035FB0546D7
:102A20000E2028404410204670BD10B56C210020B7
:102A300000F02AFB04466006400E10BD10B51221BE
:102A4000032000F021FB044608202040C00810BDF0
:102A500010B52E21012000F017FB044680202040F5
:102A6000C01110BD08B502236A461321032000F0EF
:102A70001BFB6946487800020978084308BD00003E
:102A800001480068704700004800002010B57F2111
:102A9000012000F0F9FA40B210BD10B50E2103205C
:102AA00000F0F2FA0446201110BD0000F0B589B024
:102AB000032306AA7121022000F0F6FA6946887EF7
:102AC0000004497E090208436946097E0843074617
:102AD000032306AA7421012000F0E6FA6846807EEE
:102AE00001046846407E000208436946097E0843A7
:102AF00008907C21012000F0C7FAF0210840001165
:102B00000790002F00D1012702220798824011462A
:102B10000898FDF705FB39460090FDF701FB019091
:102B2000FDF700FD03910290FFF7C6FC0546002269
:102B3000054BFDF705FC05910490FDF742FD0446A9
:102B4000204609B0F0BD00000000244001480068A4
:102B5000704700004C000020F0B593B00546FFF729
:102B60009CFF0446FFF756FF1190FFF74BFF064608
:102B7000FFF764FF1090FFF775FF0F904A4801467A
:102B80000EC9C0680BAF0EC70E90062E01DB092ED2
:102B900002DD002013B0F0BD0121A1400846FDF781
:102BA000AFFC0790B01F80000BAA11580798FDF7E3
:102BB00088FB074600200990072C2ADA0F98FDF7BA
:102BC000AAFC3A490690FDF7E6FA39460790FDF768
:102BD0003BFB0A9010994900611A8800FDF790FCB0
:102BE000E900A200891A029008462430FDF788FC0B
:102BF00001900299FDF765FB0390FDF7CEFC05916E
:102C00000490FFF739FA07910690FDF7DAFC099076
:102C100029E00F98FDF77FFC25490690FDF7BBFAE8
:102C200039460790FDF710FB0A9010994900611A88
:102C30008800FDF765FCE900A200891A02900846A9
:102C40002C30FDF75DFC01900299FDF73AFB0390F3
:102C5000FDF7A3FC05910490FFF70EFA079106908B
:102C6000FDF7AFFC09901198001DFDF749FC079096
:102C70000999FDF7E9FA0990412109060998FDF73C
:102C80008AFA099039460998FDF7DEFA0990099900
:102C90000A98FDF780FA07490790FDF7D5FA0890E2
:102CA0000898FDF766FC75E7AC3F00080000C840D7
:102CB0000000884000007A4470B5042000F0CEF98E
:102CC0000546102005432946042000F013FF5F4805
:102CD000816A0A208847EF2005402946042000F039
:102CE00009FF002000F0BAF904466406640E21468C
:102CF000002000F0FFFE5548816A0A2088478020A6
:102D000004432146002000F0F5FE5048816A0A2065
:102D100088476406640E2146002000F0EBFE4B4815
:102D2000816A0A20884700BF0021022000F0E2FEED
:102D3000002801D0012070BD00BF4448816A0A20EC
:102D4000884700BF0121022000F0D4FE002801D0F6
:102D50000120F0E700BF3D48816A0A20884700BF94
:102D600020220621032000F0E2FC002801D00120EF
:102D7000E1E700BF3548816A0A20884700BF022189
:102D8000084600F0B7FE002801D00120D3E700BFBD
:102D90002E48816A0A20884700BF2F22262103205F
:102DA00000F0C8FE002801D00120C4E700BF27487A
:102DB000816A0A20884700BF3621042000F09AFE6D
:102DC000002801D00120B6E700BF2048816A0A2010
:102DD00088471E494868804700BF0321022000F051
:102DE00089FE002801D00120A5E700BF1748816AAD
:102DF0009620884700BF0421022000F07BFE0028B7
:102E000001D0012097E700BF1048816A0A20884757
:102E100000BFFFF793FD002801D001208BE700BF22
:102E200000BF00F093F9002801D0012083E700BF24
:102E300000BF012000F0DAF9002801D001207AE774
:102E400000BF024908688047002074E71C0000208A
:102E500070B502210920C006FDF7D8FE00287DD0FC
:102E6000FFF7E3FD04461020204000281DD0FFF7A7
:102E7000EFFD4C490876000A48760846427E037EFC
:102E800010021843C1B24748801E00F091F845492E
:102E90000876000A48761021204688430446102010
:102EA000FFF7BAFC052000F0F5FB40202040002889
:102EB00021D06E21002000F0E7F805463948417F17
:102EC000007F090201433748427F037F1002184305
:102ED000401C82B233480277120A42771E304554B2
:102EE00040212046884304464020FFF795FC0620F9
:102EF00000F0D0FB00BF0820204000281CD0FFF7C6
:102F0000D5FD05462849FDF73DF9FFF7BFFD2649E8
:102F10002039C877254800F0F1F82249891C087645
:102F2000000A487608212046884304460820FFF717
:102F300073FC022000F0AEFB04202040002811D0DA
:102F40000A2218490E31012000F052F804212046CF
:102F5000884304460420FFF75FFC00E021E00420E2
:102F600000F098FB0220204000280BD000F0D4F89D
:102F700002212046884304460220FFF74DFC03202F
:102F800000F088FBE007C00F002809D000F02BFB01
:102F9000640864000120FFF73FFC012000F0DAFB29
:102FA00000BF70BD7D0100209C0500207C0000203A
:102FB00070B505460C46002C07D108232A46762119
:102FC000022000F071F8082070BD012C0ED10A23F8
:102FD0002A467621022000F067F806232A460A32A4
:102FE0007621002000F060F81020EDE70020EBE7EC
:102FF000F8B505460E4617466806000E00900A49C9
:10300000086A80470848816900988847002405E0DD
:1030100005488169002088473055641CBC42F7DBB5
:103020000149C8698047F8BD1C00002038B5042359
:103030006A460921032000F037F86846C078010687
:1030400068468078000408436946497809020843C5
:103050006946097808430446204638BD70B50446E1
:103060000849086A80476206100E064A9169884737
:10307000044881690020884705460249C86980479D
:10308000284670BD1C00002070B505460C4600BFE8
:10309000284600F0E3FC002801D0012070BD00BFED
:1030A0002046FFF7DBFFF9E7FFB581B00D46164676
:1030B0001F4600BF019800F0D1FC002802D001207B
:1030C00005B0F0BD00BF0C49086A80476A06100EC3
:1030D000094A91698847002406E007488169002071
:1030E00088473055601CC4B2BC42F6DB0249C8694F
:1030F00080470020E4E700001C00002070B5044673
:103100007D210120FFF7C0FF05462A462146012008
:10311000FFF76EFF284670BD10B50020FFF79EFF39
:103120000446802004432146002000F0E3FC0020F8
:10313000FFF794FF04466406640E2146002000F069
:10314000D9FC0020FFF78AFF002010BD70B50024D5
:1031500014E000BF6300E3180A4D5B199A7863001E
:10316000E3185B1959786300E318E85C00F0E2FCAF
:10317000002801D0012070BD00BF641C2F2CE8D3B3
:103180000020F8E78D3E0008F8B505460E461446C7
:1031900031462846FFF778FF07463846A0430246E7
:1031A0003146284600F0C6FC00900098F8BD70B586
:1031B00005460C4600BFE2B20C21012000F0BAFC2B
:1031C000002801D0012070BD00BF00BF05210220F2
:1031D00000F090FC002801D00120F4E700BF224657
:1031E0002946012000F066FC0020ECE710B50446FB
:1031F00000BF2046FFF7C6FA002801D0012010BD0D
:1032000000BF00BFEF223421022000F093FC002811
:1032100001D00120F3E700BF0020F0E770B50446BD
:1032200000BFF02322460D21032000F09CFC002863
:1032300001D0012070BD00BFFFF72FFC06462146DC
:10324000304600F0C1FB0546284600F0E8F9062CA0
:1032500003D0072C01D0082C0AD100BF02223F2145
:10326000104600F064FA002801D00120E2E70AE0ED
:1032700000BF02223F211046FFF786FF002801D041
:103280000120D7E700BF0020D4E710B5044600BFF7
:103290000E2322460D21032000F065FC002801D0FA
:1032A000012010BD00BF0020FBE710B5044600BFA1
:1032B000082322460E21032000F055FC002801D0EF
:1032C000012010BD00BF0020FBE7000008B500BFD3
:1032D0000120FFF7EAFF002801D0012008BD00BF50
:1032E00000BF1B4800F048F8002801D00120F5E796
:1032F00000BF00BF0120FFF7C8FF002801D0012058
:10330000ECE700BF00BF0720FFF788FF002801D0CF
:103310000120E3E700BF00BF092000F0E7F9002823
:1033200001D00120DAE700BF00BF162000F028FA24
:10333000002801D00120D1E700BF01200723092286
:103340000349009003A0FEF7A3FB0020C6E700009E
:10335000400ECF19465245513D202564202053464A
:103360003D256420202042573D2564202043523DC6
:103370002564200D0A000000F0B58DB00446002041
:103380000B906B48844202D36A48844202D90120E0
:103390000DB0F0BD684884420BD200BF2823674AB5
:1033A0000A21022000F000FC002801D00120EFE7F4
:1033B0000BE000BF2823624A0A21022000F0F4FB40
:1033C000002801D00120E3E700BF002529E058488C
:1033D000844202D0400084420BD100BF1A22402117
:1033E000002000F0A7FB002801D00120D0E700BF9B
:1033F00019E0E80053490858A04211D2E8004018EB
:103400004068A0420CD300BF4F48425D40210020DD
:1034100000F090FB002801D00120B9E700BF02E0D6
:103420006D1C102DD3DB00BF4348844217D22046C9
:10343000FDF778F80022454B01910090FCF780FFE2
:103440000022434B03910290FCF7E2FF05910490A8
:10345000FDF7B7F80646002000F0F1F817E0204627
:10346000FDF760F8002201239B0701910090FCF713
:1034700067FF0022364B03910290FCF7C9FF0591CC
:103480000490FDF79EF80646012000F0D8F830467B
:10349000FDF756F80A900A98FDF732F805463146CE
:1034A000FCF7CEFE09900A98143808900B99491C35
:1034B0004800FDF725F8274905900998FCF7C4FE58
:1034C00004900599FCF7FDFE0546FDF739F807461F
:1034D0000898C1B26846017747773805010F6846FA
:1034E000817700BF032307AA1521184600F05CFB73
:1034F000002801D001204BE700BF68460476200475
:10350000010E684641762002010E68468176200E43
:103510006946C87600BF042306AA0921032000F0EB
:1035200043FB002801D0012032E700BF00202FE735
:1035300040CF2318007E5F400008AF2F983C000862
:10354000C03C00081C3F00089C3F000800001040E1
:1035500080847E410000C84410B50446082C0CDA73
:1035600000BF0120A040C2B26521002000F0DFF8BA
:10357000002801D0012010BD0EE000BF2046083811
:1035800001218140CAB26621002000F0D0F8002855
:1035900001D00120EFE700BF0020ECE770B5044642
:1035A0000D46082C0DDA00BF0120A040C3B22A4608
:1035B0006721002000F0D7FA002801D0012070BD5B
:1035C0000FE000BF2046083801218140CBB22A46D7
:1035D0006821002000F0C7FA002801D00120EEE7A2
:1035E00000BF0020EBE710B500BF08224F210020EC
:1035F000FFF7CAFD002801D0012010BD00BF002048
:10360000FBE710B500BF08224F21002000F08FF823
:10361000002801D0012010BD00BF0020FBE710B53D
:10362000044600BFE2B208231221032000F09BFAF7
:10363000002801D0012010BD00BF0020FBE710B51D
:103640000446002C0AD100BF702301223D2100F066
:103650008AFA002801D0012010BD0BE000BF7023C2
:1036600000223D21104600F07EFA002801D0012002
:10367000F2E700BF0020EFE710B5044600BF214687
:10368000022000F037FA002801D0012010BD00BF51
:103690000020FBE701490860704700004800002057
:1036A00010B5044600BF032322460621184600F049
:1036B0005AFA002801D0012010BD00BF0020FBE70E
:1036C00038B50446684604702004010E684641700F
:1036D00000BF02236A460721032000F065FA002894
:1036E00001D0012038BD00BF0020FBE770B50446C3
:1036F000052C01DB0C2C01DD012070BD00BFF02387
:1037000022460E21032000F02EFA002801D00120CD
:10371000F3E700BFFFF776F906463146204600F092
:1037200053F905462846FFF77AFF0020E5E7F8B58C
:1037300005460E46144631462846FFF7A5FC0746C7
:103740003846204302463146284600F0F3F90090FF
:103750000098F8BD01490860704700004C00002047
:1037600010B5044600BF042322460621032000F0C2
:10377000FAF9002801D0012010BD00BF0020FBE7AE
:10378000FEB50446012C00DA0124FFF74FFC054684
:1037900085498D427ED3854885427BD8172C00DD34
:1037A000162400BF601E4100401881490A5C3F2377
:1037B0001E21002000F0D7F9002801D00120FEBD15
:1037C00000BF00BF601E4100401879494018407892
:1037D00002110F234B21002000F0C5F9002801D071
:1037E0000120ECE700BF00BF601E41004018704997
:1037F00040184078C207D20F01232221032000F095
:10380000B2F9002801D00120D9E700BF601E4100B5
:10381000401867494018807870280AD000BF0422F9
:1038200046210020FFF783FF002801D00120C6E7D2
:103830000AE000BF042246210020FFF7A5FC002873
:1038400001D00120BBE700BFFFF709F8202259494A
:103850003B20FFF712F80746FEF7F3FF002F00D1D9
:103860000827601E41004018514940188078000721
:10387000000F381AC1B20191601E410040184C4936
:1038800040188078F021084001990843009000BF5B
:10389000452100E00AE00020009A00F04BF90028E2
:1038A00001D001208BE700BF002088E74248854215
:1038B00004D34248854201D8022609E03F488542A8
:1038C00004D33F48854201D8032601E0012076E772
:1038D000162C00DD162400BF601E00013949401877
:1038E000B100425C3F231E21002000F03CF900287B
:1038F00001D0012063E700BF00BF601E0001314915
:103900004018B100401842780F234B21002000F0EE
:103910002AF9002801D0012051E700BF00BF601E36
:10392000000128494018B100401882780123222163
:10393000032000F018F9002801D001203FE700BF64
:10394000601E00011F494018B1004018C078FF28D0
:103950001CD000BF042246210020FFF7E8FE00280B
:1039600001D001202BE700BF00BF601E00011549F8
:103970004018B1004018C27870234521002000F0A3
:10398000F2F8002801D0012019E70AE000BF042264
:1039900046210020FFF7F8FB002801D001200EE7A8
:1039A00000BF00200BE7000040CF23184037AD21B7
:1039B000483E0008A55A0000809E473080520C35D2
:1039C000007E5F40E83C000802460B2A05D106292C
:1039D00001D007290BD1012070470C2A07D10629F5
:1039E00003D0072901D0082901D10120F4E70020E4
:1039F000F2E7000070B506460C46154600BF0420ED
:103A0000FFF73AFE002801D0012070BD00BF00BFC3
:103A1000FFF7F7FD002801D00120F6E700BF0E49AF
:103A20008868804700BF0020FFF79AFE002801D079
:103A30000120EAE700BF2046FFF78EF8286000BFAC
:103A400021463046FFF7B3FB002801D00120DCE718
:103A500000BF0020D9E700001C00002070B504461C
:103A60000020FFF7FBFA06463046FC2108402043C1
:103A700005462946002000F03DF80020FFF7EEFA49
:103A80008007800FA04201D0012070BD0020FCE71C
:103A900010B50320FFF760FD00210320FFF77EFD36
:103AA00010BD10B50320FFF757FD01210320FFF7DC
:103AB00075FD10BDF8B505460E4617466800012194
:103AC0000843C0B200900A49086A804708488169E3
:103AD00000988847002404E0305D054A91698847D2
:103AE000641CBC42F8DB0249C8698047F8BD00008D
:103AF0001C00002070B505460C46680001210843F3
:103B0000C6B20B49086A8047094881693046884730
:103B100007488169204688470549C8698047284683
:103B2000FFF79CFAA04201D0012070BD0020FCE705
:103B30001C00002070B506460C46154600BF3046F6
:103B4000FFF78CFF002801D0012070BD00BF00BF2F
:103B500029462046FFF7CEFF002801D00120F4E7D8
:103B600000BF0020F1E7FFB583B0064614461D46AE
:103B70002846FDF7B4FF0190214601988140CCB260
:103B800020462840044630460499FFF77DFA074650
:103B90003846A8432043024630460499FFF7CAFF3F
:103BA0000290029807B0F0BDFFB583B00D461646EF
:103BB0001F460020019000BF0398FFF74FFF002829
:103BC00002D0012007B0F0BD00BF6800012108430A
:103BD00002901949086A8047029AD0B2164A916940
:103BE0008847002405E0305D134A91698847601CCE
:103BF000C4B2BC42F7DB1049C86980470E49086A65
:103C000080476A06100E0C4A9169884700240BE031
:103C10000948816900208847315D884202D001202F
:103C2000019003E0601CC4B2BC42F1DB00BF02495A
:103C3000C86980470198C5E71C00002010B5012124
:103C400009030248FCF7EEFF10BD00000004004825
:103C500010B5012109030248FCF7E2FF10BD000086
:103C60000004004810B5044600BF02210948FDF7D2
:103C70000BFC0028F9D021460648FDF74BFC00BF9D
:103C800001210448FDF700FC0028F9D00148FDF7A8
:103C900031FC10BD003800400600F8060600F806AA
:103CA0000600F8060600F80614C0F91422D4F9221A
:103CB00030D8F9303EDEF93E0EFF804F12803801D9
:103CC0000980F3090980F3090980F3090980F309E0
:103CD0001406F01422C6F1223173F0313FDEF13FB9
:103CE0000EFFE03229803801010B01FF010600FFC1
:103CF000010701FF010601FF010B00FF01060000A3
:103D0000010B00FF010B01FF030201FF030401008F
:103D1000030001FF010B00FF030801FF0300010185
:103D2000030601FF030101FF030B00FF030001FF76
:103D3000030B00FF030701FF050001FF030B01FF59
:103D4000050001FF030B00FF050301FF0501010052
:103D5000050301FF050001FF050801FF0700010041
:103D6000050B01FF050501FF050900FF0702010022
:103D7000070001FF070001FF070201FF0D0101001D
:103D8000070201FF070401FF070501FF0D02010003
:103D9000090001FF070B01FF070B01FF0D040100E4
:103DA000090201FF090301FF070B00FF0D060100D7
:103DB000090501FF0B0201FF0B0301FF0D090100C3
:103DC0000B0301FF0B0401FF0B0501FF15040101AB
:103DD0000B0601FF0D0401FF150401FF150501018C
:103DE0000B0B01FF0D0701FF150501FF1507010171
:103DF0000D0801FF150501FF150701FF1508010159
:103E0000150601FF150701FF150100FF150100024E
:103E1000150801FF150901FF150300FF1503000236
:103E2000150200FF150300FF150500FF150500FF33
:103E3000150500FF150500FF150600FF150600FF1C
:103E4000150600FF150600FF01010003010103F044
:103E50003005018105A18105F081070181050180FF
:103E60000531800701800721800B11800B21800B19
:103E700041800B61800B91800BB1800DB1800FB13F
:103E80008011508015302015507015607000031B94
:103E90000004760006010015210031D000366600CE
:103EA000376B0038CC003909003CB4003E4200407A
:103EB0006A0041060042AA004877004977004A7725
:103EC000004B05004F040050D2005E8001031B012F
:103ED0000476010B08010F0A011900012FD00143DC
:103EE000DA02031B020476022CC0022D27022E09DF
:103EF000022F0002301003031B030476030A0E0393
:103F00000BCF030C19030D98031216031314031699
:103F1000F4031701031FD9032620000040CF231804
:103F2000C065BC18C065BC188047A1198047A1199D
:103F30004029861A4029861A4056B71B4056B71B9F
:103F40004083E81C4083E81C40B0191E40B0191E95
:103F50008028971F8028971F4037AD21809E4730CB
:103F600080CB783180CB7831008F4233008F423361
:103F700080520C3580520C3580AC6E3780AC6E3779
:103F80008006D1398006D1398060333C8060333C73
:103F900000512E3F00512E3F007E5F401A2A3A4AC0
:103FA0005A6A7A7A1A2A3A4A5A6A7A7A00007A421D
:103FB0000000FA4200007A430000FA4324F40000B3
:103FC00048E8010090D0030020A107000000000095
:103FD00004FA97999999D93FAF788E1DC571CC3F56
:103FE0009FC678D0099AC33F935555555555E53F1F
:103FF000599322942449D23FDE03CB966446C73FAF
:1040000044523EDF12F1C23F0000000000000000F9
:1040100030400008000000207C000000DA1B00088F
:10402000AC4000087C00002024090000EA1B0008C6
:10403000006CDC020000000000000000010203042C
:10404000060708090000000000000000D127000852
:10405000A33A000805280008F1270008BD2700083A
:10406000913A0008653C00083D3C0008513C0008BE
:104070002B2800083728000800000000000000007E
:1040800000000000010203040102030406070809FE
:1040900000010203040506070809000000000000F3
:0C40A000E8030000000000000000000029
:04000005080000B53A
:00000001FF
