:020000040800F2
:100000009808002059010008DF160008B116000802
:1000100000000000000000000000000000000000E0
:10002000000000000000000000000000373300085E
:100030000000000000000000F73000087D340008D8
:1000400089010008000000008901000889010008FA
:1000500089010008F11300088901000889010008DE
:1000600000000000890100088901000889010008DA
:10007000B31300088901000889010008000000008E
:100080008901000800000000000000001935000888
:100090008901000889010008890100088901000818
:1000A000890100088901000831320008AD350008D7
:1000B0008901000800F002F800F03EF80CA030C8FA
:1000C000083824182D18A246671EAB4654465D46D4
:1000D000AC4201D100F030F87E460F3E0FCCB64660
:1000E0000126334200D0FB1AA246AB4633431847E1
:1000F000884D0000A84D0000103A02D378C878C19E
:10010000FAD8520701D330C830C101D504680C6059
:10011000704700000023002400250026103A01D378
:1001200078C1FBD8520700D330C100D50B607047AF
:100130001FB51FBD10B510BD01F0D4F81146FFF773
:10014000F7FF03F063FD01F0ECF803B4FFF7F2FFF3
:1001500003BC01F027F900000F4880F308880F481E
:100160000168090E0E4A914205D10E480E49016000
:100170000E480F4901600F4880470F480047FEE7CF
:10018000FEE7FEE7FEE7FEE7FEE700000B480C494E
:100190000C4A0D4B70470000980800200400000036
:1001A0001F00000018100240010000000000014084
:1001B000000000009D340008B500000898020020EF
:1001C00098080020980400209804002000220309C9
:1001D0008B422CD3030A8B4211D300239C464EE062
:1001E00003460B433CD4002243088B4231D303091E
:1001F0008B421CD3030A8B4201D394463FE0C309D0
:100200008B4201D3CB01C01A524183098B4201D3E7
:100210008B01C01A524143098B4201D34B01C01AD2
:10022000524103098B4201D30B01C01A5241C3084A
:100230008B4201D3CB00C01A524183088B4201D3B9
:100240008B00C01A524143088B4201D34B00C01AA5
:100250005241411A00D201465241104670475DE0BA
:10026000CA0F00D04942031000D34042534000223D
:100270009C4603098B422DD3030A8B4212D3FC22E6
:10028000890112BA030A8B420CD3890192118B4265
:1002900008D3890192118B4204D389013AD092117B
:1002A00000E08909C3098B4201D3CB01C01A524136
:1002B00083098B4201D38B01C01A524143098B42FF
:1002C00001D34B01C01A524103098B4201D30B01E8
:1002D000C01A5241C3088B4201D3CB00C01A52410D
:1002E00083088B4201D38B00C01A5241D9D24308F4
:1002F0008B4201D34B00C01A5241411A00D2014631
:10030000634652415B10104601D34042002B00D59A
:100310004942704763465B1000D3404201B500205C
:10032000C046C04602BD7047704770470246C80FBE
:10033000C00781434B0030B54B405B009B0D20D084
:100340001923DB06C91801231B05994220DB03246E
:10035000A40704251346AB400BD3002B04D1EB06B6
:1003600013409B00E34204D40124640700231219C4
:100370005941FF231B0599420BD2C9000143500F7D
:1003800009E0CB0204D501430803024305D0054828
:1003900030BDFF21C905084330BD084607210905C6
:1003A000884330BD0000C07FF0B50C46871A9C41E1
:1003B0000D46861A9D4103D2C01BA141D21963414B
:1003C0000D0D1F0DC94EEC1BAE435CD07F057F0D9C
:1003D0000026002F51D02D05AC46A943DD02012394
:1003E000ED0A1B051D4320231B1B24D41746E740A1
:1003F000381871412F46E740CC199D4028183146E6
:1004000061410C0D27D161449A4013D50023401C53
:10041000594152000ED14008400001224B005205C4
:10042000D34207D305204007C14201D5B04900E0BF
:10043000B0493046F0BD6B00002A00D001229A1866
:100440001F23203C1B1B01D5002302E0E540281898
:1004500071410C0DD7D0012424050919C407CD071B
:1004600040084908E40F28436144002CD5D00024FB
:10047000401C61419A40D0D1CDE76A05520DD9D1D7
:10048000C90FC907D5E79C4D4E00002801D00124B3
:1004900000E0002434195F00002A01D0012600E0AA
:1004A0000026BE19954FAC420CD8AE420AD8B442D1
:1004B00006D001256D05EC42BCD010461946F0BDB2
:1004C0009942FCD000203946F0BDF0B51FB40C466F
:1004D0000F46811A9F412546861A9D4106D2012565
:1004E000ED076F40401ABC4152187B41210D1E0D93
:1004F0008D1BAC467D4D8D437ED075056D0D7CD03A
:100500000D05AE46AC431B031B0B794D52429D417A
:10051000202366469B1B14D31746F7403818002645
:100520000090744160462F460741E41900989D40B1
:100530002818664116D4714671189A4025D50123B2
:1005400020E093182A466A415200002B00D0521C2A
:100550001E23203E9B1B002B61DD3541EE17281822
:100560006641E8D5001876415B1C9A4000D3401CD8
:100570004B05F3181524E34010D3002B52D07146DD
:100580007118D30FC01802D3491C05B0F0BD012368
:10059000DB079A42F9D140084000F6E701225205F4
:1005A000B21801D1002853D00123CC0ADB029943B1
:1005B000891E002A08D1020C03D0020C0004103955
:1005C00002E00246002020390023550B05D112021B
:1005D0000823550B01D152010D23550C01D11201F5
:1005E0001B1DD50C01D192009B1C150D01D1520091
:1005F0005B1C2025EE1A01E02CE022E00546F540C8
:1006000015439840CA1AE10769181305C918002A4A
:10061000BBDA032040070818C10FC9070FE0714675
:100620006118B2E7F10740080843711071444A00AD
:100630000CD001235B059A42A7D2C90FC90700203D
:10064000A3E74905490D26D1002001E00028F4D197
:1006500000219AE7284D6600002801D0012100E022
:10066000002171185F00002A01D0012600E0002659
:10067000BE19224FA94210D8AE420ED8B14208D0BE
:1006800001256D05E94206D01946A80241401046F1
:100690007BE79C4201D0214677E70020394674E78A
:1006A00010B50C465C4005D50124E4076340FFF714
:1006B0000CFF10BDFFF778FE10BD30B40C465C4057
:1006C00004D50124E407634030BC6DE630BCFCE691
:1006D00070B50124E40761400D465D4002D4FFF788
:1006E00063FE70BD6340FFF7F0FE70BDFF070000C2
:1006F0000000F0FF0000F07F0000E0FF0000F87F46
:10070000F0B5F94D0C091E092C402E402F468BB038
:10071000A7437DD0B543FCD0002E7AD0002CFCD06E
:100720000D465D40ED0F2543AC1BFF25AD0464195C
:100730000894C502440DC9022143500DDC02044354
:100740000120C00701430443D2020191200C110C87
:1007500000958C46010423468B430A9161460904A7
:10076000E24D8A430991010A7D444919803909788B
:1007700005464D4301266D18F605751B6943C90CE6
:10078000640B891C4C436418B5012C1B250C2E04EA
:10079000B4434C434D43210C691889090591009DD0
:1007A000E90701D00121C90704912C460199670886
:1007B000CD072F434C08059DE10B4D432D0C2946D9
:1007C0006646754302950D4645432E46029D7D1BA8
:1007D000B44100950D465D4301942C0C2F040D4649
:1007E0005543AE462D0C3D43029503947546049C3B
:1007F0002D04641B049406D2029C039D641C0026F5
:1008000075410395029401AC70CC009F7D1B01E003
:100810003EE162E1B4410904009507910194059914
:10082000A4086143090C0C464443650BE7040C46DD
:1008300066467443A646640B3C4303950294744693
:10084000049DE4042C1B049406D2029C039D641CAA
:10085000002675410395029401AC70CC009F7D1B6E
:10086000B44101940C465C430095650FE7000C46CB
:100870005443A646640F3C43039502947446049D7A
:10088000E4002C1B049406D2029C039D641C0026E9
:1008900075410395029401AC70CC009F7D1BB4415F
:1008A000AE09AF06049DC900AD092F43049DA406FF
:1008B000AD060495079D344369180791059DE10B2A
:1008C0004D432D0C29466646754302950D4645431A
:1008D0002E46029D7D1BB44100950D465D4301945B
:1008E0002C0C2F040D465543AE462D0C3D4302956E
:1008F00003947546049C2D04641B049406D2029C48
:10090000039D641C002675410395029401AC70CCD4
:10091000009F7D1BB44101948C050694079C890AB5
:10092000611800950791019C0599A4086143090C81
:100930000D464543680BEF040D46644665436C0B5A
:100940003C43049FED047D1BAC4602D20025641C91
:100950006841009E019D371B85410846584301951B
:100960000C46460FC5005443600F28436546E4001B
:100970002C1B02D20025401C6E41019D3F1AB5413F
:100980002846BD09800628438446A009BF064E02BA
:100990000699A40676180743079D002068410A9926
:1009A000079019430020099B00906046FF191343EC
:1009B0004041E20F64003A43A4460446D71A8C41F2
:1009C000A04203D90120009020463A46C70F941850
:1009D00040416246D20F2243644664000494009C66
:1009E000BE466400D71AA446044602978C41774657
:1009F000002F01D1A04204D96046401C8446029ACF
:100A00002046C40FA64694184041049A0546D20FCA
:100A1000224364466400D31A8D417146002901D1F6
:100A2000A84202D928461A46641C10430122002815
:100A300000D0164361020020079B891904465C41DF
:100A40000223002C02DB491813466441089DCE0A9C
:100A50002D145D194B056705E10A2C050D19089940
:100A60003E43C9076940002B08D0934006D30022BB
:100A7000761C5141002B01D1760876001C4A002DCE
:100A800043DB154241D0AA433FD030460BB0F0BD06
:100A900006180D464D41174C7642AC411AD39518B5
:100AA0001C465C41134A6D42A24113D301225205F8
:100AB0004C00D4420AD15C00D4420BD04B4002D54A
:100AC00092021143E2E749004908DFE75940C90FA4
:100AD000C90718E000200849D8E7054801420DD1B0
:100AE0000342F7D0F2E700000000FF078445000052
:100AF0000000F07F0000E0FF0000F87F114859403F
:100B00000143C01241400020C0E70123089A9B0620
:100B10009A4205DC032252078918C90FC907B5E7B5
:100B2000052252078918074A1143D2125140ADE7F6
:100B300070B515461C4602460B4628462146FFF76F
:100B4000DFFD70BDFFFFFF7F1F22030C02D10F22CC
:100B5000000402D0030E03D004E0002001467047D9
:100B60000002083A030F01D10001121F830F01D1C7
:100B70008000921E002801DB4000521E1205511811
:100B80004205C012411810467047C10FC90700D076
:100B90004042012292071143D6E701218907D3E79A
:100BA000F0B58B4C0F09254689B0BD437BD01D099C
:100BB0002646AE43FAD00E465E402740F60F3E432F
:100BC000254071D024012142FBD0FF24AD19A4049B
:100BD0002D1B039501252D05DB02DB0AC9022B43E2
:100BE000C90A29431E010901040F130F05012143FE
:100BF0001701880B820391432D098C46A90B1E43D4
:100C00008A039543B30B9A0396433F09BA0B9403A7
:100C1000A74302962E467E430497B6464E19D7192F
:100C20000C460196544305977E43371B7646BF1BFF
:100C30003601B646BE0B361900967646BC04371907
:100C4000009C01D3641C00946400002F01D0012695
:100C50003443029E049F754366467E4304967600A5
:100C600034196E0034190094029C019E1C196643CD
:100C7000751BAE46069465464519059C05956C4363
:100C8000594375460891691A0191049E01465143E2
:100C9000A41B0491611A009C0791E10605D061092B
:100CA0000122114302E072E06EE06109089D002715
:100CB0002C0A2D066918049D7C412A0A2D06691804
:100CC000019D6241AC0DAD026D185441079A910D22
:100CD000920255196141029A644658435443069B57
:100CE000059A5A43121A131B9A0E9B015B187A41FC
:100CF000010B0005C3185141220A200644195A412C
:100D00009A4200D2491C01204002814203D315239C
:100D10000226F64302E014230326F6432020C51AD8
:100D2000A9401746AF40DA400A4320460399D8400D
:100D30000914731819055118039A3843D207514002
:100D4000AC4009D00122944006D30022401C5141FE
:100D5000002C01D1400840001E4A934212D30122C8
:100D600003989206904207DB0520400709181A48AD
:100D70000143C012414004E0032040070818C10F9E
:100D8000C907002009B0F0BD0020F107FAE70518F7
:100D90000C464C4111486D42A04115D394181A4697
:100DA0005A410E48644290410ED301204A0040054A
:100DB000824209D35A00824206D35940C90F084AD9
:100DC000C90700201143DDE700200649DAE70000EB
:100DD0000000FF07FE070000FFFFFF7F0000E0FFAD
:100DE0000000F07F0000F87F0121C90501234118B0
:100DF00042001B06D3185B0E0AD0C1100722D20690
:100E0000891840075242D14201D5520089187047D3
:100E1000090208D50146002A03D0C10FC9070020E6
:100E2000704710467047420202D0002002497047C6
:100E3000072109050143F4E70000F87FF0B5FF251D
:100E40002D04C609C209FF2704462E400137CB09ED
:100E50003E4348402A402B400746002A6BD0002BD7
:100E600069D0AA4267D0AB4265D0002800DA32468A
:100E70000125ED0529432C4309022002090AD21A53
:100E80004B0C7F24E31A434C000A7C44E35C7D2432
:100E90002404121914145B00A218884201D3521CB6
:100EA00000E0400049420C465C4324115C43DB01F6
:100EB0006415E318040A5C43C502200D0C46444344
:100EC0006419250A5D432303EC0C0D4665430003BA
:100ED0000019EB184C42A34201D35B18401CD40507
:100EE0002018002B07D05B00C91804D3401C002930
:100EF00001D1400840003F2189048A4209D3002AD9
:100F000008DC1106090F04D0032149074018C00F5F
:100F1000C007F0BD01224100120689187F22520647
:100F20009142F6D205214907C84201D59010F0BD83
:100F3000FF20C005F0BD002F00DA32461648AA4255
:100F400007D2AB4205D21902090E17D0F80FC0071D
:100F5000F0BDFF2563002D06AB42F9D84900A94238
:100F6000F6D8AB4201D1A942F2D0A94201D1002169
:100F700001E061004908D0050843F0BD1102090EE7
:100F8000FBD0FF200243D005F0BD0A4601461046C3
:100F900054E70000E23E00000000C07F0102C215DD
:100FA00004D00123DB071943002A0ADB9E239A1A87
:100FB00002D40846D0407047FF22410012069142F9
:100FC00001D900207047C017C04370471F22030C8F
:100FD00002D10F2200041CD0030E01D10002083AF6
:100FE000030F01D10001121F830F01D18000921E57
:100FF000002801DB4000521ED20551180212511880
:101000001922904004D3491C002801D14908490005
:1010100008467047C10FC90700D04042012292071D
:101020001143D3E701218907D0E710B500F06AF832
:10103000006810BD10B5044600F064F8046010BDEF
:1010400070B505464800440D124B0020002C0AD014
:10105000634008D09A4206DA6642B24203DD1205C6
:101060004019514170BD002C08D0002B09D0C90F88
:10107000C907002AF6DB084A114370BDC90FC9072A
:1010800070BD28460A03104302D00020034970BDFA
:10109000284670BDFF0700000000F07F0000F87FC9
:1010A00010B5FF231B0644009C421DD84C009C42F7
:1010B0001AD80346124A0B4307D4401A02D3EFF35F
:1010C000008010BDEFF3008010BD081A06D2EFF3C8
:1010D000008001219043C907084302E0EFF300803C
:1010E000904380F3008810BD0D231B041A4204D0E6
:1010F0001146002000F00AF810BD00F0E7F810BD1E
:10110000000000900048704738020020CA0211D544
:101110004A03520F002A04D0C803C043012188406B
:101120007047054AEFF3008108010009104380F37E
:10113000008870470020704700000030F8B5224C4E
:101140004E00069DA6420AD8A64201D1002806D12B
:101150005E00A64203D8A6420AD1002A08D00D2478
:10116000240425422CD029460020FFF7CFFFF8BDEC
:101170000C461C430CD4994202D0EFF30080F8BD1A
:10118000904202D0EFF30080F8BDEFF30080F8BD8D
:1011900009242407E5008B4206D0EFF30080A0432A
:1011A000591A06D2284304E0101A05D3EFF3008041
:1011B000A04380F30088F8BDEFF30080A043F1E77F
:1011C000009500F0B5F8F8BD0000E0FFF0B53D4B2C
:1011D00002460C461C400020002C63D03A4D8B4345
:1011E00066D000296BDB0B0D1D05A94301252D05DC
:1011F00029430124FD33E34001D392184941FF33D1
:1012000081339C468B02940D0121234389074C4274
:10121000920200271B198C105D1A04D42D1B02D4D6
:101220002B466500491992185B416408F4D15C1A99
:1012300008D40125ED07EE175519744102D42A464A
:101240002346491C94185B41012292071D46E61B68
:101250008D4106D4B61A854103D42B465500344639
:101260007F1924195B415208802AEFD1234300D013
:10127000022338460A22D04001D3012213438A05B3
:1012800010436246890A12058918002B09D00122F1
:10129000D34002D30022401C5141002B01D1400811
:1012A0004000F0BD0B03134307D0C90FC907F0BDC1
:1012B0000803104303D1002901DB1046F0BD0020D4
:1012C0002946F0BD0000F07F0000F87F10B502480D
:1012D00000F038F810BD00000000C07F00487047E3
:1012E000380200207546FFF7F9FFAE460500694653
:1012F0005346C008C000854618B020B5FEF746FF2B
:1013000060BC00274908B6460026C0C5C0C5C0C598
:10131000C0C5C0C5C0C5C0C5C0C5403D49008D469B
:1013200070470446C046C0462046FEF70EFF000048
:1013300010B500200249029A00F004F810BD000028
:101340000000F87F10B50C461107090F092904D0D9
:101350000A290AD008290CD104E011460820FFF719
:10136000D5FE06E0510606D501E0510601D5012063
:10137000C007214610BDD10607D501010909CC08D7
:101380004907000E0006044309E0410F2002490707
:10139000000A0143200E00061D22D14101430846E8
:1013A000E7E7000001491820ABBEFEE72600020077
:1013B000704770470021002200BF06E0002200E0D5
:1013C000521C034B9A42FBD3491C8142F6D370470F
:1013D000BC1100000021002200BF06E0002200E056
:1013E000521C102AFCD34B1CD9B28142F6D3704751
:1013F00010B5022000F010F8002806D0022000F0FE
:1014000005F800F089FE03F079F910BD0149486143
:10141000704700000004014001460020044A526960
:101420000A40002A01D0012000E00020704700009F
:1014300000040140002120498279002A35D00A4663
:10144000126803689A430B461A600A46526803689A
:101450009A430B465A60027951180A6803681A4386
:101460000A60154A926803689A43134B9A601A46B9
:10147000D26803689A43104BDA604279102A0CD183
:101480001A46926803681A430B4B9A601A46D26850
:1014900003681A43084BDA600DE007494279511896
:1014A0000A6803681A430A6005E0027951180A685D
:1014B00003689A430A60704700040140F0B50A4689
:1014C00000210023002400BF3DE001258D402B4674
:1014D00015681D402C469C4234D11579012D02D04F
:1014E0001579022D16D185684F000326BE40B543FD
:1014F000856055794E00B54086683543856085889E
:1015000001268E40B5438580858896798E40B6B297
:101510003543858005684F000326BE40B54305600E
:1015200015794E00B540066835430560C5684F0023
:101530000326BE40B543C560D5794E00B540C668A8
:101540003543C560491C1029BFD3F0BDF0B5002359
:1015500000244D07EE0E1546B5402B46CD10AE00CB
:1015600005462035AD594E07F70E0F26BE40B54350
:10157000CE10B60007462037BD51CD10AE003D4617
:10158000AD591D432C46CD10AD003E467451F0BD03
:101590000185704781617047002A01D0816100E0B8
:1015A000018570471CB50021684681710121C17118
:1015B000417101710803009069462F48FFF77EFFD3
:1015C000012109032C48FFF7E5FF002168468171DE
:1015D0000121C17141710221017108030090694626
:1015E0002548FFF76BFF00220D212348FFF7AEFFD0
:1015F0000021684681710121C1714171022101718F
:101600008803009069461C48FFF758FF00220F210D
:101610001948FFF79BFF0021684681710121C171C4
:101620004171022101714803009069461248FFF799
:1016300045FF00220E211048FFF788FF0021684671
:1016400081710121C171417100210171022000905D
:1016500069460920C006FFF731FF00216846817105
:101660000121C17141710171C803009069460920CF
:10167000C006FFF723FF1CBD000400480021044AF8
:10168000116800BF024A1268521A8242FAD37047A8
:101690001400002010B501F0DBFE01F061FF01F045
:1016A0005BFDFFF77FFF01F0C5FD00F019F810BDED
:1016B00000BFFEE710B500220121C9030920C006C2
:1016C000FFF76AFF3220FFF7D9FF0122D10309207B
:1016D000C006FFF761FF3220FFF7D0FF10BD704753
:1016E0000EB50220FFF792FE02200090002168460E
:1016F00001710821417101218171FFF79BFE0121D8
:10170000002001F019FE0521684601720021417296
:101710000121817202A800F001F80EBD002182783B
:10172000002A27D0184A03231B02D21803789B10E3
:101730009B00D15802789207D30EFF229A400B46A5
:101740009343194642789207120E03789B07DB0EEB
:101750009A4011430C4A03231B02D21803789B10B2
:101760009B00D1500278D306DB0E01229A40064B33
:101770001A6007E00278D306DB0E01229A40024B82
:1017800080331A607047000000E100E010B50028C7
:1017900019DA1A4A03071B0F083B9B089B00D25813
:1017A0008307DC0EFF23A3409A438B071B0E84079D
:1017B000E40EA3401A43114B0407240F083CA4086D
:1017C000A4001A5118E00E4A03231B02D218830802
:1017D0009B00D2588307DC0EFF23A3409A438B075C
:1017E0001B0E8407E40EA3401A43054B0324240276
:1017F0001B198408A4001A5110BD00001CED00E064
:1018000000E100E010B50D4A0A210D4803F04AF846
:10181000002805D00122D1030920C006FFF7BCFE35
:1018200000BF02F045FF0028FBD0002003F034F891
:10183000FFF740FF034802F009FF10BDD800002069
:10184000B9000020983A000010B5002402F02AFFE9
:1018500002281FD1002003F019F816494869FFF744
:10186000C3FA154A03C213498869FFF7BDFA134A40
:1018700003C200BF05E01248005D12490855601C14
:10188000C4B20C48408AA042F5DC0F4802F0DEFEEC
:10189000FFF710FF02F006FF032803D002F002FF5B
:1018A000042805D1002002F0F1FF074802F0CEFE27
:1018B00010BD0000DC010020C8000020D000002086
:1018C000DC000020F8010020983A000010B56223E7
:1018D000024A0721022001F089FB10BD1D000020F3
:1018E00070B504460225002C01D1032500E0022535
:1018F0002A460621022001F0E9FB002801D0012040
:1019000070BD0020FCE70000F0B593B00C21012071
:1019100000F050FC129000F0B1F9044600F053F9C9
:10192000119000F043F9109000F038F905460020BE
:101930000C90072D00D1334E082D00D1324E092DC9
:1019400000D1324EA000FFF765FB0B901299C90041
:10195000A200891A1C31119A12018818FFF75AFB4C
:101960000A900B99FFF76AFA0F900F98FFF73CFA6D
:101970000991089001F0C6FE0B910A90FEF7D6FC83
:101980000E901098001DFFF745FB0D903046FFF7B5
:1019900041FB611E02228A400B901046FFF73AFB82
:1019A0000A900B99FFF74AFA0C900C98FFF71CFA73
:1019B000079106900D990E9803F0DAF80190FFF761
:1019C00013FA0022124B03910290FEF769FE059173
:1019D0000490079B069AFFF7E3F800220D4B09914C
:1019E0000890FFF7DDF80B910A90FEF79FFC074681
:1019F0000949384603F04CF80B90FFF7CFFA13B0C3
:101A0000F0BD000048E8010090D0030020A10700CD
:101A10000040344000408F400000A04070B50026D8
:101A2000002400251CE01F226C21002001F04EFB49
:101A30006C21002000F0BEFB002800D170BD701C9E
:101A4000C6B2002407E0002501E0681C85B2642DC1
:101A5000FBDB601C84B24B2000018442F3DB00BF3F
:101A6000032EE0DB0120E9E770B500240025042007
:101A700000F088FB0546102005432946042001F0AC
:101A800003FB4548816A0A208847EF200540294624
:101A9000042001F0F9FA002000F074FB044664060B
:101AA000640E2146002001F0EFFA3B48816A0A20CB
:101AB0008847802004432146002001F0E5FA36489B
:101AC000816A0A2088476406640E2146002001F0DE
:101AD000DBFA3148816A0A2088470021022001F0A0
:101AE000D3FA002801D0012070BD2B48816A0A205A
:101AF00088470121022001F0C7FA002801D0012007
:101B0000F2E72548416A012088471B21032001F0A4
:101B1000BBFA002801D00120E6E77621042001F07D
:101B2000B3FA002801D00120DEE74022262103205D
:101B300001F0CCFA002801D00120D5E71649486809
:101B400080471548416A012088470221084601F074
:101B50009BFA002801D00120C6E70F48816A0A20BD
:101B600088470321022001F08FFA002801D00120CC
:101B7000BAE70948416A012088470421022001F0A0
:101B800083FA002801D00120AEE70348816A0A20C9
:101B900088470020A8E700008000002010B50D2134
:101BA000032000F007FB0446201110BD70B500248F
:101BB00000250D21032000F0FDFA05460E202840E7
:101BC0004410204670BD10B50E21032000F0F2FA3B
:101BD000044608202040C01010BD10B56C21002024
:101BE00000F0E8FA0446204610BD10B52E21012071
:101BF00000F0E0FA044680202040C01110BD000033
:101C0000FEB5FFF7CBFF0746062F06D0072F06D0FD
:101C1000082F06D0092F08D105E0092405E0062485
:101C200003E0032401E0002400BF00BF00F02EF811
:101C3000029000F09DF80F49029802F06FFF0DD25C
:101C40002046FFF7E7F90C490190029802F0E8FFFF
:101C50000090019902F0E4FF054609E07E21012091
:101C600000F0A8FA0646F01FF938FFF7D3F9054649
:101C70002846FEBD0000C0400000E24210B50E2123
:101C8000032000F097FA0446201110BDF0B597B07C
:101C9000002015907421012000F08CFA0746752170
:101CA000012000F087FA14907621012000F082FADA
:101CB00013901398000414990902084338430F90B5
:101CC0007121022000F076FA12907221022000F0B9
:101CD00071FA11907321022000F06CFA10901098A4
:101CE00000041199090208431299084304467C2113
:101CF000012000F05FFAF021084000110E90002C46
:101D000000D101242046FEF748FF079106900E9867
:101D1000FEF743FF02460B4601910090002001218F
:101D2000890701F099FF039102900F98FEF735FFA4
:101D30000546039B029AFEF7E3FC05910490079B7E
:101D4000069AFEF7DDFC0991089001F0E9FE0022F9
:101D5000064B0B910A90FEF723FF0D910C90FEF7B6
:101D6000E5FA1590159817B0F0BD0000000024406A
:101D7000F0B58DB000200C907421012000F01AFA0B
:101D800007467521012000F015FA0B9076210120FD
:101D900000F010FA0A900A9800040B99090208430F
:101DA000384306907121022000F004FA0990722154
:101DB000022000F0FFF908907321022000F0FAF9E8
:101DC00007900798000408990902084309990843F5
:101DD0000446002C00D1012421460698FEF7F6F9AE
:101DE0000190FEF7DAFE0391029001F099FE05469C
:101DF0000022054BFEF7D4FE05910490FEF796FAFB
:101E00000C900C980DB0F0BD0000244010B50122DC
:101E10000621002001F05AF9002801D0012010BD50
:101E200018221F21002001F051F9002801D00120C3
:101E3000F5E715222021002001F048F9002801D003
:101E40000120ECE708222321002001F03FF90028BF
:101E500001D00120E3E708222521002001F036F916
:101E6000002801D00120DAE704222721002001F018
:101E70002DF9002801D00120D1E7142228210020CB
:101E800001F024F9002801D00120C8E733222D21D8
:101E9000002001F01BF9002801D00120BFE7332208
:101EA0002E21002001F012F9002801D00120B6E710
:101EB00033222F21002001F009F9002801D0012050
:101EC000ADE733223021002001F000F9002801D0D5
:101ED0000120A4E733223121002001F0F7F8002887
:101EE00001D001209BE760223221002001F0EEF8B2
:101EF000002801D0012092E707223321002001F0C1
:101F0000E5F8002801D0012089E72C223E2100209D
:101F100001F0DCF8002801D0012080E7FF223C21FD
:101F2000002001F0D3F8002801D0012077E75022EB
:101F30004021002001F0CAF8002801D001206EE7FE
:101F4000BF224C21002001F0C1F8002801D001205F
:101F500065E70E224D21002001F0B8F8002801D0DD
:101F600001205CE702225521002001F0AFF8002893
:101F700001D0012053E744220E21012001F0A6F8F0
:101F8000002801D001204AE707220F21012001F09B
:101F90009DF8002801D0012041E700221E210120E8
:101FA00001F094F8002801D0012038E7A122112186
:101FB000012001F08BF8002801D001202FE7382202
:101FC0001521012001F082F8002801D0012026E728
:101FD0000C222F21012001F079F8002801D00120E6
:101FE0001DE702223821012001F070F8002801D0FD
:101FF000012014E733225721012001F067F800285F
:1020000001D001200BE733225821012001F05EF8B6
:10201000002801D0012002E733225921012001F0DC
:1020200055F8002801D00120F9E633225A21012079
:1020300001F04CF8002801D00120F0E633225B21AA
:10204000012001F043F8002801D00120E7E6332207
:102050005C21012001F03AF8002801D00120DEE6E1
:1020600033225D21012001F031F8002801D0012048
:10207000D5E633225E21012001F028F8002801D0A6
:102080000120CCE633225F21012001F01FF8002857
:1020900001D00120C3E633226021012001F016F8AF
:1020A000002801D00120BAE611226121012001F0AF
:1020B0000DF8002801D00120B1E6262206210320D8
:1020C00001F004F8002801D00120A8E680221021A8
:1020D000032000F0FBFF002801D001209FE60D2225
:1020E0001121032000F0F2FF002801D0012096E624
:1020F00016221221032000F0E9FF002801D0012060
:102100008DE6FF221821032000F0E0FF002801D017
:10211000012084E6002082E6012001490870704712
:102120001C00002070B505460C46002C03D1284643
:1021300000F07CF870BD012C03D1284600F059F85E
:10214000F8E70120F6E70000F8B505460E46174609
:102150006806000E00900A49086A804708488169AD
:1021600000988847002405E00548816900208847D9
:102170003055641CBC42F7DB0149C8698047F8BD93
:102180008000002070B5044600250949086A804790
:102190006206100E064A9169884705488169002049
:1021A000884705460249C8698047284670BD000037
:1021B0008000002070B505460C46284600F0DAFE87
:1021C000002801D0012070BD2046FFF7DBFFFAE7B1
:1021D00070B5054600247D210120FFF7EBFF044682
:1021E000224629460120FFF7AFFFFFF717FC2046E4
:1021F00070BD70B505461026002411E00A2C07D2E8
:1022000020467630C1B20220FFF7D4FF285506E001
:1022100020466C30C1B20020FFF7CCFF2855641C6B
:10222000B442EBD3FFF7FAFBF0B270BD70B50546D0
:102230000826002407E020467630C1B20220FFF7CE
:10224000B9FF2855641CB442F5D3FFF7E7FBF0B2A1
:1022500070BD10B500240020FFF794FF04468020D5
:1022600004432146002000F00FFF0020FFF78AFF03
:1022700004466406640E2146002000F005FF00209D
:1022800010BD70B505460C46402C01D9012070BD2B
:10229000E2B20C21012000F019FF002801D001203A
:1022A000F5E70521022000F0EFFE002801D0012013
:1022B000EDE722462946012000F078FE0020E6E7FF
:1022C00070B5044635210020FFF774FF0546284607
:1022D000F82108402043064632463521002000F010
:1022E000F5FE002801D0012070BD0020FCE770B58C
:1022F000044643210020FFF75DFF05462846F021F4
:102300000840E1000843C6B232464321002000F0F5
:10231000DDFE002801D0012070BD0020FCE770B573
:1023200004464B210020FFF745FF05462846F021D3
:102330000840E1000843C6B232464B21002000F0BD
:10234000C5FE002801D0012070BD0020FCE710B5BB
:10235000044622466321012000F0B8FE10BD70B58E
:1023600004460D210320FFF725FF05462807000F2F
:1023700021010843C6B232460D21032000F0A6FE1B
:10238000002801D0012070BD0020FCE770B5054693
:1023900000240D210320FFF70DFF04460E212046E7
:1023A0008843044668002043C4B222460D2103201E
:1023B00000F08CFE002801D0012070BD0020FCE759
:1023C00070B504460E210320FFF7F4FE05462846AB
:1023D000F7210840E1000843C6B232460E2103202F
:1023E00000F074FE002801D0012070BD0020FCE741
:1023F000F0B585B00446002002900025002601902B
:10240000FE4884422DD3FE4884422AD80F224A2116
:10241000002000F05BFE002802D0012005B0F0BDD6
:10242000012001907D21C9002046FDF7CFFE192132
:1024300048430290F3490298FDF7C8FE0546284636
:1024400014380090EF490298FDF7C0FE0E46B00028
:102450007D21C900FDF7BAFE0746002000F001FC0F
:10246000EAE2E74884422CD3E748844229D82F2265
:102470004A21002000F02AFE002801D00120CDE7EB
:10248000012001907D21C9002046FDF79FFE192102
:1024900048430290DB490298FDF798FE054628461E
:1024A00014380090D7490298FDF790FE0E46B00010
:1024B0007D21C900FDF78AFE0746002000F0D1FB10
:1024C000BAE2D14884422CD3D048844229D84F2242
:1024D0004A21002000F0FAFD002801D001209DE7EC
:1024E000012001907D21C9002046FDF76FFE1921D2
:1024F00048430290C3490298FDF768FE0546284606
:1025000014380090BF490298FDF760FE0E46B000F7
:102510007D21C900FDF75AFE0746002000F0A1FB0F
:102520008AE2BA4884422CD9B948844229D86F2219
:102530004A21002000F0CAFD002801D001206DE7EB
:10254000012001907D21C9002046FDF73FFE1921A1
:1025500048430290AB490298FDF738FE05462846ED
:1025600014380090A7490298FDF730FE0E46B000DF
:102570007D21C900FDF72AFE0746002000F071FB0F
:102580005AE2A34884422CD9A248844229D88F22F7
:102590004A21002000F09AFD002801D001203DE7EB
:1025A000012001907D21C9002046FDF70FFE192171
:1025B0004843029093490298FDF708FE05462846D5
:1025C000143800908F490298FDF700FE0E46B000C7
:1025D0007D21C900FDF7FAFD0746002000F041FB10
:1025E0002AE28C4884422CD98B48844229D8AF22D5
:1025F0004A21002000F06AFD002801D001200DE7EB
:10260000012001907D21C9002046FDF7DFFD192141
:10261000484302907B490298FDF7D8FD05462846BD
:102620001438009077490298FDF7D0FD0E46B000AF
:102630007D21C900FDF7CAFD0746002000F011FB0F
:10264000FAE1754884422CD97448844229D8CF22B3
:102650004A21002000F03AFD002801D00120DDE6EB
:10266000012001907D21C9002046FDF7AFFD192111
:102670004843029063490298FDF7A8FD05462846A5
:10268000143800905F490298FDF7A0FD0E46B00097
:102690007D21C900FDF79AFD0746002000F0E1FA10
:1026A000CAE15E4884422CD95D48844229D8EF2291
:1026B0004A21002000F00AFD002801D00120ADE6EB
:1026C000012001907D21C9002046FDF77FFD1921E1
:1026D000484302904B490298FDF778FD054628468D
:1026E0001438009047490298FDF770FD0E46B0007F
:1026F0007D21C900FDF76AFD0746002000F0B1FA10
:102700009AE1484884422BD34748844228D80F2274
:102710004A21002000F0DAFC002801D001207DE6EB
:10272000002001907D21C9002046FDF74FFD7D214D
:10273000484302903D490298FDF748FD054628466A
:102740001438009039490298FDF740FD0E46F0001C
:102750003749FDF73BFD0746012000F082FA6BE1A7
:10276000314884422BD33348844228D82F224A212F
:10277000002000F0ABFC002801D001204EE6002034
:1027800001907D21C9002046FDF720FD7D214843B1
:10279000029026490298FDF719FD0546284614388F
:1027A000009022490298FDF711FD0E46F0002049E5
:1027B000FDF70CFD0746012000F053FA3CE11D48EF
:1027C00084424CD91C48844249D84F224A210020D7
:1027D00000F07CFC002801D001201FE600200190C1
:1027E0007D21C9002046FDF7F1FC7D214843029080
:1027F0000E490298FDF7EAFC05461FE0002A751510
:1028000080C00D16A086010040A2F21640CF23180A
:102810008047A119000B6B1BC019811DC073E31FFA
:102820000046C3230054EA2A00811B2C40420F00BB
:10283000102700008044E52D809E4730284614383C
:102840000090B9490298FDF7C1FC0E46F000B74967
:10285000FDF7BCFC0746012000F003FAECE0B448A9
:1028600084422BD9B348844228D86F224A210020C1
:1028700000F02CFC002801D00120CFE500200190C1
:102880007D21C9002046FDF7A1FC7D21484302902F
:10289000A5490298FDF79AFC054628461438009091
:1028A000A1490298FDF792FC0E46F0009F49FDF702
:1028B0008DFC0746012000F0D4F9BDE09D4884421C
:1028C0002BD99D48844228D88F224A21002000F02D
:1028D000FDFB002801D00120A0E5002001907D2112
:1028E000C9002046FDF772FC7D21484302908E49C5
:1028F0000298FDF76BFC05462846143800908A497B
:102900000298FDF763FC0E46F0008849FDF75EFC77
:102910000746012000F0A5F98EE0874884422BD9B4
:102920008648844228D8AF224A21002000F0CEFBFE
:10293000002801D0012071E5002001907D21C9000F
:102940002046FDF743FC7D214843029076490298DA
:10295000FDF73CFC05462846143800907249029861
:10296000FDF734FC0E46F0007049FDF72FFC0746DA
:10297000012000F076F95FE0704884422BD970485E
:10298000844228D8CF224A21002000F09FFB002853
:1029900001D0012042E5002001907D21C9002046A0
:1029A000FDF714FC7D21484302905F490298FDF732
:1029B0000DFC05462846143800905B490298FDF747
:1029C00005FC0E46F0005949FDF700FC07460120C2
:1029D00000F047F930E05A4884422BD959488442E4
:1029E00028D8EF224A21002000F070FB002801D0F7
:1029F000012013E5002001907D21C9002046FDF74C
:102A0000E5FB7D214843029047490298FDF7DEFB34
:102A1000054628461438009043490298FDF7D6FB36
:102A20000E46F0004149FDF7D1FB0746012000F0BA
:102A300018F901E00120F1E44348844209D34348F6
:102A4000844206D8FF2F04DA0098401E0090FF371A
:102A5000913700984206520E1521032000F036FBF4
:102A6000002801D00120D9E4FAB21621032000F099
:102A70002DFB002801D00120D0E43805020F1721DA
:102A8000032000F023FB002801D00120C6E4182118
:102A90000320FFF78FFB04900621049888430490DD
:102AA00001988000082108430199490008430499CE
:102AB0000843C0B2049018210320049A00F006FBDA
:102AC000002801D00120A9E4E0B2039009210320ED
:102AD000039A00F0FBFA002801D001209EE42004B4
:102AE000000E03900A210320039A00F0EFFA002859
:102AF00001D0012092E42002000E03900B2103205C
:102B0000039A00F0E3FA002801D0012086E4200EA9
:102B100003900C210320039A00F0D8FA002801D07A
:102B200001207BE4002079E440420F0010270000E0
:102B3000809E4730008F42330016D6368033023BEA
:102B400080E7C63F008C8647002A75150046C323E0
:102B500070B504460025082C13DA65210020FFF724
:102B600029FB05460120A0402843C5B22A4665211D
:102B7000002000F0ABFA002801D0012070BD002039
:102B8000FCE766210020FFF715FB054621460839C2
:102B9000012088402843C5B22A466621002000F063
:102BA00095FA002801D00120E8E70020E6E770B59B
:102BB00004460E460025082C1BDA67210020FFF78B
:102BC000F9FA0546002E05D10120A040294681438F
:102BD0000D4603E00120A0402843C5B22A466721E4
:102BE000002000F073FA002801D0012070BD002001
:102BF000FCE768210020FFF7DDFA0546002E07D12B
:102C00002146083901208840294681430D4605E0C8
:102C100021460839012088402843C5B22A46682148
:102C2000002000F053FA002801D00120DEE7002048
:102C3000DCE770B5044612210320FFF7BBFA054616
:102C40002846F7210840E1000843C6B23246122167
:102C5000032000F03BFA002801D0012070BD0020C5
:102C6000FCE770B50546002445210020FFF7A2FAD5
:102C70000446A408A400002D02D10220044301E070
:102C800001200443E2B24521002000F01FFA002891
:102C900001D0012070BD0020FCE710B5044621469C
:102CA000022000F0F1F9002801D0012010BD002021
:102CB000FCE770B5054606210320FFF77BFA0446C2
:102CC000A408A400204628430446224606210320E7
:102CD00000F0FCF9002801D0012070BD0020FCE7C5
:102CE00070B50446072C01D30C2C01D9012070BD0E
:102CF0000E210320FFF75EFA06463007000F210180
:102D00000843C5B22A460E21032000F0DFF900284F
:102D100001D00120EBE70020E9E7000070B5044690
:102D2000002500260D48844200D90446E5B220045F
:102D3000060E2A460721032000F0C8F9002801D01A
:102D4000012070BD32460821032000F0BFF90028A1
:102D500001D00120F5E70020F3E70000FFFF0000AD
:102D600070B5054606210320FFF724FA0446042126
:102D7000204688430446A8002043C4B222460621C8
:102D8000032000F0A3F9002801D0012070BD00202D
:102D9000FCE710B50446002C1AD1FFF7D8FA00283A
:102DA00001D0012010BD0020FFF7B9FA002801D0A2
:102DB0000120F7E70020FFF79AFA002801D0012050
:102DC000F0E70020FFF77CFA002873D00120E9E744
:102DD000012C1BD10020FFF7BAFA002801D00120F6
:102DE000E0E70020FFF79BFA002801D00120D9E797
:102DF0000020FFF77CFA002801D00120D2E7032051
:102E0000FFF75EFA0028E0D00120CBE7022C1BD1AF
:102E10000020FFF79CFA002801D00120C2E7002023
:102E2000FFF77DFA002801D00120BBE70120FFF762
:102E30005EFA002801D00120B4E70320FFF740FA32
:102E400000286AD00120ADE7022C1EDD0B2C1CDA15
:102E5000E11EC8B2FFF77BFA002801D00120A1E7EC
:102E60000120FFF75CFA002801D001209AE7012039
:102E7000FFF73DFA002801D0012093E70320FFF778
:102E80001FFA002849D001208CE70A2C21DD1A2CDA
:102E90001FDAA11D0901C91DC8B2FFF758FA0028A1
:102EA00001D001207EE70120FFF739FA002802D087
:102EB000012077E731E00120FFF719FA002801D05F
:102EC00001206FE70320FFF7FBF9002825D0012040
:102ED00068E7192C1FDD1E2C1DDAF720FFF737FAE3
:102EE000002801D001205DE70120FFF718FA002833
:102EF00001D0012056E70120FFF7F9F9002801D0A1
:102F000001204FE721461639C8B2FFF7D9F900284A
:102F100003D0012046E7012044E7002042E770B5D6
:102F200004464A210020FFF745F90646052C0FD13B
:102F30003046EF210840054610352A464A21002038
:102F400000F0C4F8002801D0012070BD0020FCE78B
:102F5000062C0DD1EF20354605402A464A21002097
:102F600000F0B4F8002801D00120EEE70020ECE7E3
:102F70000120EAE770B50446002500260020FFF78F
:102F800001F906463046FC21084020430546294603
:102F9000002000F079F80020FFF7F4F88007800F98
:102FA000A04201D1002070BD0120FCE7F8B5054624
:102FB0000E461746680001210843C0B200900A4936
:102FC000086A80470848816900988847002404E01F
:102FD000305D054A91698847641CBC42F8DB0249B0
:102FE000C8698047F8BD000080000020FFB5C1B06F
:102FF0000E4617461D464198FFF7BCFF002802D039
:10300000012045B0F0BD70000121084300901D492A
:10301000086A8047009AD0B21A4A9169884700240A
:1030200005E0385D174A91698847601CC4B2AC421C
:10303000F7DB1449C86980471249086A804772065D
:10304000100E104A91698847002407E00D488169F5
:103050000020884701A90855601CC4B2AC42F5DBCA
:103060000849C8698047002408E001A8005D395D6F
:10307000884201D00120C4E7601CC4B2AC42F4DB3A
:103080000020BEE780000020F8B505460C4600266B
:1030900068000121084307460B49086A8047F8B2D7
:1030A000094A916988470848816920468847064946
:1030B000C86980472846FFF765F80646A64201D151
:1030C0000020F8BD0120FCE78000002070B5064616
:1030D0000C4615463046FFF74DFF002801D0012071
:1030E00070BD29462046FFF7CFFF002801D0012000
:1030F000F6E70020F4E77047002905D0054A526939
:103100000243044B5A6104E0024A52698243014B74
:103110005A61704700100240002905D0054AD26963
:103120000243044BDA6104E0024AD2698243014B54
:10313000DA61704700100240002905D0054A926903
:103140000243044B9A6104E0024A92698243014BB4
:103150009A6170470010024010B5012127204004F9
:10316000FFF7CAFF01210448FFF7D6FF01210348FA
:10317000FFF7E2FF10BD000000400010014000001A
:1031800010B502460021002300205111002902D170
:103190000C4C23680BE0012902D10A4C236A06E09B
:1031A000022902D1074C636A01E0064C636BD10629
:1031B000C90E01248C401C40002C01D0012000E0ED
:1031C000002010BD00100240002807D00749096800
:1031D000012212061143054A116006E003490968FD
:1031E000012212069143014A11607047001002400B
:1031F000074A52687B23DB039A43054B5A601A4601
:10320000526803460B431A43014B5A607047000053
:103210000010024001460020044A506880088000E7
:1032200002460A431046014A5060704700100240AF
:103230007047000000B585B0002168460180FF217D
:103240000531418007210902818000210181C1806F
:10325000012149024181102181810021C181072181
:1032600001826946064800F025F801210903044857
:1032700000F052F80121024800F004F805B000BD4A
:1032800000380040002904D0028840231A430280FD
:1032900003E00288014B1A4002807047BFFF000024
:1032A0000246002013890B40002B01D0012000E0D2
:1032B0000020704710B500220288C1239B011A40EC
:1032C0000B88CC892343CC8823430C8923434C8926
:1032D00023438C8923431A4302808288084B1A4077
:1032E0008B881A4382800B8A03820288054B1A401E
:1032F0004B881A430280838B034C2340838310BD89
:10330000FFF00000FBFF0000FFF700000146002275
:103310000A460C32107870478288034B1A4082802C
:1033200082880A4382807047FFEF00000022024635
:103330000C3211707047704730B500228B071C0F9C
:103340000F23A3401A460B4B8C10A4001B59934328
:10335000084C8D10AD00635123468C10A4001B59FE
:103360008C07250F0446AC402343024C8D10AD0062
:10337000635130BD080001400CB500200190009061
:10338000314800680121090408432F49086000BF43
:103390002D48006801214904084000900198401C14
:1033A00001900098002804D1052109030198884262
:1033B000EED125480068012149040840002802D0C8
:1033C0000120009001E0002000900098012839D1F0
:1033D00011201E4908601C4840681B494860084687
:1033E00040684860084640687F21C9038843164901
:1033F00048600846406811210904084312494860A2
:10340000084600680121090608430F49086000BF0B
:103410000D4800680121490608400028F8D00A48F4
:1034200040688008800008494860084640680221DA
:1034300008430549486000BF034840680C21084024
:103440000828F9D10CBD0000001002400020024005
:1034500010B50020FFF7B8FE0521C9040020FFF7D2
:10346000C7FE0120FFF7B0FE00BF1920FFF788FE5E
:103470000028FAD00220FFF7CDFE10BD05480068F5
:10348000401C0449086004480068401C0249086068
:1034900070470000140000201800002010B51B48E1
:1034A0000068012108431949086008464068184926
:1034B0000840164948600846006816490840134904
:1034C0000860084600680121890488430F490860A4
:1034D000084640683F21090488430C494860084673
:1034E000C06A00090001C8620846006BFF21543120
:1034F0008843064908630846406B4008400048631B
:1035000000208860FFF738FF10BD00000010024067
:103510000CB8FF08FFFFF6FE10B50121044800F0CB
:103520000CF8002803D00121014800F003F810BD79
:1035300000200040CA430282704730B50246002096
:1035400000230024158A0D402B4695890D402C46FA
:10355000002B03D0002C01D0012000E0002030BD62
:1035600010B57D21C9000E480068FCF72FFE044607
:10357000601E0C49884201D901200CE0601E0A49F6
:1035800048610321081FFEF701F900200649886100
:10359000072008610020002801D000BFFEE710BD11
:1035A00000000020FFFFFF0000E000E0704730B4A3
:1035B0007446641E2578641CAB4204D3635D5B00D3
:1035C000E31830BC18471D46F8E700004900CA025E
:1035D0000243100000D004204A0D01D00122104304
:1035E000044A490D914201D102210843012800D12A
:1035F00005207047FF070000F8B504464F1EC800BD
:103600000838211815461E46086849683A460623B8
:103610009A4310D02A463346FDF7C2FA3A46D20002
:10362000083AA3181A687F1E5B68FDF739F806226E
:103630003B469343EED1022F23D0042F11D0062F07
:103640002FD12A463346FDF7ABFAE36AA26AFDF7AB
:1036500027F82A463346FDF7A3FA636A226AFDF784
:103660001FF82A463346FDF79BFAE369A269FDF786
:1036700017F82A463346FDF793FA63692269FDF786
:103680000FF82A463346FDF78BFAE368A268FDF788
:1036900007F82A463346FDF783FA63682268FCF789
:1036A000FFFFF8BD002210B5134610460149FDF793
:1036B00027F810BD0000F03F10B50122FDF7C0FC57
:1036C00010BD10B5FCF7ECFF10BD002210B513467D
:1036D00010461146FDF714F810BD000010B5072183
:1036E000024A00200907FDF7ABFC10BD01030000F2
:1036F000034A10B500201107FDF7A2FC10BD000021
:1037000001FDFFFFF8B54A002B4B520DD6182B4A8E
:103710000C460546142E2BDA002E12DA284BFCF745
:10372000BFFF0022134601F07FF940D2002C03DADC
:103730000124E40700253AE02046284337D0214CF5
:1037400014E0214F0B46F7403B402B4331D01C4B3C
:10375000FCF7A6FF0022134601F066F927D2002CE1
:1037600003DD01200005F0400419BC4300251EE0E4
:10377000332E1EDC33460027143BFF43DF40384224
:1037800017D00F4BFCF7A4FF0022134601F04CF9B1
:103790000DD2002C0ADD142E0CD03420811B012008
:1037A00088404019A84200D2641C0546BD4321460A
:1037B0002846F8BD641CF9E701FCFFFF9C750088F2
:1037C0003CE4377E0000F03FFFFF0F00F0B5C54A34
:1037D00000248FB091420ADA4B005B08934206D86E
:1037E00001254A006D05EA4205D1002803D0FFF704
:1037F00063FF0FB0F0BD01252D05A94219DA03437F
:1038000008D0002910DA0120FDF714FCFFF75DFF56
:103810000FB0F0BD0220FDF70DFCFFF743FF0122C2
:10382000D20751400FB0F0BD3524E4433622FDF7F6
:1038300007FC0A15AC4B1219D4180A03120BAB493A
:10384000AB4B56182E403146594011430192321568
:1038500012190B920022FCF730FF019A0446921CC9
:103860001003A44E000B0D467E44032860D2204670
:103870007368326801F0A6F81CD10B98002815D0A7
:10388000FDF783F904460E469B4A9C4BFDF788F9E9
:103890000D4607469A4A9B4B20463146FDF780F974
:1038A0003A462B46FCF7FCFE0FB0F0BD716830685D
:1038B0000FB0F0BD944A954B20462946FDF770F9AC
:1038C0000022934BFCF704FF06460F4622462B4688
:1038D00010461946FDF764F932463B46FDF760F99C
:1038E00006460B980F4600281DD0FDF74EF9824A78
:1038F000824B05910490FDF753F932463B46FCF7A5
:10390000E7FE22462B46FCF7D8FE04460D467C4ACD
:103910007C4B05990498FDF743F922462B46FCF7AA
:10392000CCFE0FB0F0BD0B46324620462946C4E01F
:10393000012300229B072046FCF7B2FE02460B46FD
:1039400020462946FCF7DCFE06460F460B98FDF79D
:103950001CF932463B460591049010461946FDF786
:103960001FF909910C906B490198099B421800922C
:103970000C9A19461046FDF713F9024607910A9072
:10398000654901980B1A6548019303217844079B08
:10399000FFF732FE079B0A9AFDF702F90E905F4887
:1039A0000D9104217844079B0A9AFFF725FE099B95
:1039B0000C9AFDF7F5F8019B009A1A4300920D9BB3
:1039C0000E9AFCF76DFE009A01910C90002A4DDDD5
:1039D0000022D24320462946FDF732FB22462B46E1
:1039E000FDF7DEF800910A900B9800282BD0424A90
:1039F000424B05990498FDF7D3F807910E90019B6F
:103A00000C9A00990A98FCF74BFE32463B46FDF7AC
:103A1000C7F8079B0E9AFCF743FE009B0A9AFCF737
:103A200057FE22462B46FCF748FE04460D46344A14
:103A3000344B05990498FDF7B3F822462B46FCF762
:103A40003CFE0FB0F0BD019B0C9A0A98FCF728FED3
:103A500032463B46FDF7A4F8009B0A9AFCF738FE75
:103A600022462B46FCF734FE0FB0F0BD0B98002821
:103A700027D0214A214B05990498FDF791F8079129
:103A8000009020462946019B0C9AFCF716FE324610
:103A90003B46FDF785F8079B009AFCF70EFE224691
:103AA0002B46FCF70AFE04460D46154A154B0599B0
:103AB0000498FDF775F822462B46FCF7FEFD0FB083
:103AC000F0BD0B46204629460C9AFCF7F6FD32461F
:103AD0003B46FDF765F822462B46FCF7F9FD0FB093
:103AE000F0BD00000000F07F01FCFFFF645F0900F3
:103AF0000000F03F04160000763C7935EF39EA3DCE
:103B00000000E0FE422EE63F555555555555D53F30
:103B10000000E03F86EBF9FF51B80600A814000052
:103B2000F8B504463048002581420ADA4A005208B6
:103B3000824206D8012348005B05D84205D1002CFB
:103B400003D02046FFF7B8FDF8BD01231B059942BD
:103B500019DA224307D000290EDA0120FDF76AFAAC
:103B6000FFF7B3FDF8BD0220FDF764FAFFF79AFDF9
:103B70000122D2075140F8BD3525ED4336222046BB
:103B8000FDF75EFA044608154019184A0D0380181F
:103B9000C20F17492D0B891A09050D438018FCF730
:103BA000F4FF06460F4620462946FFF70FFE114A4E
:103BB000114BFCF7F5FF04460D46104A104B3046FA
:103BC0003946FCF7EDFF22462B46FCF769FD0D4612
:103BD00004460C4A0C4B30463946FCF7E1FF2246BE
:103BE0002B46FCF75DFDF8BD0000F07F01FCFFFFF8
:103BF000FF0300000EE526157BCBDB3F362BF111D2
:103C0000F3FE593D00609F501344D33F0024FDF75D
:103C100041FD0120FDF7CEFB00F054FD0446002CD1
:103C200001D000BFFEE700F0D3FD0948007801286D
:103C300002D0084800F00AFD08E005480078012895
:103C400002D1FDF7DFFD01E0FDF7FEFDF5E7000025
:103C5000B8000020983A0000F0B51FB494B0844634
:103C60000C460246179F16980290490078006300A0
:103C7000490840080493002A01D0012500E00025EE
:103C8000FE4A5D19AD1853109D422CD37D00029E53
:103C90000195002E00D00126AE19F94BB5189D42B2
:103CA00021D3029B0246F74D1A430BD02A46944279
:103CB00002D16246002A05D06246049B002A05D044
:103CC000012504E00020294619B0F0BD00255D194A
:103CD000ED4B9D4207D8029E019D002E00D001268B
:103CE000AD199D4207D93B4660462146169AFFF71B
:103CF000E8FC19B0F0BD0025002C28DAE34B98420F
:103D000025DAE34B984201DB022520E0DD4B9842A7
:103D10001DDBE04B060DF318142B09DD3426F61AD3
:103D2000029BF3401A46B340029EB3420BD00EE012
:103D3000029E002E0BD11426F61A0346F3401A46B3
:103D4000B340834203D1D507ED0F02235D1B6246CA
:103D50000B46134318D1002F16DA002C03D0022D86
:103D600001D0012D06D00220FDF764F9FFF79AFC7F
:103D700019B0F0BD0220FDF75DF9FFF793FC0122B9
:103D8000D207514019B0F0BD029B002B62D1BF4B4E
:103D9000984220D1C048844201D1100008D0B948CF
:103DA000814209DB002F10DB1698394619B0F0BDAF
:103DB0000020B44919B0F0BD002F06DA01223946BF
:103DC000D2071698514019B0F0BDB449794408683B
:103DD000496819B0F0BDAB4EB04226D1002F22DAAF
:103DE000002904D0994211D1100008D010E0100031
:103DF00072D1A649E20FD207114319B0F0BD0020DD
:103E0000E20F0146D207114319B0F0BD994203DB1E
:103E10006046214619B0F0BD234600203146FCF72C
:103E20006FFC19B0F0BD1046F3E7994212DA012396
:103E30009B079F4203D1234610461946C6E3984B81
:103E40009F4207D1221E05DB6046114600F096FD19
:103E500019B0F0BD630066465B0832002BD1002923
:103E600007D08A4A914226D1002C0BDD002F0FDAB1
:103E700018E0022D16D0002C14D0012D12D1002CE8
:103E800014DB0FE0002C16DA002F09DB012D03D024
:103E900000207E4919B0F0BD0020824919B0F0BD64
:103EA000012D03D00020014619B0F0BD00200121F2
:103EB000C90719B0F0BDE217521C0D922A430CD06D
:103EC000794A90427EDD794B794A984212DD9142DF
:103ED0000ADC002F18DB20E049E20120FDF7AAF8F8
:103EE000FFF7F3FB19B0F0BD6648814202DB002FFB
:103EF0000ADC12E0914202DA002F05DB0DE0614B93
:103F0000994213DD002F08DD0220FDF793F8FFF73B
:103F1000E5FB4900490800223FE20220FDF78AF84C
:103F2000FFF7E6FB49004908002236E2002260461E
:103F30002146FCF7C2FB012204460E46D243FDF7A0
:103F40007FF85C4A5C4BFCF7C3FB22463346FCF728
:103F500027FE0022524BFCF7BBFB074622463346A6
:103F6000039110461946FCF71BFE3A46039BFCF7EB
:103F700017FE074603220B915207504B204631464D
:103F8000FCF70EFE01910A904D4A4C4B38460B99B6
:103F9000FCF706FE074602914A4A4B4B2046314643
:103FA000FCF7FEFD3A46029BFCF787FB04460B46F6
:103FB0000246079101990A98FCF772FB00260F460A
:103FC000304600E009E0019B0A9AFCF776FB2246A6
:103FD000079BFCF77DFB0B4681E1012400202405B3
:103FE000A14207DA352230461946FDF729F8064680
:103FF0003420C0430A1512182648101803900803ED
:10400000000B204907460F433049884201DC00205D
:1040100003E02F49884202DA0120119005E00020D8
:1040200011900398401C3F1B03900297119839464A
:10403000C2002848784480180F92436802683046CE
:104040000B930092FCF739FB01910A9030460B9BD1
:10405000009A0299FCF724FB02460B46002009490E
:10406000FCF74EFB07910490019B0A9AFCF798FD20
:104070000591002409910C902EE00000FFFF1F0025
:10408000FFFF0F000000F03F0000E0FF0000F07FA6
:104090000000404301FCFFFF0000F0BFA010000043
:1040A0000000E03F0000F0FF0000E0410000F043AE
:1040B000FFFFEF3F555555555555D53F4715F73F30
:1040C000FE822B6544DF5DF80BAE543E8E980300F4
:1040D0007AB60B00780D0000FE48784400680E9018
:1040E000012178104907084311990B9B8904401856
:1040F0000121C90447183946009A0E98FCF7DDFAE9
:104100003246029BFCF7E4FA02460B462046099928
:10411000FCF746FD064600913B4620460E9A09995B
:10412000FCF73EFD019B0A9AFCF7D2FA3246009B4F
:10413000FCF7C3FA079B049AFCF732FD0B91059933
:104140000C9A12900B461046FCF72AFD06460246D2
:10415000E1480F460B4606217844FFF74DFA3246F8
:104160003B460191049010461946FCF719FD019B4E
:10417000049AFCF715FD06460F462046059B0C9A4F
:104180000999FCF78DFA0B9B129AFCF709FD324650
:104190003B46FCF785FA01910490099922460B46AB
:1041A0001046FCF7FDFCCD4E0022334602910090F4
:1041B000FCF776FA019B049AFCF772FA2246334622
:1041C00020460691FCF779FA029B009AFCF775FAF3
:1041D000019B049AFCF77CFA06460291224610469F
:1041E000069B0999FCF7DCFC074601913046059BCC
:1041F0000C9A0299FCF7D4FC064604912246069BD1
:104200000B991298FCF7CCFC3246049BFCF748FA59
:1042100002460B460791049038460199FCF740FA94
:1042200000200E4604463A46019BFCF746FA079BDF
:10423000049AFCF74DFA074607220B915207A84B48
:1042400020463146FCF7ACFC05910A90A54AA44BE8
:1042500038460B99FCF7A4FC07460091A24AA34BF1
:1042600020463146FCF79CFC3A46009BFCF718FAC6
:104270009F4B7B440F9A9B181A685B68FCF710FAF7
:1042800002900B910398FCF780FC079104900B9B24
:10429000029A05990A98FCF703FA964B7B440F9A09
:1042A0009B181A685B6801930C92FCF7F9F9079B5D
:1042B000049AFCF7F5F900260F463046079B049A4E
:1042C000FCF7FBF9019B0C9AFCF7F7F9059B0A9A9E
:1042D000FCF7F3F90B9B029AFCF7FAF90B46002165
:1042E0000C910D99844C6D1E294301D1834C0C9186
:1042F00017990022089202460D461698FCF750FCCA
:10430000039104902B46089A17991698FCF7D5F953
:1043100032463B46FCF744FC039B049AFCF7C0F989
:104320000B910E9032463B4629460898FCF738FC24
:1043300006460F460B9B0E9AFCF7B2F9704A0D46E3
:10434000914220DB5242AA18024310D132463B462A
:10435000FCF7B3F9029100906A4A6B4B0B990E98E7
:10436000FCF79EF9029B009A00F05EFB2BD2022024
:10437000FCF760FEFFF7B2F949004908E20FD207E7
:10438000114319B0F0BD6A00604B52089A421AD32B
:104390005F4AAA1802430CD102E0114319B0F0BDE4
:1043A00032463B46FCF789F90B9B0E9A00F03CFB2A
:1043B00009D80220FCF73EFEFFF79AF949004908A8
:1043C000E20FD207E9E76A0000235208514903933C
:1043D000100D514B40189A4223DD01221205401C5A
:1043E000C24050194200520D51184C4A7A4412688A
:1043F000034694464A4ACA40934302030120120BE3
:10440000000510181422511AC8400390002D01DA3B
:1044100040420390624630463946FCF74EF9064664
:104420000F4632463B460B990E98FCF739F90020AF
:104430000D4602463B4B0490FCF7B2FB01910A90FB
:10444000394A3A4B29460498FCF7AAFB0D9108908B
:1044500032463B4629460498FCF72FF90B9B0E9AEF
:10446000FCF736F9324A334BFCF79AFB0D9B089A5E
:10447000FCF716F907460B460246079101990A9880
:10448000FCF70EF905460E46019B0A9AFCF715F952
:104490003A46079BFCF71CF933462A460B910E90CF
:1044A00019461046FCF77CFB0746024622480B469D
:1044B000079105217844FFF79FF83A46079BFCF7E0
:1044C0006FFB33462A46FCF703F90746099131464C
:1044D000284633E0920D0000840C000000000840E4
:1044E00009C7EE3FFD033ADCF5015B14E02F3EBE49
:1044F0005A0B0000200B00000000F03F0000F0BF4E
:1045000000009040FE822B654715973C00CC904000
:1045100000346F3F01FCFFFF0000E03F800A000015
:10452000FFFF0F00432EE63F396CA80C615C20BEF4
:10453000EF39FAFE422EE63F580900000B9B0E9A17
:10454000FCF72EFB0B9B0E9AFCF7AAF804900123B4
:10455000079100229B0738460999FCF7AEF80191B4
:1045600008903A4631462846099BFCF719FB019B07
:10457000089AFCF7C5F8079B049AFCF79EF83346A7
:104580002A46FCF79AF80022124BFCF7A1F80646DF
:1045900003980D46000541190915002911DC304624
:1045A0002946039AFCF74CFDFFF710F8042801D1C7
:1045B000FFF79EF830462946039AFCF741FD064670
:1045C00000E029180B46324621460C98FCF7E8FA21
:1045D00019B0F0BD0000F03F10B500210320FEF738
:1045E000E6FA00210120FEF7E2FA10BD10B5012025
:1045F000FEF7AEFA0320FEF7ABFA00210120FEF72A
:10460000D6FA00210320FEF7D2FA10BD10B5002122
:104610000320FEF7CCFA01210846FEF7C8FA10BDC8
:1046200010B500210120FEF7C2FA01210320FEF798
:10463000BEFA10BD10B504462046FCF7BBFE10BD07
:1046400010B504462046FCF7C5FE10BD10B5044663
:104650000420FEF722FB002801D0012010BD1049E4
:10466000C86880470620FEF75AFC002801D00120C8
:10467000F4E70120FEF71DFB002801D00120EDE743
:104680002046FEF74BFB002801D00120E6E706207C
:10469000FEF703FB002801D00120DFE70020DDE763
:1046A000800000200148006870470000AC00002036
:1046B0000148006870470000B000002010B5FDF709
:1046C00023F910BD10B5FDF7CFF9002801D0012066
:1046D00010BDFDF79BFB002801D00120F8E7012069
:1046E00000F064F8002801D00120F1E702490868D1
:1046F00080470020ECE700008000002070B52948CA
:10470000007801284DD1002026490870FDF765FA90
:1047100004461020204000280DD0FDF766FA05461B
:10472000052000F0B3F829461F48FDF7FBFC81B2D5
:104730001D48401C018208202040002813D0FDF7AE
:10474000A5FA1949491C8861FDF75AFA1649491C0E
:104750004861022000F09AF81348FF38FDF738FD51
:104760001149491C488204202040002804D004201C
:1047700000F08CF8FDF752F902202040002806D006
:10478000FDF767FD032000F081F8FDF747F9E0072A
:10479000C00F002804D0012000F07EF8FDF73EF99C
:1047A00000BF70BD1C000020DB01002010B50446D6
:1047B0002046FDF795F8002801D0012010BDFDF737
:1047C00085F8002801D00120F8E70020F6E7000076
:1047D00010B50420FEF761FA0D49002000F020F822
:1047E0000421012000F01CF80721022000F018F835
:1047F0000721032000F014F8FF21042000F010F836
:104800000121052000F00CF8002000F003F810BD95
:10481000400ECF1910B504462046FEF70AFA10BD27
:1048200070B505460C460420FEF737FA2B00FEF75C
:10483000BEFE06040A10161C22282046FDF7D8FDED
:10484000FDF707FD1EE0E0B2FDF7A0FDFDF701FD5D
:1048500018E02046FDF783FDFDF7FBFC12E0204643
:10486000FEF73EFAFDF7F5FC0CE0E0B2FEF791FA38
:10487000FDF7EFFC06E02046FDF7A2FDFDF7E9FCA1
:1048800000E000BF00BF002070BD000001490860CB
:1048900070470000AC00002001490860704700002C
:1048A000B000002070B505460E4614460420FEF701
:1048B000F4F9002801D0012070BD0F4988688047B5
:1048C0000520FEF72CFB002801D00120F4E7002092
:1048D000FEF746FA002801D00120EDE731462846D0
:1048E000FDF7CFFC002801D00120E5E7FFF7E6FE49
:1048F00020600020E0E700008000002010B50520C7
:10490000FEF726F900210520FEF751F910BD10B57C
:104910000520FEF71DF901210520FEF748F910BD1D
:1049200010B5012109030248FCF734FE10BD000058
:104930000004004810B5012109030248FCF728FED5
:1049400010BD00000004004810B5044600BF02215D
:104950000948FEF7A5FC0028F9D021460648FEF7D5
:10496000E5FC00BF01210448FEF79AFC0028F9D0BD
:104970000148FEF7CBFC10BD00380040F8B50646F4
:104980000C46FCF723FC05000F4600D00120014334
:1049900049000B484908411AC90F0DD0002E01D01B
:1049A000012100E000210C4361004908401AC00FBA
:1049B00002D10120FCF73EFB28463946F8BD000035
:1049C0000000F07F70B501250C002D051C4310D4AC
:1049D000EC4206D4AC420AD4994200D070BD904259
:1049E00070BDE94217D4EB4215D4994270BD89429B
:1049F00070BDEC4206D5AC42F9D58B4200D070BDFB
:104A0000824270BD6D004C00EC4204D25C00EC426E
:104A100001D28B4270BD034C30B4FCF78FFB30BC2D
:104A200070BD00BF1900120470B501251C002D05D2
:104A30000C4310D4EC4206D4AC420AD48B4200D0D2
:104A400070BD824270BDEB4217D4E94215D48B424F
:104A500070BD9B4270BDEC4206D5AC42F9D599427F
:104A600000D070BD904270BD6D005C00EC4204D27D
:104A70004C00EC4201D2994270BD0FB4034C0CBC07
:104A800003BC30B4FCF75AFB30BC70BD19001604EF
:104A900070B501250400ED074C4020D4441A01D222
:104AA000001B0919C60D4B00F2B2FF2A29D01B0EBC
:104AB0002CD000020C02D31A2C43DC4028430519E9
:104AC00010D2280A02D3401C6D0611D0761EF605BE
:104AD0008019FF2A00DA70BDC00DC00570BD6940A5
:104AE00000F0A4F801200543C541521C761CE8E7FC
:104AF00064089C40C90161408900E7D10124A043BA
:104B0000E4E71B0E440200D0034870BD002AFCD12C
:104B1000C00FC00770BD00BF0000C07F01230200AE
:104B2000DB050A430DD4DA4203D49A4207D4884203
:104B30007047D84214D4D94212D488427047804278
:104B40007047DA4203D59A42F9D5814270475B003B
:104B50004200DA4204D24A00DA4201D2814270476E
:104B600010B5024AFCF79CFA10BD00BF09001604FC
:104B700070B5420064414B005C41120E39D01B0EEF
:104B800038D0FF2A3CD0FF2B3AD040024902400ADD
:104B9000490A060045184E43000A090AD21848433C
:104BA000ED017F3A0104731A4019190C4318990F4B
:104BB00004D001215B0849075B1A521CD80904D3B1
:104BC000401CF50301D19D0607D0FF2A08D2D50568
:104BD00006D0E4072043401970BD0125A843F4E73F
:104BE000002A01DCE00770BD2402FF202043C0053D
:104BF00070BD1B0EFF2A03D0FF2B01D0E00770BD54
:104C0000FF2645003606B54206D84D00B54203D80A
:104C1000D218FF2A00D0E7E7004870BD0000C07F2F
:104C200070B501250400ED074C4022D4441A02D28D
:104C30006C40001B0919C60D4B00F2B2FF2A4BD085
:104C40001B0E50D000020C02D31A2C43DC40A843A8
:104C5000051B05D5AD0019D36D08761E521E37D041
:104C6000F605280A01D2801970BD70416D0603D087
:104C700070BD6940FFF712FF9C4009026140490086
:104C800001D0401E70BD0124A04370BD6D081DD031
:104C900001202B0C01D12D0410302B0E01D12D023F
:104CA00008302B0F01D12D01001DAB0F01D1AD003C
:104CB000801CEB0F01D16D00401C6D00361A121ADA
:104CC000680AF5054019012A02DB70BD002070BD9D
:104CD000C036300AC00770BD1B0E440201D1FF2B45
:104CE00000D1024870BD002AF0D070BD0000C07F26
:104CF00080807F7E7D7C7B7A797877767675747319
:104D0000727171706F6E6E6D6C6C6B6A6A696868D7
:104D1000676666656464636362616160605F5F5E6D
:104D20005E5D5D5C5C5B5B5A5A59595858575756E3
:104D30005655555554545353525252515150505048
:104D40004F4F4F4E4E4D4D4D4C4C4C4B4B4B4A4A9A
:104D50004A494949484848474747474646464545DE
:104D60004544444444434343434242424241414117
:104D70008182838485868788898B8C8D8E8F9192A2
:104D800093959697999A9C9D9FA0A2A3A5A7A8AA40
:104D9000ACAEB0B2B3B5B7B9BCBEC0C2C5C7C9CC62
:104DA000CED1D4D7D9DCDFE2E6E9ECF0F3F7FAFEB6
:104DB000000000000000F03F000000000000F83F8D
:104DC00000000000000000000000004003B8E23FC7
:104DD000000000000000000006D0CF43EBFD4C3E79
:104DE000033333333333E33FFFAB6FDBB66DDB3F6E
:104DF0004D268F515555D53F01411DA96074D13FB6
:104E000065DBC9934A86CD3FEF4E454A287ECA3FAF
:104E10003E5555555555C53F93BDBE166CC166BF31
:104E20002CDE25AF6A56113FF16BD2C541BDBBBE2A
:104E3000D0A4BE726937663E04FA97999999D93F12
:104E4000AF788E1DC571CC3F9FC678D0099AC33FFD
:104E5000935555555555E53F599322942449D23FD2
:104E6000DE03CB966446C73F44523EDF12F1C23F99
:104E70000000000000000000984E00080000002024
:104E8000DC000000F8000008744F0008DC0000207F
:104E9000BC07000014010008006CDC0200000000E8
:104EA00000000000010203040607080900000000DA
:104EB000000000000090FF64270000272700002763
:104EC00027000027270000272700002727000027AA
:104ED0002700002727000027270000272B00F82B9A
:104EE0003100FC313700FF373C20FF3C4240FF429D
:104EF0004860FF484D80FF4D5384FF535988FF5948
:104F00005F8CFF5F6490FF640CFF40420F00000164
:104F1000F42FF30F00000000ED4500080F490008D2
:104F2000214600080D460008D9450008FD48000844
:104F3000494900082149000835490008354600085C
:104F400041460008000000000000000000000000D2
:104F50000100010203040506070809000000000023
:104F60000000000000000000000000000000000041
:044F7000000000003D
:04000005080000B53A
:00000001FF
