:020000040800F2
:10000000700A0020E53D0008C93C0008CB3C000810
:1000100000000000000000000000000000000000E0
:10002000000000000000000000000000CF3C0008BD
:100030000000000000000000D13C0008D33C000894
:100040001B17000800000000331A0008CB1E000830
:10005000DF210008153D0008EF2700086B28000885
:10006000000000009F3400088F3700085B3D000847
:10007000EB3C00086F3F00087B3F000800000000D9
:10008000034000080000000000000000EF3C0008F2
:10009000F7400008F9400008FB400008FD40000858
:1000A000FF40000801410008ED3C0008E93C000861
:1000B000034100089D48006870479C4908607047EC
:1000C0009B48006870479A490860704700B5010076
:1000D000002000E0401C082806DA0A00D2B20241E3
:1000E000D207F7D5C0B200E0002000BD10B5040073
:1000F0009048006A80476000C0B28E49896988478D
:1001000000208C498969884704008A48C069804773
:100110002000C0B210BD70B505000C0068000126BB
:1001200006438448006A80473000C0B2814989692B
:1001300088472000C0B27F49896988477D48C069E7
:1001400080472800C0B2FFF7D1FFE4B2A04201D03F
:10015000012000E0002070BD70B50C0015004000CB
:10016000012606437348006A80473000C0B27149D7
:1001700089698847002604E0A05D6E49896988473F
:10018000761CAE42F8DB6B48C069804770BD70B525
:100190000C00150046006748006A80473000C0B276
:1001A000644989698847002605E00020614989691A
:1001B0008847A055761CAE42F7DB5E48C069804791
:1001C00070BD10B504000020FFF790FFFC21014036
:1001D0002143C9B20020FFF79EFF0020FFF786FFF2
:1001E0008007800FE4B2A04201D0012000E000208F
:1001F00010BD38B50D001400C0B2FFF7E2FF0028B3
:1002000001D001200AE028002100C9B2C0B2FFF7E6
:1002100082FF002801D0012000E0002032BD10B58F
:100220000C00C0B2FFF7CDFF002801D0012003E091
:100230002000C0B2FFF75AFF10BDF8B50F00140040
:100240001D000026C0B2FFF7BCFF002801D001202E
:1002500042E06846057025003800C0B24000012425
:1002600004433448006A80472000C0B2314989699C
:100270008847002406E02000C0B2285C2D49896927
:100280008847641C200069460978C0B28842F2D3CE
:100290002848C06980472748006A80477800C0B274
:1002A000244989698847002400E0641C20006946CD
:1002B0000978C0B288420AD200201E49896988475D
:1002C0002100C9B2695CC0B28142EED00126194852
:1002D000C06980473000C0B2F2BD70B50C00150097
:1002E0001E00C0B2FFF76DFF002801D001201BE007
:1002F0001048006A80476000C0B20E49896988478B
:10030000002407E000200B49896988472100C9B211
:100310006854641C20003100C0B2C9B28842F1D3D5
:100320000448C0698047002070BD000054060020CA
:10033000580600201000002070B505000C001600C3
:100340002100C9B22800C0B2FFF769FF32000243A2
:10035000D2B22100C9B22800C0B2FFF74AFFC0B232
:1003600070BD70B505000C0016002100C9B2280050
:10037000C0B2FFF754FFB0430200D2B22100C9B2AD
:100380002800C0B2FFF735FFC0B270BDF8B5060057
:100390000C0015001F003800C0B2FFF797FE854023
:1003A0003D402100C9B23000C0B2FFF738FFB8436A
:1003B0002A000243D2B22100C9B23000C0B2FFF716
:1003C00018FFC0B2F2BD80B50200D2B26C2100208D
:1003D000FFF70FFF002002BD80B56C210020FFF762
:1003E0001EFF4006400E02BD80B50020FFF77EFED6
:1003F00080210143C9B20020FFF78DFE0020FFF7E6
:1004000075FE4106490EC9B20020FFF784FE0020A8
:10041000FFF76CFE002002BD80B5C0B2002809D1F4
:10042000012206210220FFF787FF002801D00120CA
:100430000AE008E0012206210220FFF792FF0028CF
:1004400001D0012000E0002002BD80B5C0B2FFF75E
:10045000E3FF002801D0012009E0EF22342102202F
:10046000FFF7C7FE002801D0012000E0002002BDF8
:1004700010B58AB06846282100F0C2FF00F013FED4
:1004800011240CE022000D32D2B294493B2000F03E
:1004900022FE69462200D2B289184873641C2000EB
:1004A000C0B21428EEDB1C228C493B2000F013FE66
:1004B0005A283DD1FD223D210220FFF79AFE6846D1
:1004C0002021405C002806D068462021425C45215E
:1004D0000020FFF78EFE0D2280493B2000F0FBFD3F
:1004E00001280DD11F236846807FC206D20E1C2131
:1004F0000320FFF74BFF002801D001201BE011E093
:100500000D2276493B2000F0E6FD02280AD168461C
:10051000807FC006C00EC0220243D2B21C2103203D
:10052000FFF767FE6846C27F1D210320FFF761FECB
:1005300000F0C5FD00200AB010BD10B5002400E099
:10054000641C2F2C13D26648032161434018827823
:1005500063480321614340184178614803236343A2
:10056000C05CFFF746FE0028EAD0012000E0002032
:1005700010BD38B50420FFF7B9FD10240443210055
:10058000C9B20420FFF7C7FD0A205649896A884787
:10059000EF212140C9B20420FFF7BDFD0020FFF785
:1005A000A5FD4406640E2100C9B20020FFF7B3FD8B
:1005B0000A204C49896A8847802525432900C9B209
:1005C0000020FFF7A8FD0A204649896A8847690686
:1005D000490EC9B20020FFF79EFD0A204149896AF1
:1005E000884700210220FFF796FD002801D0012056
:1005F00073E00A203B49896A884701210220FFF7FE
:100600008AFD002801D0012067E00A203549896A67
:100610008847202206210320FFF78EFE002801D004
:1006200001205AE00A202F49896A884702210220C6
:10063000FFF771FD002801D001204EE00A20294972
:10064000896A88472F2226210320FFF7D2FD002840
:1006500001D0012041E00A202249896A88473621D9
:100660000420FFF758FD002801D0012035E00A20C2
:100670001C49896A88471B4840688047032102203B
:10068000FFF749FD002801D0012026E096201549FA
:10069000896A884704210220FFF73DFD002801D028
:1006A00001201AE00A200F49896A8847FFF7E0FE17
:1006B000002801D0012010E0FFF73FFF002801D003
:1006C00001200AE00120FFF7C0FE002801D0012030
:1006D00003E0044800688047002032BDA55A0000AE
:1006E000383B00081000002080B500280AD1702394
:1006F00001223D210020FFF749FE002801D0012002
:100700000BE009E0702300223D210020FFF73EFEB0
:10071000002801D0012000E0002002BDFEB5040049
:100720000026BD48201ABD49884201D30120B5E00A
:10073000BB4884420AD22823BA4A0A210220FFF782
:100740007CFD002801D00120A8E009E02823B64A5A
:100750000A210220FFF771FD002801D001209DE051
:1007600000200DE0B149082242438958A14206D237
:10077000AE490822424389184968A14212D2401C5E
:10078000102819DAA4498C4202D0A9498C42E9D137
:100790001A2240210020FFF72CFD002801D0012063
:1007A0007CE009E0A3490A5C40210020FFF721FD1D
:1007B000002801D0012071E09948844211D2200024
:1007C00000F020FE00229C4B00F036FE00229B4BE6
:1007D00000F0F4FE00F053FF05000020FFF784FF57
:1007E00011E0200000F00EFE00228023DB0500F067
:1007F00023FE0022914B00F0E1FE00F040FF0500D7
:100800000120FFF771FF280000F06AFF07003800A1
:1008100000F094FF0100280000F0D3FF0100143F16
:100820003D00874801F025F80700F6B2761C02204B
:100830004643300000F082FF0100380001F071F8FB
:1008400000F04EFF69460D71010001AA51700012BF
:100850000007000F01A98870032301AA15210320B6
:10086000FFF7EBFC002801D0012017E020006946CB
:100870000870200A694648702000000C694688709C
:10088000200E6946C87004236A4609210320FFF739
:10089000D4FC002801D0012000E00020FEBD80B57E
:1008A00004236A4609210320FFF717FD6846C07834
:1008B00000066946897809040143684640780202C7
:1008C0000A4368460078104302BDF0B587B00600C1
:1008D00000F03EF9040000F05FF96946487000F04E
:1008E0000EF96946087000F0D2FB050000F016FB17
:1008F000029003A85349102201F068F86846007876
:10090000801F042801D3002082E037000120A0408E
:1009100000F014FF03A96A46127804235A43891889
:100920001839096800F0FDFF019000202000C0B2D6
:1009300007282ADA029800F0F1FE434900F009FF87
:10094000019900F096FF0600FFB2082047432000FF
:10095000C0B204214843381A243000F0EFFE0700EB
:10096000E4B2EDB202204543601B0421484300F08D
:10097000E5FE0100380000F0D4FF01F041F801F07D
:1009800059F800F07CFE040029E0029800F0C6FE51
:100990002E4900F0DEFE019900F06BFF0600FFB269
:1009A000082047432000C0B204214843381A2C30A5
:1009B00000F0C4FE0700E4B2EDB202204543601B24
:1009C0000421484300F0BAFE0100380000F0A9FFFE
:1009D00001F016F801F02EF800F051FE0400684610
:1009E0004078001D00F0AAFE210000F042FF010047
:1009F0008220C00500F0ADFE0100019800F039FF33
:100A0000310000F0A6FEA74900F033FF01F03EF8E8
:100A100007B0F0BD0000000040CF2318C1AE3B2856
:100A20000008AF2F883E0008B03E0008C83B000811
:100A3000809E47306C4000080000104080847E415A
:100A40000000C8447C4000080000C8400000884006
:100A500000B50200D2B20B2A08D10800C0B20628A5
:100A600002D0C9B2072911D1012010E0C0B20C2870
:100A70000CD10800C0B2062806D00800C0B2072872
:100A800002D0C9B2082901D1012000E0002000BD38
:100A900010B50400F0232200D2B20D210320FFF78D
:100AA00075FC002801D0012028E000F051F8210059
:100AB000C9B2C0B2FFF7CCFFC0B200F0DAFA200032
:100AC000C0B2062806D02000C0B2072802D0E4B287
:100AD000082C09D102223F210220FFF72DFC00281B
:100AE00001D001200AE008E002223F210220FFF7A6
:100AF00038FC002801D0012000E0002010BD80B5A6
:100B00000D210320FFF78BFBC0B2000902BD10B519
:100B100004002000C0B2401F082801D3012016E0C5
:100B2000F0232200D2B20E210320FFF72FFC002871
:100B300001D001200BE0FFF7E2FF0100C9B2200065
:100B4000C0B2FFF785FFC0B200F093FA002010BDDD
:100B500080B50E210320FFF762FBC0B2000902BD81
:100B600080B502000823D2B20E210320FFF70EFC4D
:100B7000002801D0012000E0002002BD80B5020065
:100B80000E23D2B20D210320FFF700FC002801D074
:100B9000012000E0002002BD80B50D210320FFF7F9
:100BA0003EFBC0B240084007400FC0B202BD80B556
:100BB0000100C9B20220FFF7AEFA002801D00120DF
:100BC00000E0002002BD80B502000423D2B206215D
:100BD0000320FFF7DBFB002801D0012000E000200C
:100BE00002BD80B502000323D2B206210320FFF725
:100BF000CDFB002801D0012000E0002002BD80B51F
:100C000001006A46117080B2000A694648700223EA
:100C10006A4607210320FFF710FB002801D00120BE
:100C200000E0002002BD38B503236A46712102208E
:100C3000FFF753FB6846807800046946497809024B
:100C40000143684604780C4303236A46742101205B
:100C5000FFF743FB6846807800046946497809023B
:100C60000143684605780D437C210120FFF7D7FA40
:100C70000200D2B21209D2B2002C00D10124280005
:100C80000221914000F015FF210000F012FF00F05A
:100C9000B9FB01F015F90022964B00F0CDFB00F0F6
:100CA000EEFC32BD00007A4480B57F210120FFF7C1
:100CB000B6FA40B202BD38B504002000C0B2002828
:100CC00000D10124FFF7EBFD8B49411A8B4A914279
:100CD00000D389E02000C0B2182800DB16243F238F
:100CE00087482100C9B2032251434018C01E027830
:100CF0001E210020FFF74AFB002801D00120F7E069
:100D00000F237F482100C9B2032251434018801E9F
:100D100000780200D2B212094B210020FFF736FB07
:100D2000002801D00120E3E0012375482100C9B269
:100D3000032251434018801E00780200D207D20FD0
:100D400022210320FFF722FB002801D00120CFE061
:100D50006B482100C9B2032251434018401E00785D
:100D6000702809D0042246210020FFF7E5FA002868
:100D700001D00120BCE008E0042246210020FFF75A
:100D8000F0FA002801D00120B2E000F08CF9202216
:100D90005C493B2000F09FF9050000F090F9280025
:100DA000C0B2002800D1082555482100C9B203224D
:100DB00051434018401E00780007000F2A1A50487F
:100DC000E4B203214C430019401E0078F021014099
:100DD0000A43D2B245210020FFF70BFA002801D0C8
:100DE000012085E0002083E04749411A474A9142AB
:100DF00019D202252000C0B2172800DB16243F2399
:100E000043482100C9B210225143401804216943CC
:100E10004018103802781E210020FFF7B7FA00288A
:100E20000AD0012064E03B49401A3B49884201D284
:100E30000325DFE701205BE00F2335482100C9B21D
:100E40001022514340180421694340180F3802789A
:100E50004B210020FFF79AFA002801D0012047E03B
:100E600001232B482100C9B210225143401804210C
:100E7000694340180E38027822210320FFF786FAD2
:100E8000002801D0012033E021482100C9B21022FE
:100E9000514340180421694340180D380078FF2859
:100EA0001CD0042246210020FFF746FA002801D07A
:100EB00001201DE070231648E4B210214C430019B4
:100EC00004214D4340190D38027845210020FFF7D9
:100ED0005DFA002801D001200AE008E00422462142
:100EE0000020FFF73EFA002801D0012000E000209A
:100EF00032BD00000000244040CF2318016889095A
:100F00005C3D0008A55A0000809E473001B4C4042F
:100F1000F438000880520C35812B530B80B5022326
:100F20006A4613210320FFF7D8F96846407800028B
:100F300069460978084380B202BD80B50100C9B294
:100F400008290CDA012181400A00D2B26521002073
:100F5000FFF7F2F9002801D001200EE00CE001219A
:100F6000083881400A00D2B266210020FFF7E4F978
:100F7000002801D0012000E0002002BD80B50A0059
:100F80000100C9B208290DDA012181400B00DBB252
:100F9000D2B267210020FFF7F9F9002801D0012023
:100FA0000FE00DE00121083881400B00DBB2D2B226
:100FB00068210020FFF7EAF9002801D0012000E0B5
:100FC000002002BD38B504000D0028000200D2B296
:100FD0000C210120FFF70DF9002801D001200DE0C0
:100FE00005210220FFF797F8002801D0012005E035
:100FF00021002A000120FFF7AFF8002032BD38B5EC
:1010000005007D210120FFF70AF904002200D2B279
:1010100029000120FFF7BBF82000C0B232BD80B527
:101020002E210120FFF7FBF8C0B2C00902BD10B5A8
:1010300004000800C0B2002807D10823220076214E
:101040000220FFF74AF9082012E0C9B201290ED1A7
:101050000A23220076210220FFF73FF9062322000F
:101060000A3276210020FFF738F9102000E0002036
:1010700010BD80B502000823D2B212210320FFF771
:1010800085F9002801D0012000E0002002BD80B5D4
:1010900012210320FFF7C3F80100C9B2C9080800F4
:1010A000C007C00F02BD80B508223E210220FFF715
:1010B00058F9002801D0012000E0002002BD80B5D1
:1010C00008223E210220FFF737F9002801D0012035
:1010D00000E0002002BD3EB5050000206B46187000
:1010E0006424080080B2000A6B46187101A84170A0
:1010F000500001A988700220FFF763F8032201A9BC
:101100002800C0B2FFF728F86C210020FFF787F80D
:10111000000605D42000441E80B20028F4D1FFE769
:101120000220FFF74EF8012269462800C0B2FFF7FF
:101130002EF8684600783EBD80B508224F21002079
:10114000FFF7FAF8002801D0012000E0002002BDDE
:1011500080B508224F210020FFF703F9002801D0B5
:10116000012000E0002002BD10B504000420FFF7BC
:101170001EFD002801D0012019E06F48C06880479B
:101180000120FFF72EFD002801D001200FE02000F4
:1011900080B2FFF734FD002801D0012007E00620CF
:1011A000FFF705FD002801D0012000E0002010BD60
:1011B00070B504000D0016000420FFF7F8FC0028AD
:1011C00001D001201EE0FFF7B7FF002801D0012069
:1011D00018E05948806880470020FFF7F4FC002899
:1011E00001D001200EE02800C0B2FFF76EFB306096
:1011F0002900C9B22000FFF7E5FE002801D0012038
:1012000000E0002070BD10B502219020C00500F064
:10121000ADFE002800D18DE0FFF7DEF80400E00607
:101220001ED5FFF7FCFE6049C0B20870000A487086
:101230005D48017842781206120C1143C9B25B482E
:10124000FFF7F5FE5849C0B20870000A4870200048
:10125000EF2404401020FFF7B6F80520FEF72DFF1D
:10126000600623D56E210020FEF7D9FF504A117881
:1012700053781B061B0C19434E4A89B25118FF22A2
:10128000203288544A4908784A781206120C1043D2
:101290004749401C0870000A48702000BF240440E1
:1012A0004020FFF790F80620FEF707FF200718D52B
:1012B000FFF7B9FC40490860FFF7F6FC3F490870AA
:1012C0003C48FFF79CFE3E49C0B20870000A4870D7
:1012D0002000F72404400820FFF775F80220FEF7ED
:1012E000ECFE60070DD50A2236490120FEF74FFFBC
:1012F0002000FB2404400420FFF765F80420FEF7DB
:10130000DCFEA0070AD5FFF76FF82000FD2404409B
:101310000220FFF758F80320FEF7CFFEE00709D5BB
:10132000FFF716FFFE2020400120FFF74CF80120B8
:10133000FEF7C9FE10BD00001000002080B501209E
:10134000FFF70EFC002801D001202BE01E48FFF71C
:10135000E5F9002801D0012024E00120FFF70EFC70
:10136000002801D001201DE00720FFF791FB002895
:1013700001D0012016E00920FFF7C9FB002801D0A9
:1013800001200FE01620FFF796FC002801D0012075
:1013900008E001200090072309220B490B4800F0C8
:1013A0002FFE002002BD0000F9010020DF01002017
:1013B000FD010020E000002000060020FF050020C5
:1013C000FB010020EF01002000A1BC33003F00081A
:1013D000130030B414001500103902D310393CC08A
:1013E000FCD2490700D30CC000D504C0890002D349
:1013F0000280801C002900D5027030BC70470000BC
:101400000022E5E7010042221201D21E004207D06D
:1014100002D4521E0018FCD5C10A400512058918D5
:10142000704700000100EED54042F446FFF7EBFFA5
:101430000122D20711436047F0B50E005E4001253E
:10144000ED072E40B446AE0ADF184C18F44208D21D
:10145000F7420ED2640D01D07F0D12D100206146FB
:10146000F0BD05D1F74201D87F0D05D10020C14361
:10147000F0BDFBD1640DF9D00020C14349054908F6
:101480008FE0E419C902DB0229432B43DB0A460D36
:10149000C00231438E4630B487B295B27D432E0CE4
:1014A000ADB2140C7C43A419260C240425439CB231
:1014B0007C43A419190C7943270CC919A4B20F0451
:1014C0003C43090C000C97B247432E0CBE19354320
:1014D000ADB2170C4743360CBF19A6B2BF193E0474
:1014E0003543240C3E0C36199FB24743BF19BCB29A
:1014F0003E0C89191F0C47437F183E043443390CB6
:10150000704680B297B247432E0CBE193543ADB238
:10151000170C4743360CBF19A6B2BF193E0435431A
:10152000240C3E0C36199FB24743BF19BCB23E0C87
:1015300089191F0C47437F183E043443390C774602
:101540003F0C90B278432E0C80190604ADB22E43A6
:10155000050CA0B22D18120C7A435019020C80B25F
:10156000240CA4189AB27A43121914042043120CC2
:1015700089181B0C7B43C91830BCEF0A394203D1D0
:10158000B61940414941641E6F12BF0DE41B0BDBCD
:10159000FF19BC4211DA240500274208AE41784108
:1015A000614166463143F0BD641C05D1401C614178
:1015B000CF0201D34908F4E750E75DE7F0B40E002D
:1015C0005E400125ED072E40B446AE0ADF184C18E8
:1015D000F4423BD2F74241D2640D43D07F0D38D064
:1015E000E41BC902DB0229432B43CF0ADB0A0600B6
:1015F000B61A9F4104D2641EB6197F41B6185F41E6
:101600006812800D24180018844222DAE80C0021A8
:10161000B6197F41B61A9F4102D2B6185F413F1CEE
:1016200040414941F4D3241C21DD2405B6197F41F2
:10163000B61A9F4105D33743C60737430026012F0B
:101640007041614166463143F0BC7047FCD1F742BE
:1016500005D20020C14349054908F3E704D0002022
:10166000C143F1E77F0DFAD000206146ECE7244248
:10167000FAD1401C61410F03F6D30020E2E70122BA
:1016800052054B18DA4201D9581570475B0D0722F5
:10169000D2019B1A10D9FF2B1DD2DB050122D207E4
:1016A0000A4013430903020D1143490AC200524183
:1016B00000D9491CC81870470AD1800A0A0302439E
:1016C0005212921C04D9D3070B40D005184370471F
:1016D000C80FC0077047C80F0002FF30C005704731
:1016E0000122D2070118090E7F3910D449421F3157
:1016F0000FD4001805D2C0011043C84000D5D04314
:101700007047C0011043C84005D4404270470020D4
:1017100070470042F3D510007047FEE79D2102009C
:101720000AD002D4491E9218FCD5C905100A120627
:10173000524100D3012A4841704700009D21020018
:10174000EED55242F446FFF7EBFF0122D2071043D9
:1017500060470122D20703004B402ED4431A01D226
:10176000C01AC91830B44B180418240E1B0E22D00E
:10177000FF2C20D0E31A182B1DDC09021143C40DE5
:10178000641E0002104394461925ED1A0A00AA406F
:10179000D940451801D36D08A41CE405D209280AD4
:1017A0002D062A436546AA41604103181B0EFF2BF4
:1017B00001D3C00DC00530BC7047514006E0514018
:1017C000CCE70122D20703004B40F8D4431A03D2DE
:1017D000C01AC9185040514030B44B180902114387
:1017E0000418240E1B0E40D0FF2C3AD025009D413A
:1017F0000BD31ED8C50D4002401A0BD3ED050100D6
:10180000400AC90591416841D5E7C50D4002491814
:10181000401AD0D001214008491C0018FCD58C4248
:1018200004D36D1A000AED054019C4E7E80510401D
:10183000C1E7182DBFDCAC1C0D00E140E5414D4077
:10184000012D4941C40D00021043451A01D46D1900
:101850009543641EE405280A2D069541604130BC7D
:101860007047FF2BA7D1D843A5E72442A3D100207E
:10187000A1E730B405004D400122D20715404B18B6
:101880000418240E2ED01B0E32D0FF2C34D0FF2B88
:101890003AD0E4180002090210431143000A090A71
:1018A0009446C2B24A43000AC3B24B43000A4843BB
:1018B000110A5B181A43D2B2190A091801D449183F
:1018C000641E080A7F3C23DBFE2C08DAE4050906C7
:1018D0001143634699416041284330BC7047FF2063
:1018E000C005F9E728001B0EFF2BF6D1D043F4E723
:1018F0002800FF2CF1D1F9E74002F7D1FF2B01D1ED
:101900004902F3D1E005E7E7D8054902E4D0EDE765
:1019100043020020641CDFD15B129B1CDCD9D8057C
:10192000DAE730B405004D400122D20715404B18CC
:101930000418240E28D01B0E2FD0FF2C34D0FF2BE0
:1019400037D0E41A00020902104311434308480843
:10195000D10D1B1A02D2641EDB181B18DB18834240
:1019600000D31B1A4941F9D37F3426DDFE2C08DA57
:10197000E4054808C907194391416041284330BC38
:101980007047FF20C005F9E728001B0E03D0FF2B8E
:10199000F5D14902F3D0D043F1E7FF2C01D1400249
:1019A000F9D1FF20C005E9E74002F4D1FF2BF8D1BF
:1019B000F1E728004902E2D0EDE70B0200202442C3
:1019C000DCD15B129B1CD9D9D805D7E770B4103A8B
:1019D00003D378C9103A78C0FBD2530701D318C992
:1019E00018C001D508C908C0D20704D30B880380EA
:1019F000891C801C002A01D50B78037070BC7047CD
:101A0000012212060118CA420AD28A420DD838228F
:101A1000120609098918C20FD207114340077047FF
:101A200000D049080909014301E0C10FC90700209E
:101A30007047FEE74A00520DFF239B009B1CD21A01
:101A400019DD35239B1A1EDD1300153B09DA9B4176
:101A5000DB0AD340094201D4401E5941002099437A
:101A600070470022D243DA40094202D40023801892
:101A70005941904370470B0D5B0500D0024901D3DB
:101A80000121C907002070470000F03F00180ED266
:101A9000010E7F390BD449421F3105D4C001012208
:101AA000D2071043C84070470020401E70470020F6
:101AB00070470022030A8B420BD203098B4219D2D2
:101AC00043088B422ED2411A00D2014652411046A1
:101AD0007047FF2209023FD012068B4205D3121233
:101AE00009028B4201D31212090203098B4219D356
:101AF00000E0090AC3098B4201D3CB01C01A52414D
:101B000083098B4201D38B01C01A524143098B4296
:101B100001D34B01C01A524103098B4201D30B017F
:101B2000C01A5241C3088B4201D3CB00C01A5241A4
:101B300083088B4201D38B00C01A524143088B4269
:101B400001D34B00C01A5241884200D3401A52417F
:101B5000CFD201461046704708B500F065FA08BDBF
:101B6000F8B586B04B005B155B1C09D14B005B15CB
:101B70005B1C02D10A0300D049E1CA0F26D146E11D
:101B800002AB03C3C6A003C802ABC0CB0F40802585
:101B90006D03AF4206D20023009302AB30CB664008
:101BA0006F4009E03E0D9B4CA419009402ABC0CBE2
:101BB0009E4D3D40984F2F433040394003D100287F
:101BC00001D1964923E13900C80F04D000BF00BFFE
:101BD000B3A003C81BE13000002902AB06DA0024E1
:101BE00080252D06241A8D4130C300E003C38CA448
:101BF00030CC002D06DA002080210906001BA94107
:101C000004000D0002A803C8A94222DC01DBA042A7
:101C10001FD279004B0D591C002B11D000290FDD6C
:101C2000814B994206DB1805390080231B061940B9
:101C3000014309E07D4B3B4008051843070005E0E0
:101C4000390080231B06194000260F000098401E13
:101C5000009001920020764932003B0000F0E5F947
:101C600004000D000020734932003B0000F0DDF954
:101C700002000B0020002900FFF7A0FC04AA03C209
:101C800004A80CC804A803C8FFF7D6FB06000F0081
:101C900069A003C832003B00FFF7CEFB68A20CCA64
:101CA00000F0C3F932003B00FFF7C6FB66A20CCA86
:101CB00000F0BBF932003B00FFF7BEFB64A20CCA88
:101CC00000F0B3F932003B00FFF7B6FB62A20CCA8A
:101CD00000F0ABF932003B00FFF7AEFB60A20CCA8C
:101CE00000F0A3F932003B00FFF7A6FB5EA20CCA8E
:101CF00000F09BF932003B00FFF79EFB02000B0057
:101D00002000290000F0F4F904AA0CCAFFF794FBA4
:101D100004AA03C20098FFF785FB06000F00019894
:101D2000002818D152A003C832003B00FFF784FB03
:101D300004AA0CCA00F0DCF922002B0000F075F9AF
:101D400004000D004CA003C832003B00FFF774FBF9
:101D500022002B0059E036DD0020494922002B00EB
:101D6000FFF76AFB0290039146A003C822002B00F4
:101D7000FFF762FB0090019144A003C832003B00D2
:101D8000FFF75AFB04000D0004A803C841A20CCAC7
:101D9000FFF752FB02000B002000290000F0A8F919
:101DA000009A019B00F041F9029A039B00F03DF973
:101DB00004000D000020394932003B00FFF73CFBD6
:101DC00022002B0021E038A003C822002B00FFF7DF
:101DD00033FB0090019136A003C822002B00FFF7CF
:101DE0002BFB04000D0004A803C833A20CCAFFF7A4
:101DF00023FB02000B002000290000F079F9009A73
:101E0000019B00F012F932003B0000F00EF907B020
:101E1000F0BD000002FCFFFF0000E03F0000F0FF0B
:101E2000CD3B7F669EA0E63FFF070000FFFF0F80CF
:101E30000000F0BF0000F03FF7DE29BFD8F8C23F36
:101E4000F4B3FECC1A99C33F62CB68D96F46C73F43
:101E5000C6C912DAC471CC3F4AE98A942449D23FF8
:101E6000F75F97999999D93FBC5555555555E53F19
:101E70009EBC9AF71C7D7F3E000000C0422EE63FCC
:101E80007BCBDB3FABA6320EE526553E7CC4BC7F48
:101E9000DE27743E0EE526157BCBDB3F1344D33F94
:101EA000FFFFFFFFFFFFFF7F000000604715F73FC8
:101EB00044DF5DF80BAE543EFE822B654715F73FBD
:101EC00080B50122FFF74CFE04BDFEE770B500228D
:101ED00000220022002246E0012393400C681C40AF
:101EE0009C423FD10B79012B02D00B79022B19D1E7
:101EF00083680324150002267543AC40A343836026
:101F000083684C79150002267543AC401C438460FD
:101F1000838801249440A343838083888C799440F0
:101F20001C43848003680324150002267543AC40DB
:101F3000A343036003680C79150002267543AC4087
:101F40001C430460C3680324150002267543AC409B
:101F5000A343C360C368CC79150002267543AC4027
:101F60001C43C460521C102AB6D370BD00B50022B9
:101F7000008A89B20140002901D0012000E0002040
:101F8000C0B200BD89B2816170470185704700B55C
:101F9000D2B2002A02D089B2816100E0018500BD81
:101FA000F0B400230023D2B20B005B075B0F0424C4
:101FB00063439A400B009BB2DB1004246343C318B5
:101FC0000C00A4B2E41004256C430419246A0F2504
:101FD0000E007607760F04277E43B540AC431C62A3
:101FE0000B009BB2DB1004246343C3181B6A1A4323
:101FF00089B2C9100423594340180262F0BC7047EB
:102000000EB4C0B5020003A801900020009001ABFF
:102010000121044878440C3000F0E2F8029906B03F
:10202000084700BFC91F00007047F0B40125ED0745
:102030000F005F404FD48B4200D1824205D98446C5
:10204000100062468C4619006346DF184C18640D78
:102050007F0D3AD0661C760537D0E61B352E34DC72
:10206000DB022B43DB0A0C0DC9022943C912202EC7
:102070000DDB1700203E06D01F00F741F3405F4004
:102080000026012A7741C01871410DD217E01700D0
:10209000F741F2405740F3415A40B340F3405A40B1
:1020A0000026801859410AD3A21C52050FD0C2073E
:1020B000012F724117004008CB0718434908641CE0
:1020C00024054208AF4170416141F0BC7047641C77
:1020D00021050020F9E76B4010E06B40ABE7F742C9
:1020E000F3D1E943F1E72442EFD100200021ECE7EE
:1020F000F0B40125ED070F005F40EED40C00871A05
:102100009C4105D2C01BA141D219634169406B407B
:10211000AE0ADF184C18F442E1D2640D7F0DE2D014
:10212000E61B362ED1DCDB022B43DB0AA4460C0D6A
:10213000C9022943C90A012E28DC04D1D607520856
:10214000DF073A435B08EF0A76429041994114D089
:1021500039423BD1B61940414941761C394204D13C
:10216000761C001849413942FAD0B9436746B74254
:1021700008D9A41B24052143A7E70042EAD136422F
:10218000E8D1A2E7E40AE10700209EE7202E0BDD5C
:10219000203E1F00F340F7415F40012A00225741D3
:1021A0007E42984191410BE01700F741F2405740C1
:1021B000F3415A40B340F3405A407E429041994126
:1021C0000A0303D2641EB619404149410027641E28
:1021D00024054208AE4178416141F0BC7047FEE7FA
:1021E000F8B598B005000C0017001E001E9A00BF3D
:1021F000A3A003C86B4603C3079406A82B2142542F
:1022000000200D9003950597049616E0059C3D006F
:10221000039E21780798B0470790002800D115E168
:102220000D98401C0D90641C6D1EF2D1039601E0C8
:10223000ECD501270598C019059005980078252848
:1022400006D100250A950B950C950021059C0CE004
:102250000021C9436A46059800F0B6FA0700E7D1A5
:102260000D98F5E0012008430100641C2078202827
:10227000F8D023280CD02B2804D02D2804D03028C7
:102280000AD0E7E00220EEE70A0004211143ECE760
:10229000080008210143E8E708001021FAE70F953C
:1022A0000AE00F9A754B9A4205DA93009A18520089
:1022B000101830380F90641C20780200303A0A2A37
:1022C000EFD320782E2803D00020C0430E9027E0C3
:1022D000641C22782A2A0AD104980068049A1060A3
:1022E0000268001D049B18600E92641C18E02D2AE1
:1022F00001D1641C00E000220E950CE0002A09D1F7
:102300000E9B5E4EB34205DA9E00F3185B00181870
:1023100030380E90641C20780300303B0A2BEDD33C
:1023200006AF3985267800BF57A0310000F054FA77
:10233000002801D0641C00E000262A203E54385CAE
:10234000682806D12078682803D162202A21785491
:10235000641C12A809902378049A06A9039800F037
:10236000C5F8611C0591002870D10F980A99401A90
:102370000C99401A0B99401A11900420398D014292
:1023800012D1202069460872119800280CDD119C9A
:10239000039D012302AA06A9280000F0BFF9002826
:1023A00054D1641EF5D103950A9D12AC002D0DD0B9
:1023B000039E21780798B0470790002846D00D98D3
:1023C000401C0D90641C6D1EF3D1039630206946AD
:1023D00008720C9C002C0BDD039D012302AA06A9A8
:1023E000280000F09BF9002830D1641EF5D1039538
:1023F000089C0B9D002D0DD0039E21780798B047B7
:102400000790002822D00D98401C0D90641C6D1E72
:10241000F3D103960420398D014200D10DE720202D
:10242000694608721198002800DC06E7119C039D9C
:10243000059F049E012302AA06A9280000F06EF958
:10244000002803D1641E00D1DCE6F3E70020C0437E
:1024500019B0F0BD2A2800D021E704980268026074
:102460001068121D049B1A600F90002804D5424288
:102470000F920A0004211143641C22E7CBCCCC0C40
:102480000000000000000000686C747A4C0000003E
:10249000622810D0682801D06C2819E0002A0A6848
:1024A0000A60106803D0121D0A6000B217E0121D06
:1024B0000A6080B217E0002A0A680A60106803D038
:1024C000121D0A6040B20AE0121D0A60C0B20AE0A2
:1024D000002A0A680A60106803D0121D0A60C1173A
:1024E0007047121D0A6000217047000070B50C0093
:1024F00011001E00E568252E00D185E0582E37D04A
:10250000632E0ED0642E16D0692E14D06F2E2FD0CD
:10251000702E4AD0732E54D0752E29D0782E27D005
:1025200078E02069421C22610A680A601368121D63
:102530000A602B5478E001222A20205CFFF7A8FFD4
:102540002060002804D52069411C21612D210DE067
:10255000208D810704D52069411C21612B2105E0D4
:10256000C0071DD52069411C21612021295417E095
:1025700000222A20205CFFF78BFF20602820205CAF
:1025800000070DD5206800280AD020203043782885
:1025900006D1206930212954401C411C21612E5450
:1025A00020692818A060310007E008680860026808
:1025B000001D08602260A5607821200000F036F838
:1025C00032E0086808600568001D0860A560002DFD
:1025D00007D10024E44300BF5DA000F009F9201AF0
:1025E00070BD266A002E03D5280000F025F909E009
:1025F00032000021280000F027F9002801D0401BFC
:1026000000E0300060610FE02069411C216125215C
:10261000295409E02169481C206125226A543100AF
:1026200002D0411C21612E54002070BDF0B583B052
:102630000A00C4686F2901D1082506E0202313434E
:10264000782B01D00A2500E01025182703681E000A
:10265000642901D0692903D1002B01D571420E00F4
:10266000002E1FD1016A00291CD1082D44D1282138
:10267000415C090740D517273021E1753CE0002A6D
:102680000ED52822825C14231340102B08D1426AF5
:102690000369D21A8369D21A511A012900DB8161B8
:1026A00003B0F0BD0290684602707F1E01973000B3
:1026B0002900FFF7FEF93031C8B23A2803DB68463B
:1026C000007851380918E15530002900FFF7F1F979
:1026D000060004D002988068E1198842E5D3029888
:1026E000082D09D12821415C090705D5E15D302974
:1026F00002D07F1E3021E1551821C91B4161E2192A
:102700008260026A9142BADA511A8161018D024AED
:102710000A400285C4E70000EFFF0000F8B507009B
:102720000020002B12D00E0014001D0021787068CC
:10273000B8477060002807D0F069401CF0610020A5
:10274000641C6D1E02D0F1E70020C043F2BD000002
:102750007072696E74665F733A20626164202573DB
:1027600020617267756D656E7400000030B4536847
:10277000D418042B0BDA002909D0057825700578C8
:10278000002D04D05B1C491E641C401CF1E7536003
:1027900030BC704738B500290ED01D001400FFF77B
:1027A000E5FF616820006A6B90470122D243811ADD
:1027B00002D0491E02D004E0012000E00020C04306
:1027C00032BD0021616032BD80B5024BFFF7E2FFF0
:1027D00002BD00005000002000BFC9B200E0401C54
:1027E00002788A4202D0002AF9D100207047FEE721
:1027F00080B5002801D100BF07A006490B68002B57
:1028000003D022220021984701E000F029F822207D
:1028100002BD000064060020636F6E73747261690C
:102820006E742068616E646C65723A206261642027
:102830006D65737361676500010000E0491C0A78EB
:10284000002AFBD1081A7047C9B201E0401C521E91
:10285000002A03D003788B42F8D1704700207047DC
:1028600080B5012000F002F801BDFEE780B500BF91
:1028700000BF024A11001820ABBEFBE72600020091
:10288000F0B5020052B2002A1CD4884A03005BB2A1
:102890009B0804246343D258FF238407A40F082510
:1028A0006C43A3409A438901C9B283079B0F082454
:1028B0006343994011437D4A40B280080423584342
:1028C000115022E0A84B020052B21207120F083A30
:1028D000920804246243A44C05006DB22D072D0F0D
:1028E000083DAD08042675436459FF258607B60FD9
:1028F00008277E43B540AC438901C9B28007800FE9
:1029000008256843814021439950F0BD80B5411EA0
:1029100080225204914201D301200EE0401E9349CF
:10292000086003210020C043FFF7AAFF0020904960
:1029300008600720AF490860002002BD80B58DA067
:10294000FFF75EFBAC48FFF75BFB8B498B48FFF75B
:1029500057FB8B498B48FFF753FB8B49A748FFF781
:102960004FFBA748FFF74CFBA348FFF749FB01BD0E
:1029700080B5002000F085F9A0218903002000F037
:1029800073F9012000F07DF9192000F003FB002805
:10299000FAD0022000F088F901BD80B5994800689E
:1029A000FA218900FFF785F8FFF7B0FF002800D073
:1029B000FEE701BD80B501219C20C00300F088FA2C
:1029C0000121914800F0A4FA0121904800F090FA0A
:1029D00001BDE0B5022000F062FB02200190002062
:1029E00001A90871082001A94871012001A9887175
:1029F00001A800F005FB0121002000F05DFB05208F
:102A00006946087000206946487001206946887050
:102A1000684600F081FB07BD80B5FFF7A9FFFFF70F
:102A2000BCFFFFF7C7FF00F0B1FB00F063FC00F054
:102A3000A3FCFFF7CEFF01BD80B500228021090273
:102A40009020C005FFF7A3FA322000F00EFD01220E
:102A5000802109029020C005FFF799FA322000F08A
:102A600004FD01BD80B56A480078401C68490870C3
:102A7000684A0A216648FEF79BFB002806D001221F
:102A8000802109029020C005FFF781FAFDF718FBAD
:102A90000028FBD00020FDF716FBFFF7CDFF5E48B6
:102AA000FFF7AEFA5D48FEF75FFB01BD00E400E012
:102AB00010B5FDF7FFFA02283BD10020FDF7FDFA23
:102AC0005748007857490870574800F0DDFCFEF77A
:102AD00007FE5649087053480078FF21C943411842
:102AE0005348FFF78DFA514801785248FFF788FAAA
:102AF0005148FFF785FA002407E050482100C9B289
:102B0000415C4F48FFF77CFA641C4E4908784A78CC
:102B10001206120C10432100C9B289B280B2814260
:102B2000EBD349A0FFF76CFAFFF786FF3B48FEF7AF
:102B30001BFBFDF7BFFA042808D14448FFF760FAF1
:102B40000020FDF7BAFA4248FEF70EFBFDF7B2FA95
:102B5000032808D13F48FFF753FA0020FDF7ADFAEC
:102B60003B48FEF701FB10BD1CED00E014E000E067
:102B700018E000E00A0D0000983F00087C3F0008C4
:102B8000D4400008B43F00088C40000880B5002005
:102B9000FFF742FF012000F059FCFFF7CFFEFDF7E1
:102BA000E8FC002803D02C48FFF72AFAFEE72B4860
:102BB000FFF726FAFEF7C2FB04219020C005FFF7BD
:102BC000D5F9012803D12648FFF71AFA08E025486D
:102BD000FFF716FA1E48FEF7C7FA01E0FFF742FFBB
:102BE00004219020C005FFF7C1F90028F6D1FFF7B6
:102BF0005FFFF5E710E000E0A43D0008D03F0008CB
:102C00005C3E00084C000020004000100140000025
:102C1000000000200C000020DC400008983A000072
:102C2000FF0500206806002000060020690600203D
:102C300098400008A4400008E4400008E00000209C
:102C4000EC400008FB0100200D0A0000B040000825
:102C5000881300003C4000084C4000085C4000081D
:102C60001440000828400008154A1268154B13400C
:102C7000134A1360124A126801431143104801605D
:102C8000704700B5C0B2002807D00C48006880210A
:102C9000490401430948016005E0084800680A4901
:102CA00001400648016000BD002105490968032272
:102CB0009143084302490860704700000010024039
:102CC00004100240FF7FC2FFFFFFFFFE30B504008B
:102CD00000200020002000200020002594480168EA
:102CE0000C200840002806D0042807D0082808D067
:102CF0000C2823D025E08F48206024E08E482060F7
:102D000021E08B480168F0208003084088490A6868
:102D1000C02149021140850CAD1C002902D18F4809
:102D2000454309E08E4800680107090F491C8248A5
:102D3000FEF7BFFE68430500256004E0924820606E
:102D400001E07C4820607A480168F02008400009D2
:102D50008C49085C2168C140616075480168E020C9
:102D6000C0000840000A8749085C6168C140A16052
:102D700056480068C00502D48448E0600AE06C4808
:102D80000068400403D4A0684008E06002E0A06846
:102D90008008E0604D480068400602D47C4820610D
:102DA00002E080200002206148480068C00602D48A
:102DB0006048606101E02068606144480068800705
:102DC000800F002802D1A068A0611AE03F48006887
:102DD0008007800F012802D12068A06111E03B48E4
:102DE00000688007800F022803D180200002A061C4
:102DF00007E0364800688007800F032801D14D485E
:102E0000A06132480068C02189020140002902D136
:102E1000A068E06123E02D480068C02189020140DC
:102E200080204002814202D12068E06117E02748FB
:102E30000068C0218902014080208002814203D1C4
:102E400080200002E0610AE020480068C021890279
:102E50000140C0208002814201D13648E0611B4818
:102E60000068C02109030140002902D1A068206246
:102E700023E016480068C021090301408020C002F9
:102E8000814202D12068206217E010480068C0210A
:102E90000903014080200003814203D18020000209
:102EA00020620AE009480068C02109030140C020EF
:102EB0000003814201D11F482062044800680006D7
:102EC00002D43148606200E0656230BD30100240DB
:102ED00000B5C9B2002905D04149096808434049F5
:102EE000086004E03E49096881433D48016000BD37
:102EF00000B5C9B2002905D03A49096808433949E3
:102F0000086004E03749096881433648016000BD24
:102F100000B5C9B2002905D03349096808433249D0
:102F2000086004E03049096881432F48016000BD12
:102F30000410024000127A00001BB70000B5C9B2AD
:102F4000002905D02949096808432849086004E098
:102F50002649096881432548016000BD00093D00FC
:102F60002C10024000B5C9B2002905D020490968DB
:102F700008431F49086004E01D49096881431C4853
:102F8000016000BD3C000020006CDC02809FD50089
:102F90001280000000B50021002100210100C9B20B
:102FA0004909C9B2002902D1124909680BE0012977
:102FB00002D10A49096806E0022902D10E490968CE
:102FC00001E00E490968C0B2C006C00EC140C80782
:102FD00001D5012000E00020C0B200BD2010024059
:102FE00014100240181002401C1002400C10024045
:102FF0001010024000100240241002403410024021
:1030000000B5002127498279002A35D0254A126867
:1030100003689A43234B1A60234A126803689A4351
:10302000214B1A60027989180A68036813430B6000
:103030001E490968026891431C4A11601C490968CD
:10304000026891431A4A1160417910290CD117493D
:10305000096802680A4315490A6015490968006849
:103060000843134908600DE00E49427989180A683F
:1030700000681043086005E0027989180A68006852
:1030800082430A6000BD00B500210A490968084072
:10309000002801D0012000E00020C0B200BD054999
:1030A0000860704700040140040401400804014026
:1030B0000C0401401404014030B400220F228B079D
:1030C0009B0F042463439A40124B0C00E4B2A410FB
:1030D00004256C431B5993430E4A0C00E4B2A41020
:1030E00004256C4313510B4A0B00DBB29B100424E4
:1030F0006343D258C0B28B079B0F042463439840AC
:103100001043044AC9B2891004235943505030BCBB
:10311000704700000800014010B5002181780029A7
:1031200025D017490278921004235A438958FF2268
:1031300003789B079B0F082463439A40914342788E
:103140009201D2B203789B079B0F082463439A40F5
:103150000A430B4903789B1004246343CA5001219E
:103160000078C006C00E81400648016006E00121DB
:103170000078C006C00E81400348016010BD000009
:1031800000E400E000E100E080E100E0E0B50020C4
:103190006946887101206946C871012069464871F5
:1031A000012069460871802040010090694650481E
:1031B000FEF78CFE802149014D48FEF7E3FE00201A
:1031C0006946887101206946C871012069464871C5
:1031D00002206946087180208001009069464448B9
:1031E000FEF774FE00220D214148FEF7D9FE0020B3
:1031F0006946887101206946C87101206946487195
:103200000220694608718020000200906946384813
:10321000FEF75CFE00220F213548FEF7C1FE0020BC
:103220006946887101206946C87101206946487164
:103230000220694608718020C001009069462C4830
:10324000FEF744FE00220E212948FEF7A9FE0020C9
:103250006946887102206946C87101206946487133
:103260000020694608710220009069469020C00540
:10327000FEF72CFE00206946887101206946C8715E
:1032800001206946487100206946087101200090BC
:1032900069469020C005FEF719FE00206946887136
:1032A00001206946C87101206946487101206946BC
:1032B000087180200002009069469020C005FEF74A
:1032C00005FE802109029020C005FEF75BFE042068
:1032D0000090002069460871032069464871022069
:1032E0006946C87169469020C005FEF7EFFD07BD2D
:1032F0000004004800B585B000206946088082209F
:10330000400069464880E020C0006946888000206F
:103310006946088100206946C8808020800069468F
:10332000488110206946888100206946C8810720AD
:10333000694608826946074800F0B2F880214901D1
:10334000044800F0E2F80121024800F0D0F805B08E
:1033500000BD00000038004010B504002100C9B2D3
:1033600089B2304800F0DEF980212E4800F004FADE
:103370000028F9D0200010BD80B588B00020694633
:10338000887100206946C871012069464871022091
:103390006946087180208000009069469020C00531
:1033A000FEF794FD012209219020C005FEF7F8FDEB
:1033B00000206946887101206946C871012069466C
:1033C00048710220694608718020C000009069465B
:1033D0009020C005FEF77AFD01220A219020C00549
:1033E000FEF7DEFD0F4800F0B5F8E1204002029044
:1033F0000020049000200590002003900C200690EF
:103400000020079002A9074800F00FF900220649A2
:10341000044800F093F90121024800F065F909B071
:1034200000BD0000003801400501050000B5002185
:103430000021002103E0521C102AFCD3491C0A0081
:10344000D2B2824201D20022F6E700BD00B50021CF
:103450000021002104E0521C094B9A42FBD3491C75
:10346000814201D20022F7E700BD00B500210549E5
:103470000968044A1268521A8242FAD300BD000059
:10348000BC1100005C060020C37882784178007887
:103490001B021A4309021204084310437047FEE757
:1034A00030B400220388C12292011A400B88CC89D3
:1034B0001C43CB8823430C891C434D8925438B89AE
:1034C0002B43134303808288184B13408A881A4386
:1034D00082800A8A02820288154B13404988194368
:1034E0000180818B134A0A40828330BC704700B54B
:1034F000C9B2002904D0018840220A43028003E0B7
:1035000001880D4A0A40028000BD82880B4B13409F
:103510008380828811438180704700220C300170C3
:10352000704700210C30007870470000FFF0000069
:10353000FBFF0000FFF70000BFFF0000FFEF0000EF
:1035400000B500220089084201D0012000E00020DF
:10355000C0B200BD80B56B4988420AD101218020EC
:10356000C001FFF7EBFC00218020C001FFF7E6FC63
:103570005AE0654988420AD1012180208002FFF784
:10358000F1FC002180208002FFF7ECFC4CE05F4959
:1035900088420AD101218020C002FFF7E3FC00210C
:1035A0008020C002FFF7DEFC3EE0594988420AD184
:1035B000012180200003FFF7D5FC002180200003BB
:1035C000FFF7D0FC30E0534988420AD10121802026
:1035D0004003FFF7C7FC002180204003FFF7C2FC37
:1035E00022E04D49884208D101212020FFF7A6FCA6
:1035F00000212020FFF7A2FC16E04849884208D1AC
:1036000001214020FFF79AFC00214020FFF796FCA3
:103610000AE04349884207D101218020FFF78EFC50
:1036200000218020FFF78AFC01BDF8B58AB00400B4
:103630000D00002000200020206801218843206028
:1036400060683A490140A8680843606020683849CA
:1036500001406868EA680243286910430843206013
:10366000A0683449014068690843A0606846FFF7D4
:103670002DFB2448844201D1069F0AE0224884425F
:1036800001D1079F05E02148844201D1089F00E055
:10369000029F206800040CD5022078432968FEF7B9
:1036A00008FA06000220474338002968FEF701FAAD
:1036B00008E038002968FEF7FCF9060038002968A0
:1036C000FEF7F7F928684008814200D3761C20688D
:1036D000000406D570084007400F17493140060026
:1036E0000E43A6810BB0F0BD00B5C9B2002904D0CD
:1036F000016801220A43026003E00168012291434C
:10370000016000BD00380140004400400048004016
:10371000004C0040005000400014014000180140DF
:10372000001C0140C905C90D01857047FFCFFFFF8F
:10373000F3E9FFFFFFFCFFFFF0FF000010B50023DF
:103740000023002300230B009BB21B0A9BB2CCB2C8
:103750000121A140022B01D1001D02E0032B00D169
:103760000830D2B2002A03D002681143016002E09F
:1037700002688A43026010BD00B50022C0690140A2
:10378000002901D0012000E00020C0B200BDFEE70A
:1037900080B54B4800680121014349480160494810
:1037A0000068494901404748016045480068474969
:1037B0000140434801604248006845490140404893
:1037C000016040480068434901403E48016042486A
:1037D00000680F218843404908604048006840491C
:1037E00001403E4801603F480068012188433D494F
:1037F000086000203C49086000F001F801BDC0B538
:1038000000200190002000902D480068802149028E
:1038100001432B4801602A48006880218902084042
:1038200000900198401C01900098002804D1019854
:10383000A021C9018842EED121480068800302D549
:103840000120009001E0002000900098012834D170
:103850001120264908601B4800681A490860194869
:103860000068184908601748006821490140154858
:103870000160144800689021090301431148016068
:103880000F4800688021490401430D4801600C483D
:1038900000688001FBD50B48006803218843094973
:1038A0000860084800680221014306480160054895
:1038B00000680C2101400829F9D103BD0000000077
:1038C00000100240041002400CB8FF08FFFFF6FE93
:1038D000FFFFFBFFFFFFC0FF2C1002403010024033
:1038E000ACFEFFFF341002400810024000200240EE
:1038F000FF7FC0FF010B01FF010600FF010701FF71
:10390000010601FF010B00FF01060000010B00FF93
:10391000010B01FF030201FF03040100030001FF8B
:10392000010B00FF030801FF03000101030601FF73
:10393000030101FF030B00FF030001FF030B00FF66
:10394000030701FF050001FF030B01FF050001FF55
:10395000030B00FF050301FF05010100050301FF43
:10396000050001FF050801FF07000100050B01FF2D
:10397000050501FF050900FF07020100070001FF1F
:10398000070001FF070201FF0D010100070201FF0F
:10399000070401FF070501FF0D020100090001FFF7
:1039A000070B01FF070B01FF0D040100090201FFD6
:1039B000090301FF070B00FF0D060100090501FFC8
:1039C0000B0201FF0B0301FF0D0901000B0301FFB7
:1039D0000B0401FF0B0501FF150401010B0601FF9C
:1039E0000D0401FF150401FF150501010B0B01FF7B
:1039F0000D0701FF150501FF150701010D0801FF66
:103A0000150501FF150701FF15080101150601FF46
:103A1000150701FF150100FF15010002150801FF40
:103A2000150901FF150300FF15030002150200FF31
:103A3000150300FF150500FF150500FF150500FF24
:103A4000150500FF150600FF150600FF150600FF0F
:103A5000150600FF10B5040002211148FFF770FDA4
:103A60000028F9D02100C9B20D48FFF756FD012109
:103A70000B48FFF765FD0028F9D00948FFF751FD15
:103A800010BD80B5802149010648FEF77BFA01BDD3
:103A900080B5802149010348FEF777FA01BD000097
:103AA000003800400004004880B5FFF7CFFC01BD9E
:103AB00080B5FFF7BBFC01BD80B50A20FDF73DFADC
:103AC0000020FDF73AFA00210A20FDF757FA0021FD
:103AD0000020FDF753FA01BD80B50320FDF72DFA54
:103AE00001210320FDF74AFA01BD80B50320FDF74F
:103AF00024FA00210320FDF741FA01BD80B5002121
:103B00000020FDF73BFA01210A20FDF737FA01BD3D
:103B100080B500210A20FDF731FA01210020FDF7D0
:103B20002DFA01BD80B500210020FDF727FA002104
:103B30000A20FDF723FA01BD00031B0004760006EE
:103B4000010015210031D000366600376B0038CCFB
:103B5000003909003CB4003E4200406A00410600C2
:103B600042AA004877004977004A77004B05004F8A
:103B7000040050D2005E8001031B010476010B0893
:103B8000010F0A011900012FD00143DA02031B02C1
:103B90000476022CC0022D27022E09022F000230CB
:103BA0001003031B030476030A0E030BCF030C1947
:103BB000030D980312160313140316F403170103DD
:103BC0001FD903262000000040CF2318C065BC1871
:103BD000C065BC188047A1198047A1194029861AE1
:103BE0004029861A4056B71B4056B71B4083E81C35
:103BF0004083E81C40B0191E40B0191E8028971F52
:103C00008028971F4037AD21809E473080CB783188
:103C100080CB7831008F4233008F423380520C3595
:103C200080520C3580AC6E3780AC6E378006D1394F
:103C30008006D1398060333C8060333C00512E3F98
:103C400000512E3F007E5F40F1B481B00168421800
:103C500041684808131801988068C90722D5494669
:103C600040181FE001980C30F6BC70471778521CC2
:103C70000770401C761EF9D1002C13D01678521C08
:103C800089080D40032D01D11578521C29027118A5
:103C90004D424119A41C05D00D78491C0570401CEB
:103CA000641EF9D19A42DDD01178521C03250326F7
:103CB0000E4002D11678F61C521C0C090F2CD9D1DB
:103CC00014780F34521CD5E7704700B5FEE77047F3
:103CD00070470D480068401C0B4908600B4800689D
:103CE000401C0A490860704770477047704780B5AC
:103CF0000121074800F01AF8002803D001210448E8
:103D000000F027F801BD00005C06002060060020DE
:103D10000020004080B50220FFF7B5F9002804D04C
:103D20000220FFF7BCF9FDF76EFA01BD00B50022D5
:103D300000220022028A0A408089014092B2002AB1
:103D400004D089B2002901D0012000E00020C0B2D7
:103D500000BD89B2CA4302827047FEE70101000339
:103D6000010103F03005018105A18105F081070102
:103D7000810501800531800701800721800B1180BA
:103D80000B21800B41800B61800B91800BB1800D6A
:103D9000B1800FB180115080153020155070156022
:103DA000700000002A2A2A2A2A2A2A2A2A2A2A2AAB
:103DB0002A2A2A2A2A2A2A2A2A2A2A2A2A2A2A2A63
:103DC0002A2A2A2A2A2A2A2A2A2A2A2A2A2A2A2A53
:103DD0002A2A2A2A2A2A2A2A2A2A2A2A2A2A2A2A43
:103DE0002A0D0A00094880F3088804200168090E9A
:103DF0001F22914205D1064801210160054800219A
:103E0000016005488047054800470000700A00200F
:103E1000181002400000014091370008BD40000822
:103E200070B40123002413E00168001D194202D080
:103E30004D466D1E49190C60091D121F042AFAD245
:103E40000D00960701D50C80AD1C1A4000D02C70D7
:103E50000268001D002AE7D170BC70472A207777DE
:103E6000772E73696C69636F6E7472612E636F6D08
:103E700020C9EEDBDAB9E8B4ABBFC6BCBCD3D0CF47
:103E8000DEB9ABCBBE0D0A000600F8060600F80648
:103E90000600F8060600F80614C0F91422D4F92228
:103EA00030D8F9303EDEF93E0EFF804F12803801E7
:103EB0000980F3090980F3090980F3090980F309EE
:103EC0001406F01422C6F1223173F0313FDEF13FC7
:103ED0000EFFE0322980380110B5074979441831C6
:103EE000064C7C44163404E0081D0A68891888478B
:103EF0000100A142F8D110BD2C00000048000000D4
:103F0000465245513D202564202053463D256420DE
:103F1000202042573D2564202043523D2564200D3A
:103F20000A000000FDFEFFFF8C050000E0000020FD
:103F30000000000015FDFFFFCC010000E4000000C0
:103F40000000002000F00DF8002801D0FFF7C4FFAA
:103F500000BF00BF002000BF00BFFEF717FE00F04B
:103F600002F80120704780B500F002F801BDFEE7BD
:103F700007463846FEF77AFCFBE7FEE72A20C0FD3D
:103F8000B3CCC3FBB3C620202020202020203A2021
:103F900025730D0A000000002853696D706C657868
:103FA0002950414E333032395F50414E3330363034
:103FB0005F444B002A20C0FDB3CCB0E6B1BE202048
:103FC0002020202020203A2025730D0A0000000028
:103FD0002A20B7A2B2BCC8D5C6DA202020202020D3
:103FE00020203A2025730D0A0000000038B5050096
:103FF0000C00200000F006F8A04200D000252800A8
:1040000032BDFEE780B50249FFF7A6F902BD00BF49
:1040100098000020524620747820746573742073D1
:10402000746172742E0D0A005246207278207465F5
:1040300073742073746172742E0D0A007278207488
:10404000696D65206F75740D0A0000005246206985
:104050006E6974206661696C0D0A00005246206921
:104060006E6974206F6B0D0A000000001A2A3A4A2C
:104070005A6A7A7A1A2A3A4A5A6A7A7A00007A424C
:104080000000FA4200007A430000FA433230323531
:104090002F30382F33300000527373693A20256473
:1040A00020200000536E723A20256420202000005A
:1040B000637263206572726F720D0A0000BF00BFE9
:1040C00000BF00BFFFF73EFF0078401E8041C043A5
:1040D000C00F704756322E33000000007478206FF6
:1040E0006B0D0A00446174613A200000253032787B
:1040F000200000004300FEE7FEE7FEE7FEE7FEE7E4
:10410000FEE7FEE710130001020304050607080995
:104110000000E8030000B93A0008D9041003113B7D
:104120000008FD0812250812EB081255041283043A
:1041300012910412A90412B104120001213F2104BA
:104140003142F0071D6CDC02F4400008010001431D
:10415000C9404C2101613C10070204010104060022
:10416000205404520404211B6108F0060FDC0000F7
:0641700020C80000206BD6
:04000005080040BDF2
:00000001FF
